:020000040000FA
:0600000002011A022DA10D
:03002B000234F2AA
:03003B0002351A71
:0300430002349CE8
:03005300022E1763
:03005B00023594D7
:03006B000234C795
:10008300022BF7E5C754F84401F5C77901220000B4
:100093000080FB120086B90003020104E479217891
:1000A30008B800028004F709D8FCE479297802B87B
:1000B30000028004F709D8FCE490028178EA7916FB
:1000C3008002F0A3D8FCD9FA781A90014A7A01BACF
:1000D30000028007E493A3F608DAF97A6A7B1890A2
:1000E300014B78DE79038015E493A3AD82AE838A56
:1000F300828B83F0A3AA82AB838D828E83D8E9D9C6
:10010300E77582317583FF740412012C7582917532
:100113008300740012012C75D00075813F7518811E
:10012300751902759F00020096C09FF59FE473D076
:100133009F22D083D082C09FE493C0E0740193C018
:10014300E0740293F59F220130053C056C056605BA
:10015300FF0000B4000028002800283075A000A08C
:1001630000A000A00000080008E001F0001000104B
:10017300001000100010001000500050005000103C
:10018300001000D0070000000000000F0001000570
:1001930000307507001000010081FF00000000FF20
:1001A300FFFFA406C206AA06E606FF020202080231
:1001B3005000A0000000E80302A5820100009A821B
:1001C30002A182010000CD18028E81010000C40249
:1001D30002A182010000CE1802A382010000DA020C
:1001E30002A182010000CF1802AB82010000DC02F1
:1001F30002A182010000D01802B182080000DD02D2
:1002030002A182010000D11802CB82010000D218A2
:10021300FF0100FF2002A582010000948202A18257
:10022300010000361902C9820000000000029D820D
:100233000300000B031700000E000E000E000E005B
:100243000E000E000E000E000E000E000E000E003B
:100253000E2810461022106C117E11661102020244
:10026300020202020202010D000000100102A58237
:10027300010000978202A1820100007F1902C1825E
:10028300010000180D02A182010000801902BF8243
:10029300010000778102A182010000811902BD8261
:1002A300010000698102A182010000821902BB8260
:1002B300010000E48002A182010000831902B982D7
:1002C300010000F68002A182010000841902B782B6
:1002D300010000088102A182010000851902B58294
:1002E300010000C08002A182010000861902AF82D2
:1002F3000100005B8102A182010000871902AD8227
:10030300010000881901E803057710020A0A28137F
:10031300FFFFFF000130750302010600000000002B
:1003230000000000000000000000000000000000CA
:1003330000000000000000FFFF0600800CE803023D
:1003430001060302F0FF09FF4A69616E5975616E88
:1003530036173C1748174E1742171A446174610049
:1003630002A582010000918202A1820400007C1A8E
:1003730002C7820C00005618029D820C000054181C
:10038300029F820400007D1A0100B0423BAAB83FDD
:100393000000003F8C906339AA0CA33A00941E3CE2
:1003A3008042633DCFFE753E1572313F0000803FB2
:1003B300F304353F8096184B3031323334353637BA
:1003C300383941424344454600286E756C6C2070B1
:1003D3006F696E74657229003031323334353637C4
:1003E3003839616263646566003F3F3F0000008007
:1003F3007FF9021550B743BA5100E7DB2E0000A086
:1004030040000080BF2292D43EDD9B2A3F040000BF
:100413004000000000FFFF7F7FFFFF7FFF010080A0
:10042300341872313F12013536FC0312013549FC91
:10043300031201357AFC03120135B4FC03120135B2
:100443000DFD0312013554FD031201359CFD03120A
:100453000135CBFD03120135FAFD0312013531FEDF
:100463000312013578FE0312013591FE03120135A3
:10047300E6FE03120135FFFE031201354DFF0312A1
:10048300013587FF03120135C9BF03120135CCC003
:100493000312013505C10312013528C103120135C9
:1004A3003AC10312013578C103120135F4C10312B5
:1004B3000135BCC203120135DEC20312013575C317
:1004C30003120135C7C303120135F8C30312013503
:1004D30005C4031201356FC403120135C6C40312E8
:1004E3000135C9C40312013502C50312013505C51F
:1004F300031201350FC50312013563C5031201351C
:10050300A4C503120135D7C50312013514C603125E
:10051300013516C703120135BAC70312013523C8C3
:100523000312013561C8031201355DD10312013590
:10053300F3D1031201353ED203120135A2D20312C5
:1005430001352CD303120135E5D30312013507D747
:100553000312013584D803120135A7D803120135DC
:1005630003DA0412013523DA0412013544DB0412E1
:10057300013597DB04120135EBBA0412013513BBC5
:100583000412013540BB0412013578BB0412013556
:10059300D6BB0412013522BC0412013589BC0412F6
:1005A3000135C9BC0412013506BD0412013534BD41
:1005B30004120135DEBD04120135E8BD0412013514
:1005C300F5BD0412013528BE0412013534BE0412F0
:1005D30001354CBE0412013556BE04120135B5FB7C
:1005E30004120135C3FB04120135DBFB0412013590
:1005F300F2FB0412013514B802120135BEB802121F
:100603000135D1B9021201354DBA021201356BBB66
:1006130002120135A7BB0212013542BC0212013599
:1006230026BD02120135E9BD0212013561BE021277
:100633000135EFBF0212013560C0021201351AC144
:10064300021201350CC2021201354CC202120135ED
:1006530000C30212013532C30212013528C502124A
:1006630001356FC5021201358DC502120135F3C57F
:1006730002120135C2C60212013586C702120135C4
:10068300A5C902120135AFC902120135E9E8031207
:100693000135D3E9031201357EEA03120135CFEAAE
:1006A300031201357FEB03120135F0EB0312013521
:1006B300D5EC0312013509ED0312013502EE0312E5
:1006C30001353FEE031201351BEF031201355AEFDB
:1006D3000312013576EF03120135D6EA0412013510
:1006E3005AEB0412013585EB041201359FEC041219
:1006F3000135E4BE04120135FABE0412013518BFF8
:100703000412013529C00412013533C00412013526
:100713005EC10412013555C204120135C2C204126E
:100723000135CCC20412013510F60312013546F728
:1007330003120135C0F703120135F0F70312013537
:1007430003F8031201355AF8031201356FFA031245
:100753000135599302120135E5930212013549958A
:100763000212013555950212013590950212013599
:10077300FF950212013508970212013511980212F2
:100783000135D89802120135359A02120135539A70
:1007930002120135709A021201351D9B02120135B6
:1007A3009A9B02120135C29B021201358C9E0212E2
:1007B3000135919E02120135AAA002120135F8A05B
:1007C3000212013568A102120135A6A102120135F8
:1007D30082A20212013542A3021201358EA3021234
:1007E300013591A302120135D5A3021201351DA4CF
:1007F300021201355CA4021201357EA402120135F6
:10080300B2A40212013515A5021201356F95041227
:1008130001357D9504120135D09504120135EF950C
:100823000412013534960412013578970412013508
:100833001398041201355798041201358198041254
:100843000135F09804120135369904120135AD993A
:10085300041201355E9A04120135AE5F00120135B0
:10086300BE5F001201355F6000120135BB600012EC
:100873000135786100120135946200120135C662B8
:1008830000120135F56200120135A2640012013530
:100893001967001201358969001201357B6A00125C
:1008A3000135746B001201357B6D001201356F70D9
:1008B300001201359E7100120135A2730012013539
:1008C300B2740012013541760012013532770012FD
:1008D3000135807700120135EF7700120135137867
:1008E30000120135647800120135057D00120135CF
:1008F300067E00120135677E00120135927E0012DA
:100903000135587F00120135709A041201357A9A25
:1009130004120135BF9A04120135D39A041201352A
:10092300639B041201359C9B04120135D79B04126F
:100933000135009C041201354E9C04120135639C61
:1009430004120135789C04120135A09C0412013570
:10095300B59C04120135C99C04120135DD9C0412B7
:100963000135F29C041201352C9D04120135509D72
:10097300041201357C9D04120135B39D0412013527
:10098300159E04120135879E04120135CA9E041276
:100993000135F49E041201351F9F04120135FAF844
:1009A30004120135B6E80212013599E90212013544
:1009B30014EA021201354FEA02120135A0EB0212CA
:1009C300013529EC0212013541EE02120135D3F053
:1009D3000212013585F10212013591F2021201353D
:1009E30004F4021201355DF4021201354C90041235
:1009F30001358F9004120135139104120135E691EC
:100A030004120135BD940412013550DF041201357F
:100A1300FDDF041201350AE10412013549E1041234
:100A23000135A3E104120135CEEC0412013531ED99
:100A330004120135CEED0412013503EE0412013523
:100A430033EE0412013554EE041201358FEE041215
:100A53000135AFEE0412013512A4041201359EA430
:100A6300041201355DA50412013575A60412013582
:100A73008FA804120135F38B03120135188C03126E
:100A83000135E58C03120135B98D03120135268E2C
:100A9300031201357C8E03120135188F03120135C1
:100AA3004C900312013527910312013586910312ED
:100AB30001351292031201358092031201350C9312
:100AC300031201350F9303120135599303120135B4
:100AD300CB93031201355D9403120135FE94031287
:100AE30001351E9503120135669503120135AF9545
:100AF30003120135CB9503120135F195031201352C
:100B03006B96031201357996031201350897031288
:100B1300013571970312013578AD04120135FDAD2E
:100B2300041201353FAE0412013523AF041201351F
:100B330090AF04120135D4AF0412013518B004127A
:100B4300013545B0041201356DB004120135A5B06D
:100B530004120135E3B0041201350AB10412013560
:100B630084B104120135CEB1041201354DC0011216
:100B7300013546C20112013533C50112013587C55E
:100B830001120135B2C5011201358BC601120135BF
:100B9300C6C601120135F6C60112013509C7011295
:100BA30001354AC70112013577C701120135C5C79F
:100BB30001120135FAC70112013530C8011201359E
:100BC3008FC80112013514C901120135B3CB0112CB
:100BD30001359BCD01120135D7CD0112013555CF1A
:100BE30001120135B7CF01120135A1D1011201352F
:100BF30024D201120135FBD20112013553D3011264
:100C0300013535D50112013504D70112013509D754
:100C130001120135D7D7011201356ED80112013502
:100C2300BCD901120135CDD9011201352AB60312FF
:100C33000135A3B6031201355DBC0312013568BD4E
:100C43000312013511BF031201359FBF0312013592
:100C5300C2A30112013543A40112013570A401128C
:100C63000135BBA401120135BCA50112013501A652
:100C7300011201352DA601120135A9A70112013573
:100C83002BA8011201357AA801120135E5A801123A
:100C9300013599A90112013536AA01120135B1AA0C
:100CA300011201353BAB011201358EAB0112013547
:100CB300D6AC0112013555AE0112013520AF011238
:100CC30001352DAF011201357DAF011201358DAF15
:100CD30001120135B1AF01120135B4AF0112013573
:100CE3009DB0011201357FB10112013521B201120C
:100CF3000135BCB201120135E3B20112013540B333
:100D03000112013597B301120135E5B30112013523
:100D130033B4011201359CB4011201353CB5011203
:100D23000135D8B50112013565B601120135DAB6C0
:100D3300011201352AB70112013589B701120135B4
:100D4300B0B7011201356AB8011201355BBA01125D
:100D53000135A4BA01120135D6BA011201354DBBD2
:100D630001120135D7BC011201358BBD01120135CA
:100D7300BBBD01120135D0BD0112013540BE0112C8
:100D8300013581BE0112013596BF0112013517C02D
:100D9300011201356AAC03120135B5AC03120135FA
:100DA300C1AC0312013595AD03120135ACAD03128D
:100DB3000135E9AD031201351AAE0312013552AE06
:100DC30003120135A8AE03120135BEAE031201357D
:100DD300FAAE031201350DAF0312013534AF03121E
:100DE300013568AF031201358EB003120135D8B156
:100DF30003120135D4B203120135F1B303120135E5
:100E0300D535001201351F8B04120135CD8E041226
:100E13000135019004120135008003120135C382AC
:100E230003120135C9820312013586850312013588
:100E3300E08703120135C6A8041201355DA9041227
:100E430001351BAA0412013545AA041201357BACF6
:100E530004120135F0D9011201352BDA01120135E3
:100E630070E601120135DCE701120135D9E8011200
:100E730001355EEC0112013548ED0112013594EDA7
:100E830001120135AEED01120135EBED0112013511
:100E9300F6ED01120135FFED01120135AFEE01123E
:100EA30001357FEF01120135C6EF011201352CF038
:100EB300011201359EF001120135EDA50212013533
:100EC30035A9021201353BA9021201358EB0021277
:100ED30001359BB402120135C0C60412013556C751
:100EE300041201356CC704120135C5C7041201355C
:100EF30009C80412013543C804120135DBC80412C2
:100F030001354AC90412013553C9041201355FC9B9
:100F13000412013579C904120135A3C9041201353C
:100F2300B8C9041201351ACA0412013541CA0412A0
:100F33000135D7EF03120135E4EF03120135FEEF5C
:100F43000312013531F0031201356FF0031201353D
:100F5300D4F003120135E9F003120135F4F0031262
:100F6300013501F10312013518F10312013526F1A0
:100F73000312013535F1031201354AF1031201352C
:100F83005FF1031201356AF10312013576F10312A1
:100F9300013583F10312013592F1031201359DF1FD
:100FA30003120135C2F10312013566F20312013552
:100FB30076F2031201358BF203120135A5F2031207
:100FC3000135C2F203120135DFF203120135EAF2F1
:100FD3000312013596F30312013577F40312013539
:100FE3009CF403120135A7F403120135BCF4031278
:100FF3000135D0F40312013531F50312013537F50C
:10100300031201353DF50312013543F50312013592
:101013005BF5031201358EF50312013506F5021255
:10102300013528F502120135F0F502120135AAF84F
:1010330002120135C0F902120135E1FA021201353B
:10104300BBFB021201356AFC0212013516F20112D2
:101053000135ADF20112013545F30112013535F4C5
:10106300011201356CF4011201357FF401120135CF
:10107300EDF40112013588F601120135AFF60112C4
:10108300013551F70112013586F70112013597F742
:101093000112013510F80112013531F80112013541
:1010A30049F801120135A1F901120135AAFB011218
:1010B3000135FAFD01120135FDFE011201354CFF28
:1010C300011201351FDA021201351CDB0212013550
:1010D30007DC0212013511DC021201351BDC02129E
:1010E30001353DDC0212013549DC021201359BDD7D
:1010F30002120135CADD02120135FADE0212013590
:101103003CDF0212013568E0021201353EE10212B2
:10111300013590E102120135EFE10212013526E2B9
:101123000212013561E202120135FCE502120135BA
:1011330015E60212013597E602120135A5E6021201
:101143000135FAE60212013508E70212013575E7A7
:1011530002120135E7E7021201352DE802120135CB
:10116300949703120135B69703120135A099031220
:101173000135459D03120135889E03120135629F97
:10118300031201353CF20412013561F204120135F8
:10119300D2F204120135CAD903120135D3D903128D
:1011A3000135DCD9031201350DDB031201352CDDCA
:1011B3000312013562DD031201359CDD0312013593
:1011C300D2DD031201350CDE0312013540DE0312BA
:1011D30001356CDE03120135B5DE03120135EFDE96
:1011E3000312013537DF031201358DDF0312013599
:1011F300C2DF031201351DE00312013557E003126C
:101203000135A8E003120135DEE00312013518E1D0
:101213000312013546E10312013569E10312013579
:1012230046FD0412013572FD04120135CDFD041291
:101233000135D7FD04120135E7FD041201358CB6E3
:1012430004120135B3B604120135E3B604120135B5
:10125300F1FD04120135CD8201120135E885011239
:101263000135D887011201354A88011201350889F1
:1012730001120135B38901120135438A0112013587
:10128300D28A01120135FC8A01120135698B0112E0
:101293000135A39001120135369101120135659292
:1012A30001120135C992011201357D9301120135F5
:1012B3003096011201356A9601120135D496011256
:1012C30001353197011201358E9701120135EB97E4
:1012D30001120135D698011201351C99011201350D
:1012E300679901120135889901120135EA9A0112B1
:1012F3000135059B011201358B9C01120135B89C08
:1013030001120135F89C011201353E9D0112013590
:101313005C9D011201359A9D01120135D89F01127E
:10132300013511A001120135A8A00112013548A110
:1013330001120135DBA1011201354DA20112013564
:101343008EA30112013555E404120135E9E40412B8
:101353000135BCE504120135E5E5041201354CE61F
:10136300041201350EFA041201351FFA0412013575
:101373001DD704120135E8D904120135E1FF041227
:1013830001357BF5041201358BF504120135ABF5FC
:1013930004120135A7F604120135A4DC0412013549
:1013A3003FDD0412013535DF04120135BDEE0412B1
:1013B3000135F2EE041201354BEF0412013549F009
:1013C300041201357CF0041201357FF0041201355B
:1013D3000080051201352580051201350EB2041275
:1013E300013544B204120135DAB204120135DCB31B
:1013F30004120135CDB5041201355DB60412013571
:101403006EB604120135F07F00120135F87F001229
:101413000135B4E60412013558E804120135C4E875
:1014230004120135479F0412013544A1041201350A
:10143300CAA104120135CCA20412013541A304123E
:101443000135A1A304120135A4A304120135B2A3EB
:1014530004120135C6A304120135DEA304120135BB
:10146300ECA30412013504A4041201359BFE0412FB
:10147300013511FF0412013521FF04120135F2F386
:101483000412013528F40412013552F40412013513
:1014930072F404120135F7E10312013505E2031278
:1014A30001354BE2031201359EE203120135E6E2F8
:1014B3000312013540E30312013561E303120135E1
:1014C3006FE303120135CBE303120135FEE303128D
:1014D300013511E4031201359CE40312013535E5AE
:1014E30003120135B2E503120135EBE503120135B1
:1014F30073E603120135CAE60312013527E7031227
:10150300013539E7031201355FE70312013568E757
:1015130003120135B5E80312013584F004120135D5
:10152300E5F00412013582F104120135E8F10412E9
:1015330001356FCA04120135A2CA04120135C9CBA1
:1015430004120135EECB04120135CACC0412013565
:10155300B8F60412013584F704120135EEE10412E2
:10156300013533E20412013573E20412013510E44C
:1015730004120135E5FA0412013500FB04120135AA
:1015830010FB0412013575FB0412013582FC0412B1
:101593000135A4A20312013580A303120135C7A3A9
:1015A3000312013504A40312013570A4031201359B
:1015B300C8A40312013538A50312013508A6031286
:1015C3000135F1A60312013568A703120135FDA801
:1015D3000312013588A903120135F7A90312013556
:1015E3006FAA0312013586AA03120135AFAB0312AA
:1015F300013501AC0312013500800412013520804E
:101603000412013510810412013559810412013588
:10161300798104120135B781041201351282041253
:1016230001355082041201359A8204120135428534
:1016330004120135AB8504120135E0350012013582
:10164300023600120135AD3600120135B7360012ED
:1016530001356537001201354D39001201357739EF
:1016630000120135A33900120135FA3A001201358F
:10167300A642001201356C4D001201356D56001261
:101683000135705F0012013522D1041201358FD26A
:1016930004120135C3D3041201350080021201354F
:1016A300198502120135108802120135368802129B
:1016B30001355F8802120135118902120135F28A60
:1016C300021201350D8C02120135268C02120135EE
:1016D3001C910212013555910212013599910212A2
:1016E3000135A69202120135BC8504120135F0853D
:1016F300041201356286041201357B86041201351A
:101703008D8604120135F48604120135D088041243
:1017130001353F8904120135BE8A0412013587C899
:10172300031201352ECC0312013520CF03120135EC
:101733003DCF031201355CCF031201353DD00312B7
:1017430001354ED00312013587D003120135D5D0B0
:101753000312013506CE0412013587CE041201357A
:10176300A4CE04120135EFCE04120135DACF0412F0
:1017730001353B80051201353CD404120135DCF7F9
:101783000412013599FF01120135B9C9021201355D
:10179300CCCE02120135C7E8041201359BFF0412B7
:1017A3000135C47F00120135D6C2041201355EFF34
:1017B3000212013588FF02120135598005E0667077
:1017C3001008A3E066700A08A3E066700408A3E0AB
:1017D3006622C008C3E096F50808A3E0964208080D
:1017E300A3E096420808A3E0964208A2D265D0334C
:1017F300E5087001D3D00822C3E7960809E79608E5
:1018030009E7960809E79622C3E09608A3E096083D
:10181300A3E09608A3E09622C008C3E096F5080863
:10182300A3E096420808A3E096420808A3E0964581
:10183300087001D3D00822080808E630E711122007
:10184300F4121852080808C64480C618181822183B
:101853001818E9799EC608CAC608CBC608CCC6C301
:1018630070207996CACBCC7019798ECBCC70137952
:1018730086CC700EF9802ACA33CACB33CBCC33CC97
:10188300331930E7F2CCCBCA3350147004EA30E09A
:101893000DE4CA3ACACB3BCBCC3CCC500209C3E9DA
:1018A30013C6CC182313C6CB18C6CA18C6F92212FE
:1018B30018F220F01430E72B74FFFCFBFA747F80DE
:1018C30022E4FCFBFA7480801AB48008BC00F2BBEB
:1018D30000EF800F50EBF9E4C39AFAE49BFBE49C1E
:1018E300FCE499C6CC18C6CB18C6CA18C6F922E4BC
:1018F300C9C608CAC608CBC6D3330308CCC63392BD
:10190300F0C3947F402E94184019C9B90704CACB79
:10191300CC225025C309CA33CACB33CBCC33CC3307
:10192300D9F422F4600DC9CCC313CB13CBCA13CAA9
:10193300D9F6CC22E4FCFBFA2214FCFBFA22E626BD
:1019430018461846184622E7271947194719472208
:10195300181818E60846087009E626087005E633E5
:10196300F4220822191919E70947097009E7270919
:101973007005E733F4220922E6084608C313460834
:10198300336002E633F422E7094709C313470933F7
:101993006002E733F42212197B602512198A602052
:1019A300121941700302194A080808E766701018F3
:1019B30019E766700A1819E76670041819E76622B2
:1019C300F42212197B601C12198A601712194170D4
:1019D3000712194A7001D322C0D012194A7006D0D7
:1019E300D0B322C32233D0D0501430E0F6C3E796ED
:1019F3000809E7960809E7960809E796B32220E065
:101A0300D5E6970809E6970809E6970809E697B324
:101A13002212197B601B12198A6016121941700772
:101A230012194A600CB322C0D012194A7005D0D0E3
:101A330022C32233D0D0501330E0EBC3E79608091A
:101A4300E7960809E7960809E7962220E0E4E69777
:101A53000809E6970809E6970809E697220012198C
:101A63007B604F12198A6012E7548066F61219538D
:101A7300701112194A703B090909F4F618F618F6A1
:101A830018F622121967701512194108080860EA3E
:101A9300E6447FF618768018E4F618F62212194108
:101AA300601612194A7012E4F608F608F608E654AE
:101AB30080F609090918181822EAC0E0EBC0E0EC27
:101AC300C0E0EDC0E0E687F0A4FBACF008E687F0E9
:101AD300A42CFCE435F0FA1809E687F0A42C4B603B
:101AE300027401CA35F0FCE433FB09E687F0D2F750
:101AF300A42CCB35F0FC1908E687F0A42BCC35F0E9
:101B0300FBE433FD0819E687F0D2E7A42C4ACB3572
:101B1300F0CD3400FC09E687F0D2E7A42DCC35F0F4
:101B2300FDE433FA0918E687F0D2F7A42CCD35F09B
:101B3300CA3400FC08E687F0D2E7D2F7A42ACC35F2
:101B4300F07A7E20E70B0ACB33CBCD33CDCC33CC2D
:101B530033CB3350147004ED30E00ED2F1E4CD3DBD
:101B6300CDCC3CCC3B5005DA05C2F1EB547FC633F8
:101B730008E63392F0FBE73309E733C39A502D2B82
:101B830070190C0D4C4D70151806E608C333700D13
:101B930020F10AA2F013F6E418800B4024E4F63097
:101BA300F002768018F618F618F68024D33B14500A
:101BB3001074FFA2F013F6187680E418F618F68076
:101BC3000FA2F013F618E63303F618ECF618EDF649
:101BD300D0E0FDD0E0FCD0E0FBD0E0FA2212198A7D
:101BE300604612197B603DE9687008F618F618F62E
:101BF30018F622748067F7121C14090909748067A8
:101C0300F72212197B601D12198A700519191980A0
:101C13001A121953701F121967C37003E667331939
:101C2300191940071818182208080874FFF618F63F
:101C330018F618F622121967601712194A702192C2
:101C4300F01219417019501720F0140808080909F7
:101C530009E7F61819E7F61819E7F61819E7F6224F
:101C630012194160E6E869701F0808E62480F60847
:101C7300E436F618547FB47F0CE654806007F6E42C
:101C830018F618F622181822E9C6CC08C6CD08C6DD
:101C9300CE08C6CFC0E0E8C0E0EAC0E0EBC0E00990
:101CA300E9F809E7FA09E7FBE6F918E6F8C3EC985F
:101CB300ED99EE9AEBC2E7F5F0EFC2E795F0500E1F
:101CC300600CEBCFFBEACEFAE9CDF9E8CCF8EAA257
:101CD300E7D2E7FAEB33FB13F5F0EEA2E7D2E7FE28
:101CE300EF33FFC5F013A2E730E601B313C5F0C32A
:101CF300C0E0C0F07F00C39BFB605E9418600F40A0
:101D03001D14601AD0E023F9D0E0F8021DE68AF032
:101D1300E9486003D2F0E4AFF0FAF9F8803BEB3026
:101D2300E40D89F0EA6003D2F0E4AFF0F9CAF8EB0E
:101D330030E30D88F0EF6002D2F0AFF0E4CAC9F8E7
:101D4300EB54076014FBC3EA13FAE913F9E813F839
:101D5300EF135002D2E0FFDBEDD0E0C0E030E73913
:101D6300C3E49FFFF5F0EC98FC42F0ED99FD42F0DF
:101D7300EE9AFE42F0D0E0F9D0E0F8E5F0607AE9BF
:101D830023F9EE20E742D8028067C3EF33FFEC3339
:101D9300FCED33FDEE33FE80EAEC28FCED39FDEE7D
:101DA3003AFED0E023F9D0E0F84002801BC3EE13E3
:101DB300FEED13FDEC13FCEF135002D2E0FF08B865
:101DC30000067F7F74FF802EEF3350178CF020F0D6
:101DD3000260100CBC000C0DBD00080EBE00040810
:101DE300E860DFE933E813FFEE2313FE4F4D4C8029
:101DF30008E95480FFE4FEFDFCEE33EF33F4700496
:101E0300FCFD7E80D0E0FBD0E0FAD0E0F8D0E0CF5C
:101E1300C618CEC618CDC618CCC6F92212197B70C7
:101E2300041818182212198A700D74FFF61819F67F
:101E33001819F61819F622E7548066F6121941703C
:101E43000F12194A70F014F608F608F608F680D156
:101E530012194A700CF608F608768008E6447F806B
:101E6300EC12196A700C12195660BFE65480F6E43E
:101E730080BB121956700519191980A5E869700CF1
:101E8300763F18768018F618F6E8F922E6CDC0E01A
:101E930018ECC0E0E633CD33CDD313F6E719FCE7F6
:101EA300191933CC33C3947F400ECD9D502408E6DB
:101EB3005480F6E418F6800FF4043D14501408E639
:101EC300447FF6187680E418F618F6D0E0FCD0E0EC
:101ED300FD22CCD313CCFD18E4C6CBC0E018E4C676
:101EE300CAC0E00808ED08C633E613F618E433C6A3
:101EF30075F003C3CA97CA09CB97CB199C40047DDD
:101F030008802EBD0003021FC816B6FF050606088B
:101F13001618C3CA33CACB33CB33CA27CA09CB3744
:101F2300CB193CC37D08803E187D0820E75CC6338F
:101F3300C6CA33CACB33CB33DDF1D5F0EB30E77B05
:101F4300CA97CA09CB974ACB199C406F4B7025E6B9
:101F530020E0218066187D08C3CA97CA09CB97CBB6
:101F6300199CD3C633C6CA33CACB33CB3350C9DD6E
:101F7300E7D5F0E1D3E4C636C608C636C608C6368A
:101F8300C608C636C61818188031C3CA97CA09CB03
:101F930097CB199CB34097C633C6CA33CACB33CB4E
:101FA30033DD34D5F02EC6A2E0C640C8CA27CA091D
:101FB300CB37194A70BECB3CB480B90808E6330866
:101FC300E633601F181818D0E0FAD0E0FBD0E0FC2D
:101FD300D0E0FD22187D08CA27CA09CB37CB193CAC
:101FE300D3808013F618E4B67F11F618B6FF0EF609
:101FF30018C60470D20808768080CAF618F618F658
:1020030080C5080808EAC0E0EBC0E086F0E7A4FA60
:10201300180986F0E7A42AFA180986F0E7A42AFA31
:10202300180986F0E7A42AFA1986F0E7A4FBE5F07D
:102033002AFA190886F0E7A42BFBE5F03AFA190807
:1020430086F0E7A42BFBE5F03AFA18180986F0E7C7
:10205300A4C5F02BFBE43AFA1908E7C5F0C6A42699
:10206300F6E5F03BFBE43AFA1886F0E7A4F6E5F070
:102073000826F6E43B08F6E43A08F6D0E0FBD0E0A5
:10208300FA22E4CFC0E0E4CEC0E0E4CDC0E0E4CC8B
:10209300C0E075F020E626F608E633F608E633F6E8
:1020A30008E633F6181818EC33FCED33FDEE33FE77
:1020B300EF33FFC3EC9709ED9709EE9709EF9719F3
:1020C3001919400FFFEC97FC09ED97FD09EE97FEF8
:1020D300191906D5F0BFECF709EDF709EEF709EF8B
:1020E300F7191919D0E0FCD0E0FDD0E0FED0E0FFF5
:1020F30022181818E4C396F608E496F608E496F650
:1021030008E496F6226016080808C6C313C618C664
:1021130013C618C613C618C613C6D5E0EA2270093B
:10212300080808226016181818C6C333C608C63331
:10213300C608C633C608C633C6D5E0EA22E627F684
:102143000809E637F60809E637F60809E637F622FE
:10215300E026F608A3E036F608A3E036F608A3E087
:1021630036F622E026F008A3E036F008A3E036F0C6
:1021730008A3E036F022C3E697F60809E697F608C7
:1021830009E697F60809E697F622C3E0C696F6082D
:10219300A3E0C696F608A3E0C696F608A3E0C696A3
:1021A300F622C3E096F008A3E096F008A3E096F0C9
:1021B30008A3E096F022E056F608A3E056F608A33B
:1021C300E056F608A3E056F622E056F008A3E056E0
:1021D300F008A3E056F008A3E056F022E0F608A3C7
:1021E300E0F608A3E0F608A3E0F622E6F008A3E68B
:1021F300F008A3E6F008A3E6F022E0FAA3E0FBA3CD
:10220300E0FCA3E0FD22EAF0A3EBF0A3ECF0A3EDE6
:10221300F022E0F8A3E0F9A3E0FAA3E0FB22E8F060
:10222300A3E9F0A3EAF0A3EBF022CAC0E0E6F0A32F
:1022330008DAFAD0E0FA22CAC0E0E0A3C582CCC52E
:1022430082C583CDC583F0A3C582CCC582C583CDAA
:10225300C583DAE6D0E0CA22C3E498F8E499F91218
:10226300229C8026C3E49AFAE49BFBE920E7E91267
:10227300229CE498F8E499F922C3E498F8E499F9E4
:1022830012229CE498F8E499F9C3E49AFAE49BFBDC
:1022930022EB20E7CFE920E7E0B90010BB0008E814
:1022A3008AF084F8AAF022E4FBC8FA22EB70227BBE
:1022B30010C833C8C933C9335007C39AC3DBF2808C
:1022C300069A50012ADBEAC833F4C8C933F4C9FAC1
:1022D3002275F008E4C833C8C933C933C99AC99B06
:1022E3005004C92AC93BD5F0ECFBC833F4C8E4C990
:1022F300FA22600D08C6A2E713C618C613C6D5E0B6
:10230300F322600C08C6C313C618C613C6D5E0F47F
:1023130022700422600D18C6C333C608C633C6D55F
:10232300E0F41822251810AF08F518400C15198091
:1023330008F51840021519D2AF2200C0D025181095
:10234300AF08F518500C05198008F5185002051947
:10235300D2AFD0D0222518F58210AF08F518400C63
:1023630015198008F51840021519D2AF8519832273
:102373002518F582E43519F583222518F8E4351973
:10238300F9222518FAE43519FB222518FCE435193E
:10239300FD22E4732518C582C0E0E51934FFC58327
:1023A300C0E0E518C3958224F810AF08858319852A
:1023B30082188008858319858218D2AFCEF0A3E5F1
:1023C30020F0A37808E608F0A3DEFAEFF0A3E58196
:1023D30024FAF8E608F0A3E608F0A3E608F0A30859
:1023E30008E608F0A3E608F0A315811581D0E0FE06
:1023F300D0E0F8158115811581E8C0E0EEC0E02238
:102403002518C582C0E0E51934FFC583C0E0E5188F
:10241300C3958224F910AF08858319858218800833
:10242300858319858218D2AFCEF0A3E520F0A37877
:1024330008E608F0A3DEFAEFF0A3E58124FBF8E653
:1024430008F0A3E608F0A30808E608F0A3E608F0FE
:10245300A315811581D0E0FED0E0F815811581E840
:10246300C0E0EEC0E022851983851882E0A3FEE078
:10247300A3F5207808E0A3F608DFFAE0A3FFE0A3C2
:10248300C0E0E0A3C0E0E0A3C0E0E0A3C0E0E0A3BD
:10249300C0E010AF088582188583198008858218EB
:1024A300858319D2AFD083D0820201328519838507
:1024B3001882E0A3FEE0A3F5207808E0A3F608DF86
:1024C300FAE0A3FFE0A3C0E0E0A3C0E0E0A3C0E024
:1024D300E0A3C0E010AF08858218858319800885C2
:1024E3008218858319D2AFD083D08222C0D0251819
:1024F300C582C0E0E51934FFC583C0E0E518C39584
:102503008224F310AF088583198582188008858398
:1025130019858218D2AFC8F0A3E9F0A3EAF0A3EBC0
:10252300F0A37908E709F0A3D8FAECF0A3EDF0A340
:10253300EEF0A3EFF0A3D0E0F0A3D0E0F0A3D0E05F
:10254300F0A3E520F0A3E5F0F0A322851983851815
:1025530082E0C0E0A3E0F9A3E0FAA3E0FBA37808DC
:10256300E0F608A3DFFAE0FCA3E0FDA3E0FEA3E0AE
:10257300FFA3E0C0E0A3E0C0E0A3E0F5D0A3E0F553
:1025830020A3E0A3F5F010AF088583198582188096
:1025930008858319858218D2AFD082D083D0E0F822
:1025A300D0E03274048006740280027401C0E0F447
:1025B30004122358D0E012222D22740480047402E2
:1025C3008000CCC0E0EDC0E0E518C39CCCAD195051
:1025D300011D10AF068C188D1980068C188D19D229
:1025E300AF12223AD0E0FDD0E0FC22D083D082C5E6
:1025F300F0E493A3C5F0C395F0F5F0E493A3C3957A
:10260300F04005E5F0048001E475F002A42582F5AD
:1026130082E5F03583F583E493A3C0E0E493C0E05F
:1026230022D083D082E9C0E0E493A3C386F0C5F04F
:1026330095F0F908E493A386F0C5F095F0700BE4E8
:1026430093A3C3994005E9048002A3E475F002A4AF
:102653002582F582E5F03583F583D0E0F9E493A391
:10266300C0E0E493C0E022D083D082ECC0E0EDC0B0
:10267300E0E493A3FCE493A3FDED4C600D1226B6B6
:10268300EC24FFFCED34FFFD80EFE493A3FCE49323
:10269300A3FDED4C600D1226F5EC24FFFCED34FF99
:1026A300FD80EFD0E0FDD0E0FCE493A3C0E0E49331
:1026B300C0E022C0E0C3E4939608740193961840E7
:1026C3000FE493667008087401936618700070191C
:1026D300A3A3C3E49396087401939618A3A3400D90
:1026E300D0E0D0E0D0E00226A6A3A3A3A3A3A3D067
:1026F300E022C0E0C0F088F0E4936670080874013B
:102703009366187000A8F0A3A3700BD0F0D0E0D0AC
:10271300E0D0E00226A6A3A3D0F0D0E02274F61204
:102723002403EAFEEBFF8C088D09EE2434F8E43F22
:10273300F9E8FCE9FDEE2435122A3CFAEE243712BF
:102743002A3CF88508F0A4C885F00A8509F0A42579
:102753000AF9EA28F8E439F97A257B0012229CEA7F
:102763008C828D83F0FA131313541FF8EE28F8E4C8
:102773003FF9E8245DF582E439F583E0C0E07407AE
:102783005AF8D0E0B800028004C313D8FCA2E0EEEC
:1027930050082434F582E43F80182436122A3CF58D
:1027A300F0EA84A8F0EE28F8E43FF9E82438F5824B
:1027B300E439F583E0F97F030224AF74F7122403AD
:1027C300EAFEEBFFEE2434122A3CC0E0EE2435F59A
:1027D30082E43FF583D0E0F08E828F83A3A3A3A38B
:1027E300A3A3A3C082C0838E828F83A3A3A3A3A327
:1027F300E0F8A3E0F9D083D082E0C398F508A3E022
:1028030099F509EE247F122A3C6401703EEE248080
:10281300F582E43FF583C082C0838E828F83A3A3B6
:10282300A3A3A3E0240108A3E03400F9D083D0825A
:10283300E0687003A3E06970127CD27D06120D403C
:10284300EE247FF582E43FF583E4F0AC08AD09EEB6
:10285300FAEFFB122720E9F912348E7F020224AF2C
:10286300C082C083851882851983E0F8A3E0F9C389
:10287300EA9CEB9D5010C3EC98ED99401BC3EA987A
:10288300EB995014800EC3EA98EB994007C3EC9878
:10289300ED994004790180027900D083D08222EA45
:1028A300C39CFAEB9DFB2274EF12240390037BE09D
:1028B30064086005E06407702A9061C8E0602490B2
:1028C30003A9E0F4601DE0F875F00DA4C8AAF02A8E
:1028D300F974AB28FE740339FF8E828F83A3A3A3FD
:1028E300E070030229B8906060E0C0E0EE2468F570
:1028F30082E43FF583D0E0F0750C6C750D07750825
:1029030000750900E5D914F50AE5D95403F50E60FD
:10291300127403650E6043E50A600AEE2467122A07
:102923003C70028075900767E06401601F122A39CA
:1029330060047A0480027A00E50AC39AFA95E0FB00
:10294300120B7E8A088B09EA45097005120FFE8077
:1029530064122A3970048A0C8B0DE50A6012850C07
:1029630082850D83F50BE5D9F0A3150BE50B70F606
:10297300122A39604474FC250AF50A780C1225AA38
:10298300AC0AA90EEEFAEFFB120DFA740212233D04
:10299300E97026AA08AB09121520793D8E828F8330
:1029A300A3A3A3A3E0FA7B001209CEEEFAEFFB1276
:1029B3000D64120E5A790080787403650E60518598
:1029C3000A1075110078101225AAAC0CAD0DAA08D7
:1029D300AB09120DBE740212233DEE2468122A3C89
:1029E30064807004747F8001E0F50C780C1225AECE
:1029F300E50EF50C780C1225AEA90AAC08AD0990CA
:102A030003A9E0FA7B0012099E740212233D801C85
:102A130090037BE06408AC0CAD0D7009EEFAEFFB9C
:102A2300120E2A8007EEFAEFFB120ECC12100A796F
:102A3300017F0A0224AFEE2483F582E43FF583E0AD
:102A43002274F212240374FC122327EAFEEBFF899B
:102A530009A2AFE433F508C2AF022B0EE0601B7886
:102A63000C1225AAAC0BA90EEEFAEFFB120DF474AF
:102A73000212233D7404250BF50B7401250BF5D9C4
:102A8300850ED9E50B6018F50A850C82850D83E068
:102A9300F5D9A385820C85830D150AE50A70EA75BD
:102AA300E195EE2463F8E43FF97A007B00A2AFE4FA
:102AB30033F50BC2AF88828983E0FCA3E0FDEC4DC4
:102AC300603A88828983E0FAA3E0FB8A828B83E001
:102AD300FCA3E0FD88828983ECF0A3EDF08A828B6E
:102AE30083E4F0A3F088828983E0FCA3E0FDEC4D4E
:102AF300700A88828983A3A3E4F0A3F0E50BA2E024
:102B030092AF1215209006D9E004F0EE2463122A46
:102B13003CF8A3E0F9E8496064EE2463122A3C24FC
:102B230002F8A3E03400F988828983E5822402F560
:102B33000CE43583F50DE0F50BA3E0F50EEE24620E
:102B4300122A3C640170369061D0E0F8122A396091
:102B5300047C0480027C007480C398FA95E0FBE552
:102B63000B2CF8E43400F9E82402F8500109C3EA15
:102B730098EB99A2D265D0334003022A5F9006D91D
:102B8300E0604D9006DAE0F89006D9E0C398500C67
:102B930074026509703A9006DBE060348E828F839D
:102BA300A3A3A3A3E0851882851983122BE37402E0
:102BB300122373E8122BE39006D8E028F074021274
:102BC300238DAA18AB1979011209FE9006D9E4F0F6
:102BD300E508A2E092AF740412233D7F070224AFFD
:102BE300F0A3E4F09006D9E0F822000000852187E5
:102BF3008522C622C0E074EB1224EFA2AFE433F5C2
:102C030008C2AF759B00906182E0A2E05030E5916D
:102C1300A2E0502A7591FE740165217021122D8A5C
:102C2300120F1A122D781225BD1232387404122392
:102C33003DE9640170057901120F621228AA9061BF
:102C430082E0A2E5505DE591A2E550577591DF90D2
:102C5300037BE064076005E06408702F122D8A741B
:102C6300016521703E120F1A122D781225BD123202
:102C730038740412233DE9640170057901120F626F
:102C83007901EEFAEFFB122A448018E0640D701309
:102C930090039DE004F064287002E4F07A00E0F908
:102CA300121010906182E0A2E64003022D4DE591DF
:102CB300A2E64003022D4D7591BF90037BE06405AE
:102CC3007008120F02120F0E8003120F08752100F5
:102CD300120F80E990037CF07900120F62120C62EC
:102CE3007A017B0090037AE0F91214F0907803E004
:102CF3006442705690076BE014F0704EC2AF122D11
:102D03000400782AD0E0F618D0E0F6E59F5407F8DF
:102D13007005750DFF8003750D7FC4C0E07829E64B
:102D2300F50A08E6550DF50B740B780A122305D046
:102D3300E0250AF8906270E0A2E740F8E8C3339018
:102D43006272F0906270E0D2E0F0906181E0A2E301
:102D53005009E5E9A2E3500375E9F7A3E0A2E750C0
:102D630009E591A2E7500375917FE508A2E092AFD0
:102D73007F0802254E8E828F83E0F8A3E0C82416D5
:102D8300F582E438F583229003A9E0F875F00DA4E9
:102D9300C8AAF02AF974AB28FE740339FF22C0E0F5
:102DA300C0D0C082C083906183E0A2E05009E5BF38
:102DB300A2E0500375BFFEE0A2E15009E5BFA2E126
:102DC300500375BFFDE0A2E25009E5BFA2E2500344
:102DD30075BFFBE0A2E35009E5BFA2E3500375BF53
:102DE300F7E0A2E45009E5BFA2E4500375BFEFE0AA
:102DF300A2E55009E5BFA2E5500375BFDFE0A2E6F7
:102E03005009E5BFA2E6500375BFBFD083D082D07F
:102E1300D0D0E032C0E074F21224EFE5A7A2E6506E
:102E23000FE5A1A2E6500953A7BF75A1BF122E6BF0
:102E3300E5A7A2E5500CE5A1A2E5500653A7DF756F
:102E4300A1DFE5A7A2E15009E5A1A2E1500375A125
:102E5300FDE5A7A2E2500CE5A1A2E2500653A7FBB1
:102E630075A1FB7F0102254E74F71224037521011E
:102E730090037BE064067015120E7E8A828B83A317
:102E8300A3A3A3A3A3E0FAA3E0FB120EF0A2AFE473
:102E930033FED2AF900381E0640170187A207B0087
:102EA30090037AE0F912161C7A207B0090037AE0F3
:102EB300F91214F6906182E0D2E6F0900768E060C0
:102EC3002185C6228016900380E064017008E5C660
:102ED30054F84405F5C653BEFC122BF0740165216A
:102EE30060E4EEA2E092AF7F020224AF008E238F54
:102EF30024858228858327851882851983E0CEA3BC
:102F0300E0CF852882852783EBC9EAC8EDCBECCADD
:102F130075F010C3E833C8E933C9EA33CAEB33CBDE
:102F2300C3EA9EF526EB9FF525B35004AB25AA26ED
:102F3300EC33CCED33CDD5F0DAAE23AF242274E9F4
:102F430012240374FA122327EAFEEBFF8C0A8D0B7B
:102F5300120F26EAF8EBF9ECFAEDFB8E828F83125F
:102F6300222190037BE024F7C394055006751401D6
:102F73000230A8120E7E8A088B09EA450970030203
:102F830030A5EEFCEFFDAA18AB19120F20850882BD
:102F9300850983A3A3780C1221DF908241780C1258
:102FA30021B985188285198378101221DF90824117
:102FB30078101221B9780C79101217FB501F780C76
:102FC30079101221799081DD780C12181B40478506
:102FD3000C14850D15850E16850F1780459081DD20
:102FE3008510148511158512168513177814790C1D
:102FF300122179781412181B501C751400751500D2
:1030030075160075170178147910122179781479DF
:103013000C122140800C751401751500751600758E
:10302300170074097814122121908275780C1221EB
:10303300DF7814790C122085850882850983A3A380
:10304300A3A3A3A31230C612229C880C890DE4F516
:103053000EF50F7814790C122140740412237312A5
:1030630030C612229CE8FA8A0CE4F50D7814790C28
:103073001217FB50077814790C12217990037BE027
:103083006408600AE064066005E0640570209081CE
:10309300D5781412181B5016908269781412215394
:1030A300800C751400751500751600751700850AD8
:1030B30082850B8378141221EE740612233D7F1050
:1030C3000224AFE0F8A3E0F97AD07B032274F7126D
:1030D3002403120F38900766E06401701090624574
:1030E300E4F0A3F053F4F343FE0C5390F3120EDE1B
:1030F300E5C654B84441F5C6E59E5447644170F8AB
:10310300906185740FF0900764E0F47002A3E060AF
:103113004E900765E0600814601B14602E804075B4
:103123000801750900900764E07808122314E50884
:10313300F45280802A750801750900900764E078CD
:1031430008122314E508F4529080147508017509D8
:1031530000900764E07808122314E508F452A0797C
:10316300007F020224AF74F7122403E9FEEAFF1280
:103173000F3874016E700C7A807B0090037AE0F94B
:103183001214F09035D8E493F46008E493F9120C28
:1031930056800953C6B8E59E544770FA120EE49060
:1031A3000766E064017003120C7A900764E0F47020
:1031B30002A3E0604B900765E0600814601A146096
:1031C3002C803D750801750900900764E0780812AA
:1031D3002314E508428080287508017509009007CB
:1031E30064E07808122314E50842908013750801FF
:1031F300750900900764E07808122314E50842A0DB
:10320300120E7E8A088B09A808A909E8496014E50B
:10321300E170FCE82414F582E439F583E0F46003FB
:10322300E0F5E174016F700A7A0190037AE0F91214
:10323300158002316474F11224038A088B098C0A05
:103243008D0B90824178081221B9740F1223737881
:103253000C1221DF908241780C1221B97808790C85
:103263001217FB9081DD50107808790C12217978C0
:103273000812181B4014800E780C790812217978F3
:103283000C12181B50047901800279007F08022474
:10329300AF74ED1224038A088B098C0A8D0B90827C
:1032A3004178081221B97413122373780C1221DFA9
:1032B300908241780C1221B9780C79081217FB40DF
:1032C300117808790C122179AA08AB09AC0AAD0B65
:1032D30080227510007511007512007513017810A6
:1032E300790C12217978107908122140AA10AB11B8
:1032F300AC12AD137F0C0224AF90824178081221E7
:10330300DF8A828B8378081221CC7F040224AF7476
:10331300F51224038C828D8378081221DF8A828B35
:103323008378081221A512336AC3E09CF0A3E09DC1
:1033330012335C402290825578081221DF8A828BF7
:103343008378081221668A828B83A3A3A3A3E02434
:1033530020F0A3E0344EF080A0F088828983C3E09C
:103363009420A3E0944E22EA2404F8E43BF98C82EF
:103373008D83A3A3A3A3E0FCA3E0FD88828983221A
:1033830074F5122403E9FE9006F4E0FAA3E0FBEEE1
:1033930029F8E433F9744B28F582748139F583E015
:1033A3002AF508A3E03BF50978081225AA9082398B
:1033B3001221FD122EF0740212233D8A088B098C10
:1033C3000A8D0B74107808122108AA08AB097F0430
:1033D3000224AF74F11224038A0C8B0D8C0E8D0F13
:1033E30074111223731225C17411122373E0240183
:1033F300F508A3E03400F509E4F50AF50B780C7938
:10340300081220059081D978081221DF780C7908F9
:10341300122005AA0CAB0DAC0EAD0F122EF07402E8
:1034230012233D8B09EA450960047A0180027A0080
:10343300EC2AFCE43DFD7413122373E0F8A3E0F9D6
:10344300E8FEE9FFECF8EDF97A717B0212229C8821
:10345300088909E4F50AF50B8E828F837808122117
:10346300EEECF8EDF97A717B0212229C8A088B0943
:10347300740578081223148E828F83A3A3A3A3E574
:1034830008F0A3E509F07F080224AFC082C083E9F6
:10349300906000F0D083D08222C0E074F21224EF57
:1034A300A2AFE433FED2AFC2C0E5D1A2E4500675A9
:1034B300D10F121466751A00EEF8EEA2E092AF7FF8
:1034C3000102254EC0E074F21224EFA2AFE433FEF2
:1034D300D2AFE589A2E550031213BE758900C2C5B8
:1034E300751A00EEF8EEA2E092AF7F0102254EC0FE
:1034F300E0C0D0E8C0E0E9C0E0A2AFE433F8D2AF67
:10350300C2C7751A00E8F9E8A2E092AFD0E0F9D09B
:10351300E0F8D0D0D0E032C0E0C0D0E8C0E0E9C0ED
:10352300E0EAC0E0C082C083A2AFE433FAD2AF9036
:103533000FB9E0F8900FBAE068700B539AFB900F45
:10354300BB7401F0802CC2E9900FB9E0F874012834
:10355300900FB9F07900743928F582740F39F58327
:10356300E0F5C1900FB9E0C394804006900FB974A1
:1035730000F0EAF8EAA2E092AFD083D082D0E0FA7A
:10358300D0E0F9D0E0F8D0D0D0E032C2AF020000F2
:1035930022C0E074F21224EF75C000901790E0642B
:1035A30001700512166A8025901790E06402700579
:1035B3001216768018901790E06403700512167C3B
:1035C300800B901790E0640470031216707F010261
:1035D300254E020132FFFFFFFFFFFFFFFFC082C046
:1035E30083121640790712165212164CE9F8790025
:1035F30090174DE8F0A3E9F0D083D0820201327432
:10360300F61223979017487401F09017497401F04C
:103613009017907401F090174A7400F090174B7450
:1036230000F090177DE090174FF090174C7400F066
:1036330090176B7400F09017507401F09017517449
:1036430001F090176C7400F090176A7400F09017F3
:103653006D7400F075080D75090078081225AA7CB1
:10366300007D007A6E7B171217A2740212233D7538
:10367300080D75090078081225AA7C007D007A7B65
:103683007B171217A2740212233D750808750900EF
:1036930078081225AA7C007D007A887B171217A26E
:1036A300740212233D7F02022469C2AF75C9AB7550
:1036B300C95B80FEC082C083EAFCEBFD908030E0F2
:1036C300F8A3E0F9C3EC98ED99500579FF02375E52
:1036D300908058C3E09CA3E09D50079080BFE0F921
:1036E30080797A0080010AEAC39414506CEAF8796D
:1036F30000E875F002A4C8ABF075F000A42BFB75CD
:10370300F002E9A42BF9743028F582748039F5832B
:10371300E0F8A3E0F9C3EC98ED9940CAEAF8790020
:10372300E875F002A4C8ABF075F000A42BFB75F0AC
:1037330002E9A42BF9743228F582748039F583C326
:10374300E09CA3E09D409FEAF8790074AB28F582E2
:10375300748039F583E0F9800279EED083D0820258
:10376300013274F412239774E8122327E9FF7508D2
:10377300007509007E0080367A04EFF912136AEEB1
:10378300F87900E875F002A4C8ACF075F000A42C39
:10379300FC75F002E9A42CF9851882851983E5826A
:1037A30028F582E58339F583EAF0A3EBF00EEEC347
:1037B300940C40C47E000238EDECF87900E875F013
:1037C30002A4C8AAF075F000A42AFA75F002E9A4CD
:1037D3002AF9851882851983E58228F582E58339DC
:1037E300F583C082C083EEF87900E875F002A4C8BF
:1037F300AAF075F000A42AFA75F002E9A42AF98563
:103803001882851983E58228F582E58339F583E0FB
:10381300F8A3E0F9D083D082C3E098A3E0994003F2
:103823000238E2EEF87900E875F002A4C8AAF07550
:10383300F000A42AFA75F002E9A42AF98518828512
:103843001983E58228F582E58339F583E0FAA3E05D
:10385300FBECF87900E875F002A4C8ADF075F00050
:10386300A42DFD75F002E9A42DF98518828519832D
:10387300E58228F582E58339F583E0F50AA3E0F5CF
:103883000BEEF87900E875F002A4C8ADF075F0000E
:10389300A42DFD75F002E9A42DF9851882851983FD
:1038A300E58228F582E58339F583E50AF0A3E50B84
:1038B300F0ECF87900E875F002A4C8ADF075F000FB
:1038C300A42DFD75F002E9A42DF9851882851983CD
:1038D300E58228F582E58339F583EAF0A3EBF00C62
:1038E300ECC3940C50030237BC0EEEC3940B50068A
:1038F30074012EFC80EA7E028035EEF87900E875CB
:10390300F002A4C8AAF075F000A42AFA75F002E93F
:10391300A42AF9851882851983E58228F582E5832F
:1039230039F583E02508F508A3E03509F5090EEE1E
:10393300C3940A40C574037808122305AA08AB0987
:10394300741812233D7F0402246943F380A8F4759D
:10395300F40043FD5B53FD5B438FA053FEF643F638
:103963000143FE0443F31053F3F753F1BFC283C281
:103973008402013243F10343E40843E72C75DA0E72
:1039830075DB0075DE0475DF0075CBE675CC547509
:10399300CD1975B80875A880D2AF43CB1002013298
:1039A30074F41223978A088B09ECFEEDFF90179AA3
:1039B300E02401F0A3E03400F0740C122373C082FE
:1039C300C08390179AE0F8A3E0F9D083D082C3E0D4
:1039D30098A3E0994003023AF3EE4F701190179CBD
:1039E300E02401F0A3E03400F07900023AF5EEF8A8
:1039F300EFF97A0F7B0012229CE8901799F0901749
:103A030099E0F50A750B00E508850AF0A4C508A836
:103A1300F0850BF0A428F8850AF0E509A428F50938
:103A2300901793E508F0A3E509F0901795E02401BA
:103A3300F0A3E03400F0901795C082C083901793F1
:103A4300E0F8A3E0F9D083D082C3E098A3E09950D3
:103A53000643E40B43F310901793E0F8A3E0F990C7
:103A63001795E0687003A3E069705943E40853F3C2
:103A7300EFC2847A047B001213D6901797E0F8A361
:103A8300E0F9E8497017D2807ADC7B001213D6C2C2
:103A9300809017977401F0A37400F08015D2817A97
:103AA300DC7B001213D6C2819017977400F0A374C5
:103AB30000F07A0F7B001213D6D2837A087B0012B0
:103AC30013D6C283901795E06E7003A3E06F702046
:103AD3009017957400F0A37400F090179A7400F097
:103AE300A37400F090179CE02401F0A3E03400F0ED
:103AF30079007F0402246974F612239790179EE0DD
:103B03001225EE002191424E3B853BBC3BF33B2A01
:103B13003C613C973CCD3C043D3B3D723DA93DE0BF
:103B23003D173E4D3E833EBA3EF13E283F5F3F96F2
:103B33003FCD3F034039407040A740DE4015414C24
:103B4300418341B941EF4125425B42750820750924
:103B53000378081225AA7CF47D01901791E0FAA35B
:103B6300E0FB121664740212233DE990179CE06493
:103B73000A7004A3E06400700690179E7401F002BB
:103B830042A17508F475090178081225AA7CF47D11
:103B930001901791E0FAA3E0FB121664740212235A
:103BA3003DE990179CE064197004A3E0640070067B
:103BB30090179E7402F00242A17508FA7509007805
:103BC300081225AA7CF47D01901791E0FAA3E0FB8B
:103BD300121664740212233DE990179CE064287066
:103BE30004A3E06400700690179E7403F00242A1E0
:103BF30075086475090078081225AA7CF47D019084
:103C03001791E0FAA3E0FB121664740212233DE954
:103C130090179CE0643C7004A3E064007006901766
:103C23009E7404F00242A1750832750900780812E7
:103C330025AA7CF47D01901791E0FAA3E0FB12160C
:103C430064740212233DE990179CE064507004A34E
:103C5300E06400700690179E7405F00242A1E4F53B
:103C630008F50978081225AA7CF47D01901791E0E4
:103C7300FAA3E0FB121664740212233DE990179C29
:103C8300E064647004A3E06400700690179E7406F9
:103C9300F00242A1E4F508F50978081225AA7C2C64
:103CA3007D01901791E0FAA3E0FB121664740212EF
:103CB300233DE990179CE064827004A3E0640070E4
:103CC3000690179E7407F00242A17508B875090B98
:103CD30078081225AA7C007D00901791E0FAA3E0F2
:103CE300FB121664740212233DE990179CE064836F
:103CF3007004A3E06400700690179E7408F00242FB
:103D0300A175082075090378081225AA7CF47D01A2
:103D1300901791E0FAA3E0FB121664740212233D9C
:103D2300E990179CE0648D7004A3E0640070069032
:103D3300179E7409F00242A17508F4750901780809
:103D43001225AA7CF47D01901791E0FAA3E0FB12FF
:103D53001664740212233DE990179CE0649C70047E
:103D6300A3E06400700690179E740AF00242A175E6
:103D730008FA75090078081225AA7CF47D019017CA
:103D830091E0FAA3E0FB121664740212233DE9905A
:103D9300179CE064AB7004A3E06400700690179E68
:103DA300740BF00242A175086475090078081225A6
:103DB300AA7CF47D01901791E0FAA3E0FB1216644C
:103DC300740212233DE990179CE064BF7004A3E0E2
:103DD3006400700690179E740CF00242A1750832BD
:103DE30075090078081225AA7CF47D01901791E0EB
:103DF300FAA3E0FB121664740212233DE990179CA8
:103E0300E064D37004A3E06400700690179E740D01
:103E1300F00242A1E4F508F50978081225AA7CF41A
:103E23007D01901791E0FAA3E0FB1216647402126D
:103E3300233DE990179CE064E77004A3E0640070FD
:103E43000690179E740EF00242A1E4F508F5097876
:103E5300081225AA7C2C7D01901791E0FAA3E0FBC0
:103E6300121664740212233DE990179CE0640570F6
:103E730004A3E06401700690179E740FF00242A140
:103E83007508B875090B78081225AA7C007D009087
:103E93001791E0FAA3E0FB121664740212233DE9C2
:103EA30090179CE064067004A3E064017006901709
:103EB3009E7410F00242A175082075090378081258
:103EC30025AA7CF47D01901791E0FAA3E0FB12167A
:103ED30064740212233DE990179CE064107004A3FC
:103EE300E06401700690179E7411F00242A17508F8
:103EF300F475090178081225AA7CF47D01901791C5
:103F0300E0FAA3E0FB121664740212233DE9901752
:103F13009CE0641F7004A3E06401700690179E7414
:103F230012F00242A17508FA75090078081225AA51
:103F33007CF47D01901791E0FAA3E0FB1216647400
:103F43000212233DE990179CE0642E7004A3E06401
:103F530001700690179E7413F00242A175086475F0
:103F6300090078081225AA7CF47D01901791E0FAE4
:103F7300A3E0FB121664740212233DE990179CE040
:103F830064427004A3E06401700690179E7414F0F9
:103F93000242A175083275090078081225AA7CF43B
:103FA3007D01901791E0FAA3E0FB121664740212EC
:103FB300233DE990179CE064567004A3E06401700C
:103FC3000690179E7415F00242A1E4F508F50978EE
:103FD300081225AA7CF47D01901791E0FAA3E0FB77
:103FE300121664740212233DE990179CE0646A7010
:103FF30004A3E06401700690179E7416F00242A1B8
:10400300E4F508F50978081225AA7C2C7D019017A0
:1040130091E0FAA3E0FB121664740212233DE990C7
:10402300179CE064887004A3E06401700690179EF7
:104033007417F00242A17508B875090B78081225A8
:10404300AA7C007D00901791E0FAA3E0FB121664AE
:10405300740212233DE990179CE064897004A3E085
:104063006401700690179E7418F00242A17508202F
:1040730075090378081225AA7CF47D01901791E055
:10408300FAA3E0FB121664740212233DE990179C15
:10409300E064937004A3E06401700690179E7419A2
:1040A300F00242A17508F475090178081225AA7C6B
:1040B300F47D01901791E0FAA3E0FB1216647402F9
:1040C30012233DE990179CE064A27004A3E064010D
:1040D300700690179E741AF00242A17508FA7509CA
:1040E3000078081225AA7CF47D01901791E0FAA3C9
:1040F300E0FB121664740212233DE990179CE064FE
:10410300B17004A3E06401700690179E741BF00263
:1041130042A175086475090078081225AA7CF47D0C
:1041230001901791E0FAA3E0FB12166474021223C4
:104133003DE990179CE064C57004A3E06401700638
:1041430090179E741CF00242A1750832750900781D
:10415300081225AA7CF47D01901791E0FAA3E0FBF5
:10416300121664740212233DE990179CE064D9701F
:1041730004A3E06401700690179E741DF00242A12F
:10418300E4F508F50978081225AA7CF47D01901757
:1041930091E0FAA3E0FB121664740212233DE99046
:1041A300179CE064ED7004A3E06401700690179E11
:1041B300741EF00242A1E4F508F50978081225AA55
:1041C3007C2C7D01901791E0FAA3E0FB1216647436
:1041D3000212233DE990179CE0640B7004A3E06492
:1041E30002700690179E741FF00242A17508B875FD
:1041F300090B78081225AA7C007D00901791E0FA3C
:10420300A3E0FB121664740212233DE990179CE0AD
:10421300640C7004A3E06402700690179E7420F08F
:10422300807C7508F475090178081225AA7CD07D75
:1042330007901791E0FAA3E0FB12166474021223AD
:104243003DE990179CE0642A7004A3E06402704E79
:1042530090179E7421F080467508A075090F7808A1
:104263001225AA7C007D00901791E0FAA3E0FB12CF
:104273001664740212233DE990179CE0642B7004CA
:10428300A3E06402701890179E7422F080109017B8
:104293009E7400F090179C7400F0A37400F07F02EA
:1042A30002246974F612239790179EE01225EE00FC
:1042B3002F574D16434D438443BB43F24329445F79
:1042C300449644CD4404453B457245A945DF451614
:1042D300464D468446BA46F14628475F479647CD42
:1042E3004703483A487048A748DD4814494B498278
:1042F30049B849EF49254A5C4A924AC94A004B37B3
:104303004B6E4BA54BDB4B124C484C7F4CB54CEBE7
:104313004C214D75082075090378081225AA7CF4F1
:104323007D01901791E0FAA3E0FB12166474021268
:10433300233DE990179CE064107004A3E0640070CF
:104343000690179E7401F0024D67750858750902AF
:1043530078081225AA7CF47D01901791E0FAA3E076
:10436300FB121664740212233DE990179CE0642447
:104373007004A3E06400700690179E7402F0024D6F
:10438300677508C875090078081225AA7CF47D01B1
:10439300901791E0FAA3E0FB121664740212233D16
:1043A300E990179CE0643C7004A3E06400700690FD
:1043B300179E7403F0024D6775083275090078087B
:1043C3001225AA7CF47D01901791E0FAA3E0FB1279
:1043D3001664740212233DE990179CE06450700444
:1043E300A3E06400700690179E7404F0024D677595
:1043F300081475090078081225AA7CF47D0190172A
:1044030091E0FAA3E0FB121664740212233DE990D3
:10441300179CE0645F7004A3E06400700690179E2D
:104423007405F0024D67E4F508F50978081225AA2A
:104433007CF47D01901791E0FAA3E0FB12166474FB
:104443000212233DE990179CE0646E7004A3E064BC
:1044530000700690179E7406F0024D677508D075BC
:10446300090778081225AA7C007D00901791E0FACD
:10447300A3E0FB121664740212233DE990179CE03B
:10448300646F7004A3E06400700690179E7407F0D5
:10449300024D6775082075090378081225AA7CF474
:1044A3007D01901791E0FAA3E0FB121664740212E7
:1044B300233DE990179CE0647F7004A3E0640070DF
:1044C3000690179E7408F0024D6775085875090227
:1044D30078081225AA7CF47D01901791E0FAA3E0F5
:1044E300FB121664740212233DE990179CE0649357
:1044F3007004A3E06400700690179E7409F0024DE7
:10450300677508C875090078081225AA7CF47D012F
:10451300901791E0FAA3E0FB121664740212233D94
:10452300E990179CE064A77004A3E0640070069010
:10453300179E740AF0024D677508327509007808F2
:104543001225AA7CF47D01901791E0FAA3E0FB12F7
:104553001664740212233DE990179CE064BB700457
:10456300A3E06400700690179E740BF0024D67750C
:10457300081475090078081225AA7CF47D019017A8
:1045830091E0FAA3E0FB121664740212233DE99052
:10459300179CE064C87004A3E06400700690179E43
:1045A300740CF0024D67E4F508F50978081225AAA2
:1045B3007CF47D01901791E0FAA3E0FB121664747A
:1045C3000212233DE990179CE064D77004A3E064D2
:1045D30000700690179E740DF0024D677508D07534
:1045E300090778081225AA7C007D00901791E0FA4C
:1045F300A3E0FB121664740212233DE990179CE0BA
:1046030064D87004A3E06400700690179E740EF0E3
:10461300024D677508E875090378081225AA7CF42A
:104623007D01901791E0FAA3E0FB12166474021265
:10463300233DE990179CE064E67004A3E0640070F6
:104643000690179E740FF0024D677508C875090030
:1046530078081225AA7CF47D01901791E0FAA3E073
:10466300FB121664740212233DE990179CE064FA6E
:104673007004A3E06400700690179E7410F0024D5E
:1046830067E4F508F50978081225AA7CF47D019002
:104693001791E0FAA3E0FB121664740212233DE9BA
:1046A30090179CE064187004A3E0640170069017EF
:1046B3009E7411F0024D677508D0750907780812CA
:1046C30025AA7C007D00901791E0FAA3E0FB121667
:1046D30064740212233DE990179CE064197004A3EB
:1046E300E06401700690179E7412F0024D6775081E
:1046F300F475090178081225AA7CF47D01901791BD
:10470300E0FAA3E0FB121664740212233DE990174A
:104713009CE0642C7004A3E06401700690179E74FF
:1047230013F0024D677508D075090778081225AA9A
:104733007C007D00901791E0FAA3E0FB12166474ED
:104743000212233DE990179CE0642D7004A3E064FA
:1047530001700690179E7414F0024D677508FA7580
:10476300090078081225AA7CF47D01901791E0FADC
:10477300A3E0FB121664740212233DE990179CE038
:1047830064407004A3E06401700690179E7415F0F2
:10479300024D677508D075090778081225AA7C00B1
:1047A3007D00901791E0FAA3E0FB121664740212E5
:1047B300233DE990179CE064417004A3E064017019
:1047C3000690179E7416F0024D67E4F508F5097814
:1047D300081225AA7CF47D01901791E0FAA3E0FB6F
:1047E300121664740212233DE990179CE06454701E
:1047F30004A3E06401700690179E7417F0024D67DE
:104803007508B875090B78081225AA7C007D0090FD
:104813001791E0FAA3E0FB121664740212233DE938
:1048230090179CE064557004A3E064017006901730
:104833009E7418F0024D67E4F508F509780812250F
:10484300AA7C2C7D01901791E0FAA3E0FB12166479
:10485300740212233DE990179CE0647C7004A3E08A
:104863006401700690179E7419F0024D677508D0A5
:1048730075090778081225AA7C007D00901791E03E
:10488300FAA3E0FB121664740212233DE990179C0D
:10489300E0647D7004A3E06401700690179E741AAF
:1048A300F0024D67E4F508F50978081225AA7CFAA9
:1048B3007D00901791E0FAA3E0FB121664740212D4
:1048C300233DE990179CE064C27004A3E064017087
:1048D3000690179E741BF0024D677508D075090783
:1048E30078081225AA7C007D00901791E0FAA3E0D6
:1048F300FB121664740212233DE990179CE064C313
:104903007004A3E06401700690179E741CF0024DBE
:10491300677508F475090178081225AA7CE87D03F8
:10492300901791E0FAA3E0FB121664740212233D80
:10493300E990179CE064D67004A3E06401700690CC
:10494300179E741DF0024D677508D0750907780826
:104953001225AA7C007D00901791E0FAA3E0FB12D8
:104963001664740212233DE990179CE064D7700427
:10497300A3E06401700690179E741EF0024D67E475
:10498300F508F50978081225AA7CE87D03901791AC
:10499300E0FAA3E0FB121664740212233DE99017B8
:1049A3009CE064EA7004A3E06401700690179E74AF
:1049B3001FF0024D677508D075090778081225AAFC
:1049C3007C007D00901791E0FAA3E0FB121664745B
:1049D3000212233DE990179CE064EB7004A3E064AA
:1049E30001700690179E7420F0024D67E4F508F5F8
:1049F3000978081225AA7CF47D01901791E0FAA3A7
:104A0300E0FB121664740212233DE990179CE064E4
:104A1300FE7004A3E06401700690179E7421F002F7
:104A23004D677508D075090778081225AA7C007DA3
:104A330000901791E0FAA3E0FB12166474021223AC
:104A43003DE990179CE064FF7004A3E064017006E5
:104A530090179E7422F0024D67E4F508F509780873
:104A63001225AA7C907D01901791E0FAA3E0FB1236
:104A73001664740212233DE990179CE0641C7004D1
:104A8300A3E06402700690179E7423F0024D6775CD
:104A930008D075090778081225AA7C007D009017B5
:104AA30091E0FAA3E0FB121664740212233DE9902D
:104AB300179CE0641D7004A3E06402700690179EC7
:104AC3007424F0024D677508F475090178081225FE
:104AD300AA7CF47D01901791E0FAA3E0FB1216641F
:104AE300740212233DE990179CE064307004A3E044
:104AF3006402700690179E7425F0024D677508D006
:104B030075090778081225AA7C007D00901791E0AB
:104B1300FAA3E0FB121664740212233DE990179C7A
:104B2300E064317004A3E06402700690179E74265B
:104B3300F0024D677508F475090178081225AA7CFF
:104B4300E87D03901791E0FAA3E0FB121664740268
:104B530012233DE990179CE0643E7004A3E06402D5
:104B6300700690179E7427F0024D677508D075097B
:104B73000778081225AA7C007D00901791E0FAA31C
:104B8300E0FB121664740212233DE990179CE06463
:104B93003F7004A3E06402700690179E7428F0022D
:104BA3004D67E4F508F50978081225AA7CE87D032A
:104BB300901791E0FAA3E0FB121664740212233DEE
:104BC300E990179CE0644E7004A3E06402700690C1
:104BD300179E7429F0024D677508D0750907780888
:104BE3001225AA7C007D00901791E0FAA3E0FB1246
:104BF3001664740212233DE990179CE0644F70041D
:104C0300A3E06402700690179E742AF0024D67E4D5
:104C1300F508F50978081225AA7C907D0190179173
:104C2300E0FAA3E0FB121664740212233DE9901725
:104C33009CE064627004A3E06402700690179E74A3
:104C43002BF0024D677508D075090778081225AA5D
:104C53007C007D00901791E0FAA3E0FB12166474C8
:104C63000212233DE990179CE064637004A3E0649F
:104C730002700690179E742CF0024D67E4F508F558
:104C83000978081225AA7CFC7D08901791E0FAA305
:104C9300E0FB121664740212233DE990179CE06452
:104CA3008A7004A3E06402700690179E742DF002CC
:104CB3004D677508D075090778081225AA7C007D11
:104CC30000901791E0FAA3E0FB121664740212231A
:104CD3003DE990179CE0648B7004A3E064027006C6
:104CE30090179E742EF0807C7508F475090178087E
:104CF3001225AA7CD07D07901791E0FAA3E0FB125E
:104D03001664740212233DE990179CE064997004C1
:104D1300A3E06402704E90179E742FF080467508CE
:104D23008875091378081225AA7C007D00901791D5
:104D3300E0FAA3E0FB121664740212233DE9901714
:104D43009CE0649A7004A3E06402701890179E7448
:104D530030F0801090179E7400F090179C7400F050
:104D6300A37400F07F0202246974F612239790174C
:104D73009EE01225EE00275856CC4D034E3A4E7056
:104D83004EA74EDE4E154F4C4F834FB94FF04F2772
:104D9300505E509550CC5003513A517051A751DD9C
:104DA3005114524B528252B952F05226535D5393CF
:104DB30053CA53005437546D54A454DA541155470D
:104DC300557E55B455ED5522567508E87509037897
:104DD300081225AA7CE87D03901791E0FAA3E0FB73
:104DE300121664740212233DE990179CE0640A7062
:104DF30004A3E06400700690179E7401F0025668E5
:104E03007508D075090778081225AA7C007D0090E3
:104E13001791E0FAA3E0FB121664740212233DE932
:104E230090179CE0640B7004A3E064007006901775
:104E33009E7402F0025668E4F508F5097808122515
:104E4300AA7CE87D03901791E0FAA3E0FB121664B5
:104E5300740212233DE990179CE064157004A3E0EB
:104E63006400700690179E7403F00256687508D0AC
:104E730075090778081225AA7C007D00901791E038
:104E8300FAA3E0FB121664740212233DE990179C07
:104E9300E064167004A3E06400700690179E740427
:104EA300F00256687508F475090178081225AA7C82
:104EB300F47D01901791E0FAA3E0FB1216647402EB
:104EC30012233DE990179CE064207004A3E0640082
:104ED300700690179E7405F00256687508D0750920
:104EE3000778081225AA7C007D00901791E0FAA3A9
:104EF300E0FB121664740212233DE990179CE064F0
:104F0300217004A3E06400700690179E7406F002FB
:104F130056687508FA75090078081225AA7CF47D8D
:104F230001901791E0FAA3E0FB12166474021223B6
:104F33003DE990179CE0642B7004A3E064007006C5
:104F430090179E7407F00256687508D075090778A4
:104F5300081225AA7C007D00901791E0FAA3E0FBDC
:104F6300121664740212233DE990179CE0642C70BE
:104F730004A3E06400700690179E7408F00256685C
:104F8300E4F508F50978081225AA7CF47D01901749
:104F930091E0FAA3E0FB121664740212233DE99038
:104FA300179CE0643B7004A3E06400700690179EB6
:104FB3007409F00256687508D07509077808122538
:104FC300AA7C007D00901791E0FAA3E0FB1216641F
:104FD300740212233DE990179CE0643C7004A3E043
:104FE3006400700690179E740AF002566875089064
:104FF30075090178081225AA7C907D01901791E02C
:10500300FAA3E0FB121664740212233DE990179C85
:10501300E064507004A3E06400700690179E740B64
:10502300F00256687508D075090778081225AA7C1E
:10503300007D00901791E0FAA3E0FB12166474025E
:1050430012233DE990179CE064517004A3E06400CF
:10505300700690179E740CF00256687508F4750973
:105063000178081225AA7CE87D03901791E0FAA342
:10507300E0FB121664740212233DE990179CE0646E
:105083005B7004A3E06400700690179E740DF00239
:1050930056687508D075090778081225AA7C007D23
:1050A30000901791E0FAA3E0FB1216647402122336
:1050B3003DE990179CE0645C7004A3E06400700613
:1050C30090179E740EF00256687508F475090178FE
:1050D300081225AA7CF47D01901791E0FAA3E0FB66
:1050E300121664740212233DE990179CE0646B70FE
:1050F30004A3E06400700690179E740FF0025668D4
:105103007508D075090778081225AA7C007D0090E0
:105113001791E0FAA3E0FB121664740212233DE92F
:1051230090179CE0646C7004A3E064007006901711
:105133009E7410F0025668E4F508F5097808122504
:10514300AA7CF47D01901791E0FAA3E0FB121664A8
:10515300740212233DE990179CE064807004A3E07D
:105163006400700690179E7411F00256687508D09B
:1051730075090778081225AA7C007D00901791E035
:10518300FAA3E0FB121664740212233DE990179C04
:10519300E064817004A3E06400700690179E7412AB
:1051A300F0025668E4F508F50978081225AA7C9000
:1051B3007D01901791E0FAA3E0FB121664740212CA
:1051C300233DE990179CE064967004A3E0640070AB
:1051D3000690179E7413F00256687508D075090778
:1051E30078081225AA7C007D00901791E0FAA3E0CD
:1051F300FB121664740212233DE990179CE0649736
:105203007004A3E06400700690179E7414F00256B5
:10521300687508F475090178081225AA7CE87D03EE
:10522300901791E0FAA3E0FB121664740212233D77
:10523300E990179CE064A17004A3E06400700690F9
:10524300179E7415F00256687508D075090778081B
:105253001225AA7C007D00901791E0FAA3E0FB12CF
:105263001664740212233DE990179CE064A2700453
:10527300A3E06400700690179E7416F002566875DA
:1052830008F475090178081225AA7CF47D019017AA
:1052930091E0FAA3E0FB121664740212233DE99035
:1052A300179CE064B17004A3E06400700690179E3D
:1052B3007417F00256687508D07509077808122527
:1052C300AA7C007D00901791E0FAA3E0FB1216641C
:1052D300740212233DE990179CE064B27004A3E0CA
:1052E3006400700690179E7418F0025668E4F5087F
:1052F300F50978081225AA7CF47D01901791E0FA4C
:10530300A3E0FB121664740212233DE990179CE09C
:1053130064C67004A3E06400700690179E7419F0CD
:105323000256687508D075090778081225AA7C000B
:105333007D00901791E0FAA3E0FB12166474021249
:10534300233DE990179CE064C77004A3E0640070F8
:105353000690179E741AF0025668E4F508F509786A
:10536300081225AA7C907D01901791E0FAA3E0FB37
:10537300121664740212233DE990179CE064DC70FA
:1053830004A3E06400700690179E741BF002566835
:105393007508D075090778081225AA7C007D00904E
:1053A3001791E0FAA3E0FB121664740212233DE99D
:1053B30090179CE064DD7004A3E06400700690170E
:1053C3009E741CF0025668E4F508F5097808122566
:1053D300AA7CD07D07901791E0FAA3E0FB12166434
:1053E300740212233DE990179CE064F17004A3E07A
:1053F3006400700690179E741DF00256687508D0FD
:1054030075090778081225AA7C007D00901791E0A2
:10541300FAA3E0FB121664740212233DE990179C71
:10542300E064F27004A3E06400700690179E741E9B
:10543300F0025668E4F508F50978081225AA7CE815
:105443007D03901791E0FAA3E0FB12166474021235
:10545300233DE990179CE064107004A3E06401709D
:105463000690179E741FF00256687508D0750907D9
:1054730078081225AA7C007D00901791E0FAA3E03A
:10548300FB121664740212233DE990179CE0641129
:105493007004A3E06401700690179E7420F0025616
:1054A30068E4F508F50978081225AA7C907D019037
:1054B3001791E0FAA3E0FB121664740212233DE98C
:1054C30090179CE0642C7004A3E0640170069017AD
:1054D3009E7421F00256687508D075090778081282
:1054E30025AA7C007D00901791E0FAA3E0FB121639
:1054F30064740212233DE990179CE0642D7004A3A9
:10550300E06401700690179E7422F0025668E4F579
:1055130008F50978081225AA7C2C7D01901791E0E3
:10552300FAA3E0FB121664740212233DE990179C60
:10553300E0644A7004A3E06401700690179E74232C
:10554300F00256687508D075090778081225AA7CF9
:10555300007D00901791E0FAA3E0FB121664740239
:1055630012233DE990179CE0644B7004A3E06401AF
:10557300700690179E7424F0025668E4F508F50946
:1055830078081225AA7CD07D07901791E0FAA3E052
:10559300FB121664740212233DE990179CE0645FCA
:1055A3007004A3E06401700690179E7425F0025600
:1055B300687508D075090778081225AA7C007D0054
:1055C300901791E0FAA3E0FB121664740212233DD4
:1055D300E990179CE064607004A3E0640160030237
:1055E300566890179E7426F0807BE4F508F50978D9
:1055F300081225AA7CE87D03901791E0FAA3E0FB4B
:10560300121664740212233DE990179CE0647E70C5
:1056130004A3E06401704E90179E7427F0804675D2
:1056230008D075090778081225AA7C007D00901719
:1056330091E0FAA3E0FB121664740212233DE99091
:10564300179CE0647F7004A3E06401701890179EB8
:105653007428F0801090179E7400F090179C7400CB
:10566300F0A37400F07F0202246974F6122397906A
:10567300179EE01225EE00275B5FCD5604573B577C
:105683007257A957E05717584E588558BC58F358C6
:105693002A5961599859CF59065A3D5A735AAA5AE9
:1056A300E05A175B4D5B845BBB5BF25B295C605C20
:1056B300975CCE5C055D3C5D725DA95DDF5D165E4A
:1056C3004C5E835EB95EEF5E255F7508E87509037E
:1056D30078081225AA7CE87D03901791E0FAA3E0ED
:1056E300FB121664740212233DE990179CE0640ACE
:1056F3007004A3E06400700690179E7401F0025FCB
:105703006B7508D075090778081225AA7C007D00FF
:10571300901791E0FAA3E0FB121664740212233D82
:10572300E990179CE0640B7004A3E064007006909A
:10573300179E7402F0025F6B7508207509037808E1
:105743001225AA7CE87D03901791E0FAA3E0FB12EF
:105753001664740212233DE990179CE064157004EB
:10576300A3E06400700690179E7403F0025F6B75EC
:1057730008D075090778081225AA7C007D009017C8
:1057830091E0FAA3E0FB121664740212233DE99040
:10579300179CE064167004A3E06400700690179EE3
:1057A3007404F0025F6B7508F4750901780812251B
:1057B300AA7CF47D01901791E0FAA3E0FB12166432
:1057C300740212233DE990179CE064207004A3E067
:1057D3006400700690179E7405F0025F6B7508D025
:1057E30075090778081225AA7C007D00901791E0BF
:1057F300FAA3E0FB121664740212233DE990179C8E
:10580300E064217004A3E06400700690179E7406A0
:10581300F0025F6B7508E875090378081225AA7C06
:10582300E87D03901791E0FAA3E0FB12166474027B
:1058330012233DE990179CE0642B7004A3E06400FD
:10584300700690179E7407F0025F6B7508D0750998
:105853000778081225AA7C007D00901791E0FAA32F
:10586300E0FB121664740212233DE990179CE06476
:105873002C7004A3E06400700690179E7408F00275
:105883005F6B75082075090378081225AA7CE87DEB
:1058930003901791E0FAA3E0FB121664740212233B
:1058A3003DE990179CE0643B7004A3E0640070063C
:1058B30090179E7409F0025F6B7508D0750907781D
:1058C300081225AA7C007D00901791E0FAA3E0FB63
:1058D300121664740212233DE990179CE0643C7035
:1058E30004A3E06400700690179E740AF0025F6BD5
:1058F3007508F475090178081225AA7CF47D0190D6
:105903001791E0FAA3E0FB121664740212233DE937
:1059130090179CE064507004A3E064007006901735
:105923009E740BF0025F6B7508D075090778081237
:1059330025AA7C007D00901791E0FAA3E0FB1216E4
:1059430064740212233DE990179CE064517004A330
:10595300E06400700690179E740CF0025F6B75088C
:105963002C75090178081225AA7C2C7D01901791CA
:10597300E0FAA3E0FB121664740212233DE99017C8
:105983009CE0645B7004A3E06400700690179E744F
:105993000DF0025F6B7508D075090778081225AA08
:1059A3007C007D00901791E0FAA3E0FB121664746B
:1059B3000212233DE990179CE0645C7004A3E06449
:1059C30000700690179E740EF0025F6B7508F475F5
:1059D300090178081225AA7CF47D01901791E0FA59
:1059E300A3E0FB121664740212233DE990179CE0B6
:1059F300646B7004A3E06400700690179E740FF04C
:105A0300025F6B7508D075090778081225AA7C0018
:105A13007D00901791E0FAA3E0FB12166474021262
:105A2300233DE990179CE0646C7004A3E06400706C
:105A33000690179E7410F0025F6BE4F508F5097881
:105A4300081225AA7CF47D01901791E0FAA3E0FBEC
:105A5300121664740212233DE990179CE06480706F
:105A630004A3E06400700690179E7411F0025F6B4C
:105A73007508D075090778081225AA7C007D009067
:105A83001791E0FAA3E0FB121664740212233DE9B6
:105A930090179CE064817004A3E064007006901783
:105AA3009E7412F0025F6BE4F508F509780812257D
:105AB300AA7CE87D03901791E0FAA3E0FB12166439
:105AC300740212233DE990179CE064967004A3E0EE
:105AD3006400700690179E7413F0025F6B7508D014
:105AE30075090778081225AA7C007D00901791E0BC
:105AF300FAA3E0FB121664740212233DE990179C8B
:105B0300E064977004A3E06400700690179E741419
:105B1300F0025F6BE4F508F50978081225AA7CF416
:105B23007D01901791E0FAA3E0FB12166474021250
