:020000040000FA
:0600000002011A022DA10D
:03002B000234F2AA
:03003B0002351A71
:0300430002349CE8
:03005300022E1763
:03005B00023594D7
:03006B000234C795
:10008300022BF7E5C754F84401F5C77901220000B4
:100093000080FB120086B90003020104E479217891
:1000A30008B800028004F709D8FCE479297802B87B
:1000B30000028004F709D8FCE490028178F27916F3
:1000C3008002F0A3D8FCD9FA781A90014A7A01BACF
:1000D30000028007E493A3F608DAF97A727B18909A
:1000E300014B78DE79038015E493A3AD82AE838A56
:1000F300828B83F0A3AA82AB838D828E83D8E9D9C6
:10010300E77582337583FF740412012C7582917530
:100113008300740012012C75D00075813F7518811E
:10012300751902759F00020096C09FF59FE473D076
:100133009F22D083D082C09FE493C0E0740193C018
:10014300E0740293F59F220130053C056C056605BA
:10015300FF0000B4000028002800283075A000A08C
:1001630000A000A00000080008E001F0001000104B
:10017300001000100010001000500050005000103C
:10018300001000D0070000000000000F0001000570
:1001930000307507001000010081FF00000000FF20
:1001A300FFFFA406C206AA06E606FF020202080231
:1001B3005000A0000000E80302A5820100009A821B
:1001C30002A182010000D518028E81010000C40241
:1001D30002A182010000D61802A382010000DA0204
:1001E30002A182010000D71802AB82010000DC02E9
:1001F30002A182010000D81802B182080000DD02CA
:1002030002A182010000D91802CB82010000DA1892
:10021300FF0100FF2002A582010000948202A18257
:100223000100003E1902C9820000000000029D8205
:100233000300000B031700000E000E000E000E005B
:100243000E000E000E000E000E000E000E000E003B
:100253000E2810461022106C117E11661102020244
:10026300020202020202010D000000100102A58237
:10027300010000978202A182010000871902C18256
:10028300010000180D02A182010000881902BF823B
:10029300010000778102A182010000891902BD8259
:1002A300010000698102A1820100008A1902BB8258
:1002B300010000E48002A1820100008B1902B982CF
:1002C300010000F68002A1820100008C1902B782AE
:1002D300010000088102A1820100008D1902B5828C
:1002E300010000C08002A1820100008E1902AF82CA
:1002F3000100005B8102A1820100008F1902AD821F
:10030300010000901901E803057710020A0A281377
:10031300FFFFFF000130750302010600000000002B
:1003230000000000000000000000000000000000CA
:1003330000000000000000FFFF0600800CE803023D
:1003430001060302F0FF09FF4A69616E5975616E88
:1003530036173C1748174E1742171A446174610049
:1003630002A582010000918202A182040000841A86
:1003730002C7820C00005E18029D820C00005C180C
:10038300029F82040000851A0100B0423BAAB83FD5
:100393000000003F8C906339AA0CA33A00941E3CE2
:1003A3008042633DCFFE753E1572313F0000803FB2
:1003B300F304353F8096184B3031323334353637BA
:1003C300383941424344454600286E756C6C2070B1
:1003D3006F696E74657229003031323334353637C4
:1003E3003839616263646566003F3F3F0000008007
:1003F3007FF9021550B743BA5100E7DB2E0000A086
:1004030040000080BF2292D43EDD9B2A3F040000BF
:100413004000000000FFFF7F7FFFFF7FFF010080A0
:10042300341872313F120135C0C604120135D3C6E8
:100433000412013504C7041201353EC70412013505
:1004430097C704120135DEC70412013526C804120A
:10045300013555C80412013584C804120135BBC8DF
:100463000412013502C9041201351BC904120135F6
:1004730070C90412013589C904120135D7C90412A0
:10048300013511CA0412013559C2031201355CC387
:100493000312013595C303120135B8C303120135A5
:1004A300CAC30312013508C40312013584C40312FD
:1004B30001354CC5031201356EC50312013505C65E
:1004C3000312013557C60312013588C603120135DD
:1004D30095C603120135FFC60312013556C7031231
:1004E300013559C70312013592C70312013595C768
:1004F300031201359FC703120135F3C703120135F8
:1005030034C80312013567C803120135A4C80312A6
:100513000135A6C9031201354ACA03120135B3CA0C
:1005230003120135F1CA03120135EDD3031201356C
:1005330083D403120135CED40312013532D503120D
:100543000135BCD50312013575D60312013597D990
:100553000312013514DB0312013537DB03120135B6
:10056300A0DA04120135C0DA04120135E1DB04120A
:10057300013534DC04120135EBBA0412013513BB27
:100583000412013540BB0412013578BB0412013556
:10059300D6BB0412013522BC0412013589BC0412F6
:1005A3000135C9BC0412013506BD0412013534BD41
:1005B30004120135DEBD04120135E8BD0412013514
:1005C300F5BD0412013528BE0412013534BE0412F0
:1005D30001354CBE0412013556BE0412013521FB10
:1005E300041201352FFB0412013547FB04120135B8
:1005F3005EFB0412013514B802120135BEB80212B3
:100603000135D1B9021201354DBA021201356BBB66
:1006130002120135A7BB0212013542BC0212013599
:1006230026BD02120135E9BD0212013561BE021277
:100633000135EFBF0212013560C0021201351AC144
:10064300021201350CC2021201354CC202120135ED
:1006530000C30212013532C30212013528C502124A
:1006630001356FC5021201358DC502120135F3C57F
:1006730002120135C2C60212013586C702120135C4
:10068300A5C902120135AFC90212013579EB031274
:10069300013563EC031201350EED031201355FEDF5
:1006A300031201350FEE0312013580EE03120135FB
:1006B30065EF0312013599EF0312013592F003122E
:1006C3000135CFF003120135ABF103120135EAF125
:1006D3000312013506F20312013573EB04120135DF
:1006E300F7EB0412013522EC041201353CED041240
:1006F3000135E4BE04120135FABE0412013518BFF8
:100703000412013529C00412013533C00412013526
:100713005EC10412013555C204120135C2C204126E
:100723000135CCC204120135A0F803120135D6F904
:100733000312013550FA0312013580FA0312013511
:1007430093FA03120135EAFA03120135FFFC03128F
:100753000135599302120135E5930212013549958A
:100763000212013555950212013590950212013599
:10077300FF950212013508970212013511980212F2
:100783000135D89802120135359A02120135539A70
:1007930002120135709A021201351D9B02120135B6
:1007A3009A9B02120135C29B021201358C9E0212E2
:1007B3000135919E02120135AAA002120135F8A05B
:1007C3000212013568A102120135A6A102120135F8
:1007D30082A20212013542A3021201358EA3021234
:1007E300013591A302120135D5A3021201351DA4CF
:1007F300021201355CA4021201357EA402120135F6
:10080300B2A40212013515A5021201356F95041227
:1008130001357D9504120135D09504120135EF950C
:100823000412013534960412013578970412013508
:100833001398041201355798041201358198041254
:100843000135F09804120135369904120135AD993A
:10085300041201355E9A04120135C2A30112013557
:10086300D2A30112013573A401120135CFA40112E1
:1008730001358CA501120135A8A601120135DAA6AE
:100883000112013509A701120135B6A8011201357C
:100893002DAB011201359DAD011201358FAE011251
:1008A300013588AF011201358FB10112013583B4CF
:1008B30001120135B2B501120135B6B70112013586
:1008C300C6B80112013555BA0112013546BB0112F2
:1008D300013594BB0112013503BC0112013527BC5C
:1008E3000112013578BC0112013519C1011201351C
:1008F3001AC2011201357BC201120135A6C20112CF
:1009030001356CC301120135709A041201357A9ACC
:1009130004120135BF9A04120135D39A041201352A
:10092300639B041201359C9B04120135D79B04126F
:100933000135009C041201354E9C04120135639C61
:1009430004120135789C04120135A09C0412013570
:10095300B59C04120135C99C04120135DD9C0412B7
:100963000135F29C041201352C9D04120135509D72
:10097300041201357C9D04120135B39D0412013527
:10098300159E04120135879E04120135CA9E041276
:100993000135F49E041201351F9F0412013566F8D8
:1009A30004120135008003120135E380031201357F
:1009B3005E8103120135998103120135EA82031224
:1009C30001357383031201358B85031201351D88AD
:1009D30003120135CF8803120135DB890312013578
:1009E3004E8B03120135A78B031201354C90041271
:1009F30001358F9004120135139104120135E691EC
:100A030004120135BD9404120135EDDF04120135E2
:100A13009AE004120135A7E104120135E6E104125C
:100A2300013540E2041201356BED04120135CEEDC0
:100A3300041201356BEE04120135A0EE04120135E8
:100A4300D0EE04120135F1EE041201352CEF04123D
:100A530001354CEF0412013512A4041201359EA492
:100A6300041201355DA50412013575A60412013582
:100A73008FA80412013543980312013568980312B5
:100A83000135359903120135099A03120135769A16
:100A930003120135CC9A03120135689B0312013509
:100AA3009C9C03120135779D03120135D69D0312D9
:100AB3000135629E03120135D09E031201355C9FFE
:100AC300031201355F9F03120135A99F03120135FC
:100AD3001BA003120135ADA0031201354EA1031271
:100AE30001356EA103120135B6A103120135FFA131
:100AF300031201351BA20312013541A20312013572
:100B0300BBA203120135C9A20312013558A3031274
:100B13000135C1A30312013578AD04120135FDADD2
:100B2300041201353FAE0412013523AF041201351F
:100B330090AF04120135D4AF0412013518B004127A
:100B4300013545B0041201356DB004120135A5B06D
:100B530004120135E3B0041201350AB10412013560
:100B630084B104120135CEB104120135D8C3011288
:100B73000135D1C501120135BEC80112013512C9B3
:100B8300011201353DC90112013516CA01120135A1
:100B930051CA0112013581CA0112013594CA0112E9
:100BA3000135D5CA0112013502CB0112013550CBF3
:100BB3000112013585CB01120135BBCB0112013581
:100BC3001ACC011201359FCC011201353ECF01121F
:100BD300013526D10112013562D101120135E0D26E
:100BE3000112013542D3011201352CD50112013511
:100BF300AFD50112013586D601120135DED60112B9
:100C03000135C0D8011201358FDA0112013594DAAA
:100C13000112013562DB01120135F9DB01120135E5
:100C230047DD0112013558DD01120135BAB803124F
:100C3300013533B903120135EDBE03120135F8BF97
:100C430003120135A1C1031201352FC2031201356D
:100C5300F45F00120135756000120135A2600012C5
:100C63000135ED6000120135EE610012013533628A
:100C7300001201355F6200120135DB63001201359A
:100C83005D6400120135AC64001201351765001272
:100C93000135CB6500120135686600120135E36644
:100CA300001201356D6700120135C067001201356E
:100CB300086900120135876A00120135526B001270
:100CC30001355F6B00120135AF6B00120135BF6B4D
:100CD30000120135E36B00120135E66B001201359A
:100CE300CF6C00120135B16D00120135536E001245
:100CF3000135EE6E00120135156F00120135726F6A
:100D030000120135C96F0012013517700012013549
:100D1300657000120135CE70001201356E7100123C
:100D230001350A72001201359772001201350C73F6
:100D3300001201355C7300120135BB7300120135DB
:100D4300E273001201359C74001201358D76001296
:100D53000135D676001201350877001201357F7709
:100D630000120135097900120135BD7900120135F0
:100D7300ED7900120135027A00120135727A001200
:100D83000135B37A00120135C87B00120135497C65
:100D9300001201353EF60212013589F602120135C1
:100DA30095F60212013569F70212013580F7021236
:100DB3000135BDF702120135EEF70212013526F8AF
:100DC300021201357CF80212013592F80212013544
:100DD300CEF802120135E1F80212013508F90212C8
:100DE30001353CF90212013562FA02120135ACFBFE
:100DF30002120135A8FC02120135C5FD02120135AC
:100E0300D535001201351F8B04120135CD8E041226
:100E13000135019004120135508C03120135138FF3
:100E230003120135198F03120135D69103120135CF
:100E3300309403120135C6A8041201355DA90412CA
:100E430001351BAA0412013545AA041201357BACF6
:100E5300041201357BDD01120135B6DD01120135C6
:100E6300FBE90112013567EB0112013564EC011254
:100E73000135E9EF01120135D3F0011201351FF1FC
:100E83000112013539F10112013576F101120135F3
:100E930081F1011201358AF1011201353AF2011291
:100EA30001350AF30112013551F301120135B7F38C
:100EB3000112013529F401120135EDA502120135A4
:100EC30035A9021201353BA9021201358EB0021277
:100ED30001359BB40212013579CA041201350FCBD7
:100EE3000412013525CB041201357ECB04120135E2
:100EF300C2CB04120135FCCB0412013594CC04128D
:100F0300013503CD041201350CCD0412013518CD82
:100F13000412013532CD041201355CCD04120135C2
:100F230071CD04120135D3CD04120135FACD04126B
:100F3300013567F20312013574F2031201358EF2A3
:100F430003120135C1F203120135FFF20312013519
:100F530064F30312013579F30312013584F30312A9
:100F6300013591F303120135A8F303120135B6F3EA
:100F730003120135C5F303120135DAF30312013508
:100F8300EFF303120135FAF30312013506F40312EA
:100F9300013513F40312013522F4031201352DF444
:100FA3000312013552F403120135F6F4031201352D
:100FB30006F5031201351BF50312013535F503124E
:100FC300013552F5031201356FF5031201357AF538
:100FD3000312013526F60312013507F70312013513
:100FE3002CF70312013537F7031201354CF70312BF
:100FF300013560F703120135C1F703120135C7F755
:1010030003120135CDF703120135D3F7031201356E
:10101300EBF7031201351EF8031201359CF501129B
:101023000135BEF50112013586F60112013540F98D
:101033000112013556FA0112013577FB0112013510
:1010430051FC0112013500FD01120135BBE802120A
:10105300013552E902120135EAE902120135DAEAF1
:101063000212013511EB0212013524EB0212013594
:1010730092EB021201352DED0212013554ED0212ED
:101083000135F6ED021201352BEE021201353CEE6D
:1010930002120135B5EE02120135D6EE0212013508
:1010A300EEEE0212013546F0021201354FF2021242
:1010B30001359FF402120135A2F502120135F1F553
:1010C300021201351FDA021201351CDB021201354F
:1010D30007DC0212013511DC021201351BDC02129E
:1010E30001353DDC0212013549DC021201359BDD7D
:1010F30002120135CADD02120135FADE0212013590
:101103003CDF0212013568E0021201353EE10212B2
:10111300013590E102120135EFE10212013526E2B9
:101123000212013561E202120135FCE502120135BA
:1011330015E60212013597E602120135A5E6021201
:101143000135FAE60212013508E70212013575E7A7
:1011530002120135E7E7021201352DE802120135CB
:10116300E4A30312013506A403120135F0A503120B
:10117300013595A903120135D8AA03120135B2AB83
:1011830003120135D9F204120135FEF204120135BE
:101193006FF3041201355ADC0312013563DC0312C9
:1011A30001356CDC031201359DDD03120135BCDF13
:1011B30003120135F2DF031201352CE0031201356E
:1011C30062E0031201359CE003120135D0E0031203
:1011D3000135FCE00312013545E1031201357FE1DE
:1011E30003120135C7E1031201351DE20312013574
:1011F30052E203120135ADE203120135E7E20312B5
:10120300013538E3031201356EE303120135A8E318
:1012130003120135D6E303120135F9E30312013555
:10122300B2FC04120135DEFC0412013539FD04124F
:10123300013543FD0412013553FD041201358CB60B
:1012430004120135B3B604120135E3B604120135B5
:101253005DFD04120135CD8201120135E8850112CD
:101263000135D887011201354A88011201350889F1
:1012730001120135B38901120135438A0112013587
:10128300D28A01120135FC8A01120135698B0112E0
:101293000135A39001120135369101120135659292
:1012A30001120135C992011201357D9301120135F5
:1012B3003096011201356A9601120135D496011256
:1012C30001353197011201358E9701120135EB97E4
:1012D30001120135D698011201351C99011201350D
:1012E300679901120135889901120135EA9A0112B1
:1012F3000135059B011201358B9C01120135B89C08
:1013030001120135F89C011201353E9D0112013590
:101313005C9D011201359A9D01120135D89F01127E
:10132300013511A001120135A8A00112013548A110
:1013330001120135DBA1011201354DA20112013564
:101343008EA301120135F2E40412013586E504127D
:10135300013559E60412013582E604120135E9E646
:10136300041201357AF9041201358BF9041201359F
:10137300BAD70412013585DA0412013567800512E4
:1013830001350BF6041201351BF6041201353BF649
:101393000412013537F70412013541DD041201351A
:1013A300DCDD04120135D2DF041201355AEF0412D9
:1013B30001358FEF04120135E8EF04120135E6F031
:1013C3000412013519F1041201351CF1041201351F
:1013D3000080051201352580051201350EB2041275
:1013E300013544B204120135DAB204120135DCB31B
:1013F30004120135CDB5041201355DB60412013571
:101403006EB604120135E17F00120135F87F001238
:10141300013551E704120135F5E80412013561E99C
:1014230004120135479F0412013544A1041201350A
:10143300CAA104120135CCA20412013541A304123E
:101443000135A1A304120135A4A304120135B2A3EB
:1014530004120135C6A304120135DEA304120135BB
:10146300ECA30412013504A4041201359DFE0412F9
:10147300013513FF0412013523FF041201358FF4E4
:1014830004120135B8F404120135E2F404120135F3
:1014930002F50412013587E40312013595E40312C2
:1014A3000135DBE4031201352EE50312013576E540
:1014B30003120135D0E503120135F1E503120135BD
:1014C300FFE5031201355BE6031201358EE60312D5
:1014D3000135A1E6031201352CE703120135C5E7F7
:1014E3000312013542E8031201357BE8031201358B
:1014F30003E9031201355AE903120135B7E903126F
:101503000135C9E903120135EFE903120135F8E9A1
:101513000312013545EB0312013521F104120135A4
:1015230082F1041201351FF20412013585F204120F
:10153300013528CE041201355BCE0412013582CF6A
:1015430004120135A7CF0412013583D004120135EB
:10155300C6FE0312013592FF031201358BE204121A
:101563000135D0E20412013510E304120135ADE474
:101573000412013551FA041201356CFA04120135D3
:101583007CFA04120135E1FA04120135EEFB041270
:101593000135F4AE03120135D0AF0312013517B094
:1015A3000312013554B003120135C0B003120135E3
:1015B30018B10312013588B10312013558B2031271
:1015C300013541B303120135B8B3031201354DB5EB
:1015D30003120135D8B50312013547B6031201359D
:1015E300BFB603120135D6B603120135FFB7031296
:1015F300013551B8031201350080041201352080F2
:101603000412013510810412013559810412013588
:10161300798104120135B781041201351282041253
:1016230001355082041201359A8204120135428534
:1016330004120135AB8504120135E0350012013582
:10164300023600120135AD3600120135B7360012ED
:101653000135653700120135593900120135BD399D
:1016630000120135E93900120135403B0012013502
:10167300EC4200120135B24D00120135B35600128F
:101683000135B65F00120135BFD1041201352CD3E9
:101693000412013560D404120135008002120135B1
:1016A300198502120135108802120135368802129B
:1016B30001355F8802120135118902120135F28A60
:1016C300021201350D8C02120135268C02120135EE
:1016D3001C910212013555910212013599910212A2
:1016E3000135A69202120135BC8504120135F0853D
:1016F300041201356286041201357B86041201351A
:101703008D8604120135F48604120135D088041243
:1017130001353F8904120135BE8A0412013517CB06
:1017230003120135BECE03120135B0D103120135C8
:10173300CDD103120135ECD103120135CDD2031201
:101743000135DED20312013517D30312013565D3F8
:10175300031201357F7C00120135007D0012013533
:101763001D7D00120135687D00120135537E001284
:101773000135868005120135D9D40412013548F7A5
:10178300041201359DFF04120135B9C90212013556
:10179300CCCE0212013564E9041201359B7F00129D
:1017A30001353B8005120135D6C20412013507FE0F
:1017B3000412013531FE04120135A48005E0667080
:1017C3001008A3E066700A08A3E066700408A3E0AB
:1017D3006622C008C3E096F50808A3E0964208080D
:1017E300A3E096420808A3E0964208A2D265D0334C
:1017F300E5087001D3D00822C3E7960809E79608E5
:1018030009E7960809E79622C3E09608A3E096083D
:10181300A3E09608A3E09622C008C3E096F5080863
:10182300A3E096420808A3E096420808A3E0964581
:10183300087001D3D00822080808E630E711122007
:10184300F4121852080808C64480C618181822183B
:101853001818E9799EC608CAC608CBC608CCC6C301
:1018630070207996CACBCC7019798ECBCC70137952
:1018730086CC700EF9802ACA33CACB33CBCC33CC97
:10188300331930E7F2CCCBCA3350147004EA30E09A
:101893000DE4CA3ACACB3BCBCC3CCC500209C3E9DA
:1018A30013C6CC182313C6CB18C6CA18C6F92212FE
:1018B30018F220F01430E72B74FFFCFBFA747F80DE
:1018C30022E4FCFBFA7480801AB48008BC00F2BBEB
:1018D30000EF800F50EBF9E4C39AFAE49BFBE49C1E
:1018E300FCE499C6CC18C6CB18C6CA18C6F922E4BC
:1018F300C9C608CAC608CBC6D3330308CCC63392BD
:10190300F0C3947F402E94184019C9B90704CACB79
:10191300CC225025C309CA33CACB33CBCC33CC3307
:10192300D9F422F4600DC9CCC313CB13CBCA13CAA9
:10193300D9F6CC22E4FCFBFA2214FCFBFA22E626BD
:1019430018461846184622E7271947194719472208
:10195300181818E60846087009E626087005E633E5
:10196300F4220822191919E70947097009E7270919
:101973007005E733F4220922E6084608C313460834
:10198300336002E633F422E7094709C313470933F7
:101993006002E733F42212197B602512198A602052
:1019A300121941700302194A080808E766701018F3
:1019B30019E766700A1819E76670041819E76622B2
:1019C300F42212197B601C12198A601712194170D4
:1019D3000712194A7001D322C0D012194A7006D0D7
:1019E300D0B322C32233D0D0501430E0F6C3E796ED
:1019F3000809E7960809E7960809E796B32220E065
:101A0300D5E6970809E6970809E6970809E697B324
:101A13002212197B601B12198A6016121941700772
:101A230012194A600CB322C0D012194A7005D0D0E3
:101A330022C32233D0D0501330E0EBC3E79608091A
:101A4300E7960809E7960809E7962220E0E4E69777
:101A53000809E6970809E6970809E697220012198C
:101A63007B604F12198A6012E7548066F61219538D
:101A7300701112194A703B090909F4F618F618F6A1
:101A830018F622121967701512194108080860EA3E
:101A9300E6447FF618768018E4F618F62212194108
:101AA300601612194A7012E4F608F608F608E654AE
:101AB30080F609090918181822EAC0E0EBC0E0EC27
:101AC300C0E0EDC0E0E687F0A4FBACF008E687F0E9
:101AD300A42CFCE435F0FA1809E687F0A42C4B603B
:101AE300027401CA35F0FCE433FB09E687F0D2F750
:101AF300A42CCB35F0FC1908E687F0A42BCC35F0E9
:101B0300FBE433FD0819E687F0D2E7A42C4ACB3572
:101B1300F0CD3400FC09E687F0D2E7A42DCC35F0F4
:101B2300FDE433FA0918E687F0D2F7A42CCD35F09B
:101B3300CA3400FC08E687F0D2E7D2F7A42ACC35F2
:101B4300F07A7E20E70B0ACB33CBCD33CDCC33CC2D
:101B530033CB3350147004ED30E00ED2F1E4CD3DBD
:101B6300CDCC3CCC3B5005DA05C2F1EB547FC633F8
:101B730008E63392F0FBE73309E733C39A502D2B82
:101B830070190C0D4C4D70151806E608C333700D13
:101B930020F10AA2F013F6E418800B4024E4F63097
:101BA300F002768018F618F618F68024D33B14500A
:101BB3001074FFA2F013F6187680E418F618F68076
:101BC3000FA2F013F618E63303F618ECF618EDF649
:101BD300D0E0FDD0E0FCD0E0FBD0E0FA2212198A7D
:101BE300604612197B603DE9687008F618F618F62E
:101BF30018F622748067F7121C14090909748067A8
:101C0300F72212197B601D12198A700519191980A0
:101C13001A121953701F121967C37003E667331939
:101C2300191940071818182208080874FFF618F63F
:101C330018F618F622121967601712194A702192C2
:101C4300F01219417019501720F0140808080909F7
:101C530009E7F61819E7F61819E7F61819E7F6224F
:101C630012194160E6E869701F0808E62480F60847
:101C7300E436F618547FB47F0CE654806007F6E42C
:101C830018F618F622181822E9C6CC08C6CD08C6DD
:101C9300CE08C6CFC0E0E8C0E0EAC0E0EBC0E00990
:101CA300E9F809E7FA09E7FBE6F918E6F8C3EC985F
:101CB300ED99EE9AEBC2E7F5F0EFC2E795F0500E1F
:101CC300600CEBCFFBEACEFAE9CDF9E8CCF8EAA257
:101CD300E7D2E7FAEB33FB13F5F0EEA2E7D2E7FE28
:101CE300EF33FFC5F013A2E730E601B313C5F0C32A
:101CF300C0E0C0F07F00C39BFB605E9418600F40A0
:101D03001D14601AD0E023F9D0E0F8021DE68AF032
:101D1300E9486003D2F0E4AFF0FAF9F8803BEB3026
:101D2300E40D89F0EA6003D2F0E4AFF0F9CAF8EB0E
:101D330030E30D88F0EF6002D2F0AFF0E4CAC9F8E7
:101D4300EB54076014FBC3EA13FAE913F9E813F839
:101D5300EF135002D2E0FFDBEDD0E0C0E030E73913
:101D6300C3E49FFFF5F0EC98FC42F0ED99FD42F0DF
:101D7300EE9AFE42F0D0E0F9D0E0F8E5F0607AE9BF
:101D830023F9EE20E742D8028067C3EF33FFEC3339
:101D9300FCED33FDEE33FE80EAEC28FCED39FDEE7D
:101DA3003AFED0E023F9D0E0F84002801BC3EE13E3
:101DB300FEED13FDEC13FCEF135002D2E0FF08B865
:101DC30000067F7F74FF802EEF3350178CF020F0D6
:101DD3000260100CBC000C0DBD00080EBE00040810
:101DE300E860DFE933E813FFEE2313FE4F4D4C8029
:101DF30008E95480FFE4FEFDFCEE33EF33F4700496
:101E0300FCFD7E80D0E0FBD0E0FAD0E0F8D0E0CF5C
:101E1300C618CEC618CDC618CCC6F92212197B70C7
:101E2300041818182212198A700D74FFF61819F67F
:101E33001819F61819F622E7548066F6121941703C
:101E43000F12194A70F014F608F608F608F680D156
:101E530012194A700CF608F608768008E6447F806B
:101E6300EC12196A700C12195660BFE65480F6E43E
:101E730080BB121956700519191980A5E869700CF1
:101E8300763F18768018F618F6E8F922E6CDC0E01A
:101E930018ECC0E0E633CD33CDD313F6E719FCE7F6
:101EA300191933CC33C3947F400ECD9D502408E6DB
:101EB3005480F6E418F6800FF4043D14501408E639
:101EC300447FF6187680E418F618F6D0E0FCD0E0EC
:101ED300FD22CCD313CCFD18E4C6CBC0E018E4C676
:101EE300CAC0E00808ED08C633E613F618E433C6A3
:101EF30075F003C3CA97CA09CB97CB199C40047DDD
:101F030008802EBD0003021FC816B6FF050606088B
:101F13001618C3CA33CACB33CB33CA27CA09CB3744
:101F2300CB193CC37D08803E187D0820E75CC6338F
:101F3300C6CA33CACB33CB33DDF1D5F0EB30E77B05
:101F4300CA97CA09CB974ACB199C406F4B7025E6B9
:101F530020E0218066187D08C3CA97CA09CB97CBB6
:101F6300199CD3C633C6CA33CACB33CB3350C9DD6E
:101F7300E7D5F0E1D3E4C636C608C636C608C6368A
:101F8300C608C636C61818188031C3CA97CA09CB03
:101F930097CB199CB34097C633C6CA33CACB33CB4E
:101FA30033DD34D5F02EC6A2E0C640C8CA27CA091D
:101FB300CB37194A70BECB3CB480B90808E6330866
:101FC300E633601F181818D0E0FAD0E0FBD0E0FC2D
:101FD300D0E0FD22187D08CA27CA09CB37CB193CAC
:101FE300D3808013F618E4B67F11F618B6FF0EF609
:101FF30018C60470D20808768080CAF618F618F658
:1020030080C5080808EAC0E0EBC0E086F0E7A4FA60
:10201300180986F0E7A42AFA180986F0E7A42AFA31
:10202300180986F0E7A42AFA1986F0E7A4FBE5F07D
:102033002AFA190886F0E7A42BFBE5F03AFA190807
:1020430086F0E7A42BFBE5F03AFA18180986F0E7C7
:10205300A4C5F02BFBE43AFA1908E7C5F0C6A42699
:10206300F6E5F03BFBE43AFA1886F0E7A4F6E5F070
:102073000826F6E43B08F6E43A08F6D0E0FBD0E0A5
:10208300FA22E4CFC0E0E4CEC0E0E4CDC0E0E4CC8B
:10209300C0E075F020E626F608E633F608E633F6E8
:1020A30008E633F6181818EC33FCED33FDEE33FE77
:1020B300EF33FFC3EC9709ED9709EE9709EF9719F3
:1020C3001919400FFFEC97FC09ED97FD09EE97FEF8
:1020D300191906D5F0BFECF709EDF709EEF709EF8B
:1020E300F7191919D0E0FCD0E0FDD0E0FED0E0FFF5
:1020F30022181818E4C396F608E496F608E496F650
:1021030008E496F6226016080808C6C313C618C664
:1021130013C618C613C618C613C6D5E0EA2270093B
:10212300080808226016181818C6C333C608C63331
:10213300C608C633C608C633C6D5E0EA22E627F684
:102143000809E637F60809E637F60809E637F622FE
:10215300E026F608A3E036F608A3E036F608A3E087
:1021630036F622E026F008A3E036F008A3E036F0C6
:1021730008A3E036F022C3E697F60809E697F608C7
:1021830009E697F60809E697F622C3E0C696F6082D
:10219300A3E0C696F608A3E0C696F608A3E0C696A3
:1021A300F622C3E096F008A3E096F008A3E096F0C9
:1021B30008A3E096F022E056F608A3E056F608A33B
:1021C300E056F608A3E056F622E056F008A3E056E0
:1021D300F008A3E056F008A3E056F022E0F608A3C7
:1021E300E0F608A3E0F608A3E0F622E6F008A3E68B
:1021F300F008A3E6F008A3E6F022E0FAA3E0FBA3CD
:10220300E0FCA3E0FD22EAF0A3EBF0A3ECF0A3EDE6
:10221300F022E0F8A3E0F9A3E0FAA3E0FB22E8F060
:10222300A3E9F0A3EAF0A3EBF022CAC0E0E6F0A32F
:1022330008DAFAD0E0FA22CAC0E0E0A3C582CCC52E
:1022430082C583CDC583F0A3C582CCC582C583CDAA
:10225300C583DAE6D0E0CA22C3E498F8E499F91218
:10226300229C8026C3E49AFAE49BFBE920E7E91267
:10227300229CE498F8E499F922C3E498F8E499F9E4
:1022830012229CE498F8E499F9C3E49AFAE49BFBDC
:1022930022EB20E7CFE920E7E0B90010BB0008E814
:1022A3008AF084F8AAF022E4FBC8FA22EB70227BBE
:1022B30010C833C8C933C9335007C39AC3DBF2808C
:1022C300069A50012ADBEAC833F4C8C933F4C9FAC1
:1022D3002275F008E4C833C8C933C933C99AC99B06
:1022E3005004C92AC93BD5F0ECFBC833F4C8E4C990
:1022F300FA22600D08C6A2E713C618C613C6D5E0B6
:10230300F322600C08C6C313C618C613C6D5E0F47F
:1023130022700422600D18C6C333C608C633C6D55F
:10232300E0F41822251810AF08F518400C15198091
:1023330008F51840021519D2AF2200C0D025181095
:10234300AF08F518500C05198008F5185002051947
:10235300D2AFD0D0222518F58210AF08F518400C63
:1023630015198008F51840021519D2AF8519832273
:102373002518F582E43519F583222518F8E4351973
:10238300F9222518FAE43519FB222518FCE435193E
:10239300FD22E4732518C582C0E0E51934FFC58327
:1023A300C0E0E518C3958224F810AF08858319852A
:1023B30082188008858319858218D2AFCEF0A3E5F1
:1023C30020F0A37808E608F0A3DEFAEFF0A3E58196
:1023D30024FAF8E608F0A3E608F0A3E608F0A30859
:1023E30008E608F0A3E608F0A315811581D0E0FE06
:1023F300D0E0F8158115811581E8C0E0EEC0E02238
:102403002518C582C0E0E51934FFC583C0E0E5188F
:10241300C3958224F910AF08858319858218800833
:10242300858319858218D2AFCEF0A3E520F0A37877
:1024330008E608F0A3DEFAEFF0A3E58124FBF8E653
:1024430008F0A3E608F0A30808E608F0A3E608F0FE
:10245300A315811581D0E0FED0E0F815811581E840
:10246300C0E0EEC0E022851983851882E0A3FEE078
:10247300A3F5207808E0A3F608DFFAE0A3FFE0A3C2
:10248300C0E0E0A3C0E0E0A3C0E0E0A3C0E0E0A3BD
:10249300C0E010AF088582188583198008858218EB
:1024A300858319D2AFD083D0820201328519838507
:1024B3001882E0A3FEE0A3F5207808E0A3F608DF86
:1024C300FAE0A3FFE0A3C0E0E0A3C0E0E0A3C0E024
:1024D300E0A3C0E010AF08858218858319800885C2
:1024E3008218858319D2AFD083D08222C0D0251819
:1024F300C582C0E0E51934FFC583C0E0E518C39584
:102503008224F310AF088583198582188008858398
:1025130019858218D2AFC8F0A3E9F0A3EAF0A3EBC0
:10252300F0A37908E709F0A3D8FAECF0A3EDF0A340
:10253300EEF0A3EFF0A3D0E0F0A3D0E0F0A3D0E05F
:10254300F0A3E520F0A3E5F0F0A322851983851815
:1025530082E0C0E0A3E0F9A3E0FAA3E0FBA37808DC
:10256300E0F608A3DFFAE0FCA3E0FDA3E0FEA3E0AE
:10257300FFA3E0C0E0A3E0C0E0A3E0F5D0A3E0F553
:1025830020A3E0A3F5F010AF088583198582188096
:1025930008858319858218D2AFD082D083D0E0F822
:1025A300D0E03274048006740280027401C0E0F447
:1025B30004122358D0E012222D22740480047402E2
:1025C3008000CCC0E0EDC0E0E518C39CCCAD195051
:1025D300011D10AF068C188D1980068C188D19D229
:1025E300AF12223AD0E0FDD0E0FC22D083D082C5E6
:1025F300F0E493A3C5F0C395F0F5F0E493A3C3957A
:10260300F04005E5F0048001E475F002A42582F5AD
:1026130082E5F03583F583E493A3C0E0E493C0E05F
:1026230022D083D082E9C0E0E493A3C386F0C5F04F
:1026330095F0F908E493A386F0C5F095F0700BE4E8
:1026430093A3C3994005E9048002A3E475F002A4AF
:102653002582F582E5F03583F583D0E0F9E493A391
:10266300C0E0E493C0E022D083D082ECC0E0EDC0B0
:10267300E0E493A3FCE493A3FDED4C600D1226B6B6
:10268300EC24FFFCED34FFFD80EFE493A3FCE49323
:10269300A3FDED4C600D1226F5EC24FFFCED34FF99
:1026A300FD80EFD0E0FDD0E0FCE493A3C0E0E49331
:1026B300C0E022C0E0C3E4939608740193961840E7
:1026C3000FE493667008087401936618700070191C
:1026D300A3A3C3E49396087401939618A3A3400D90
:1026E300D0E0D0E0D0E00226A6A3A3A3A3A3A3D067
:1026F300E022C0E0C0F088F0E4936670080874013B
:102703009366187000A8F0A3A3700BD0F0D0E0D0AC
:10271300E0D0E00226A6A3A3D0F0D0E02274F61204
:102723002403EAFEEBFF8C088D09EE2434F8E43F22
:10273300F9E8FCE9FDEE2435122A3CFAEE243712BF
:102743002A3CF88508F0A4C885F00A8509F0A42579
:102753000AF9EA28F8E439F97A257B0012229CEA7F
:102763008C828D83F0FA131313541FF8EE28F8E4C8
:102773003FF9E8245DF582E439F583E0C0E07407AE
:102783005AF8D0E0B800028004C313D8FCA2E0EEEC
:1027930050082434F582E43F80182436122A3CF58D
:1027A300F0EA84A8F0EE28F8E43FF9E82438F5824B
:1027B300E439F583E0F97F030224AF74F7122403AD
:1027C300EAFEEBFFEE2434122A3CC0E0EE2435F59A
:1027D30082E43FF583D0E0F08E828F83A3A3A3A38B
:1027E300A3A3A3C082C0838E828F83A3A3A3A3A327
:1027F300E0F8A3E0F9D083D082E0C398F508A3E022
:1028030099F509EE247F122A3C6401703EEE248080
:10281300F582E43FF583C082C0838E828F83A3A3B6
:10282300A3A3A3E0240108A3E03400F9D083D0825A
:10283300E0687003A3E06970127CD27D06120D403C
:10284300EE247FF582E43FF583E4F0AC08AD09EEB6
:10285300FAEFFB122720E9F912348E7F020224AF2C
:10286300C082C083851882851983E0F8A3E0F9C389
:10287300EA9CEB9D5010C3EC98ED99401BC3EA987A
:10288300EB995014800EC3EA98EB994007C3EC9878
:10289300ED994004790180027900D083D08222EA45
:1028A300C39CFAEB9DFB2274EF12240390037BE09D
:1028B30064086005E06407702A9061C8E0602490B2
:1028C30003A9E0F4601DE0F875F00DA4C8AAF02A8E
:1028D300F974AB28FE740339FF8E828F83A3A3A3FD
:1028E300E070030229B8906060E0C0E0EE2468F570
:1028F30082E43FF583D0E0F0750C6C750D07750825
:1029030000750900E5D914F50AE5D95403F50E60FD
:10291300127403650E6043E50A600AEE2467122A07
:102923003C70028075900767E06401601F122A39CA
:1029330060047A0480027A00E50AC39AFA95E0FB00
:10294300120B7E8A088B09EA45097005120FFE8077
:1029530064122A3970048A0C8B0DE50A6012850C07
:1029630082850D83F50BE5D9F0A3150BE50B70F606
:10297300122A39604474FC250AF50A780C1225AA38
:10298300AC0AA90EEEFAEFFB120DFA740212233D04
:10299300E97026AA08AB09121520793D8E828F8330
:1029A300A3A3A3A3E0FA7B001209CEEEFAEFFB1276
:1029B3000D64120E5A790080787403650E60518598
:1029C3000A1075110078101225AAAC0CAD0DAA08D7
:1029D300AB09120DBE740212233DEE2468122A3C89
:1029E30064807004747F8001E0F50C780C1225AECE
:1029F300E50EF50C780C1225AEA90AAC08AD0990CA
:102A030003A9E0FA7B0012099E740212233D801C85
:102A130090037BE06408AC0CAD0D7009EEFAEFFB9C
:102A2300120E2A8007EEFAEFFB120ECC12100A796F
:102A3300017F0A0224AFEE2483F582E43FF583E0AD
:102A43002274F212240374FC122327EAFEEBFF899B
:102A530009A2AFE433F508C2AF022B0EE0601B7886
:102A63000C1225AAAC0BA90EEEFAEFFB120DF474AF
:102A73000212233D7404250BF50B7401250BF5D9C4
:102A8300850ED9E50B6018F50A850C82850D83E068
:102A9300F5D9A385820C85830D150AE50A70EA75BD
:102AA300E195EE2463F8E43FF97A007B00A2AFE4FA
:102AB30033F50BC2AF88828983E0FCA3E0FDEC4DC4
:102AC300603A88828983E0FAA3E0FB8A828B83E001
:102AD300FCA3E0FD88828983ECF0A3EDF08A828B6E
:102AE30083E4F0A3F088828983E0FCA3E0FDEC4D4E
:102AF300700A88828983A3A3E4F0A3F0E50BA2E024
:102B030092AF1215209006D9E004F0EE2463122A46
:102B13003CF8A3E0F9E8496064EE2463122A3C24FC
:102B230002F8A3E03400F988828983E5822402F560
:102B33000CE43583F50DE0F50BA3E0F50EEE24620E
:102B4300122A3C640170369061D0E0F8122A396091
:102B5300047C0480027C007480C398FA95E0FBE552
:102B63000B2CF8E43400F9E82402F8500109C3EA15
:102B730098EB99A2D265D0334003022A5F9006D91D
:102B8300E0604D9006DAE0F89006D9E0C398500C67
:102B930074026509703A9006DBE060348E828F839D
:102BA300A3A3A3A3E0851882851983122BE37402E0
:102BB300122373E8122BE39006D8E028F074021274
:102BC300238DAA18AB1979011209FE9006D9E4F0F6
:102BD300E508A2E092AF740412233D7F070224AFFD
:102BE300F0A3E4F09006D9E0F822000000852187E5
:102BF3008522C622C0E074EB1224EFA2AFE433F5C2
:102C030008C2AF759B00906182E0A2E05030E5916D
:102C1300A2E0502A7591FE740165217021122D8A5C
:102C2300120F1A122D781225BD1232387404122392
:102C33003DE9640170057901120F621228AA9061BF
:102C430082E0A2E5505DE591A2E550577591DF90D2
:102C5300037BE064076005E06408702F122D8A741B
:102C6300016521703E120F1A122D781225BD123202
:102C730038740412233DE9640170057901120F626F
:102C83007901EEFAEFFB122A448018E0640D701309
:102C930090039DE004F064287002E4F07A00E0F908
:102CA300121010906182E0A2E64003022D4DE591DF
:102CB300A2E64003022D4D7591BF90037BE06405AE
:102CC3007008120F02120F0E8003120F08752100F5
:102CD300120F80E990037CF07900120F62120C62EC
:102CE3007A017B0090037AE0F91214F0907803E004
:102CF3006442705690076BE014F0704EC2AF122D11
:102D03000400782AD0E0F618D0E0F6E59F5407F8DF
:102D13007005750DFF8003750D7FC4C0E07829E64B
:102D2300F50A08E6550DF50B740B780A122305D046
:102D3300E0250AF8906270E0A2E740F8E8C3339018
:102D43006272F0906270E0D2E0F0906181E0A2E301
:102D53005009E5E9A2E3500375E9F7A3E0A2E750C0
:102D630009E591A2E7500375917FE508A2E092AFD0
:102D73007F0802254E8E828F83E0F8A3E0C82416D5
:102D8300F582E438F583229003A9E0F875F00DA4E9
:102D9300C8AAF02AF974AB28FE740339FF22C0E0F5
:102DA300C0D0C082C083906183E0A2E05009E5BF38
:102DB300A2E0500375BFFEE0A2E15009E5BFA2E126
:102DC300500375BFFDE0A2E25009E5BFA2E2500344
:102DD30075BFFBE0A2E35009E5BFA2E3500375BF53
:102DE300F7E0A2E45009E5BFA2E4500375BFEFE0AA
:102DF300A2E55009E5BFA2E5500375BFDFE0A2E6F7
:102E03005009E5BFA2E6500375BFBFD083D082D07F
:102E1300D0D0E032C0E074F21224EFE5A7A2E6506E
:102E23000FE5A1A2E6500953A7BF75A1BF122E6BF0
:102E3300E5A7A2E5500CE5A1A2E5500653A7DF756F
:102E4300A1DFE5A7A2E15009E5A1A2E1500375A125
:102E5300FDE5A7A2E2500CE5A1A2E2500653A7FBB1
:102E630075A1FB7F0102254E74F71224037521011E
:102E730090037BE064067015120E7E8A828B83A317
:102E8300A3A3A3A3A3E0FAA3E0FB120EF0A2AFE473
:102E930033FED2AF900381E0640170187A207B0087
:102EA30090037AE0F912161C7A207B0090037AE0F3
:102EB300F91214F6906182E0D2E6F0900768E060C0
:102EC3002185C6228016900380E064017008E5C660
:102ED30054F84405F5C653BEFC122BF0740165216A
:102EE30060E4EEA2E092AF7F020224AF008E238F54
:102EF30024858228858327851882851983E0CEA3BC
:102F0300E0CF852882852783EBC9EAC8EDCBECCADD
:102F130075F010C3E833C8E933C9EA33CAEB33CBDE
:102F2300C3EA9EF526EB9FF525B35004AB25AA26ED
:102F3300EC33CCED33CDD5F0DAAE23AF242274E9F4
:102F430012240374FA122327EAFEEBFF8C0A8D0B7B
:102F5300120F26EAF8EBF9ECFAEDFB8E828F83125F
:102F6300222190037BE024F7C394055006751401D6
:102F73000230A8120E7E8A088B09EA450970030203
:102F830030A5EEFCEFFDAA18AB19120F20850882BD
:102F9300850983A3A3780C1221DF908241780C1258
:102FA30021B985188285198378101221DF90824117
:102FB30078101221B9780C79101217FB501F780C76
:102FC30079101221799081DD780C12181B40478506
:102FD3000C14850D15850E16850F1780459081DD20
:102FE3008510148511158512168513177814790C1D
:102FF300122179781412181B501C751400751500D2
:1030030075160075170178147910122179781479DF
:103013000C122140800C751401751500751600758E
:10302300170074097814122121908275780C1221EB
:10303300DF7814790C122085850882850983A3A380
:10304300A3A3A3A31230C612229C880C890DE4F516
:103053000EF50F7814790C122140740412237312A5
:1030630030C612229CE8FA8A0CE4F50D7814790C28
:103073001217FB50077814790C12217990037BE027
:103083006408600AE064066005E0640570209081CE
:10309300D5781412181B5016908269781412215394
:1030A300800C751400751500751600751700850AD8
:1030B30082850B8378141221EE740612233D7F1050
:1030C3000224AFE0F8A3E0F97AD07B032274F7126D
:1030D3002403120F38900766E06401701090624574
:1030E300E4F0A3F053F4F343FE0C5390F3120EDE1B
:1030F300E5C654B84441F5C6E59E5447644170F8AB
:10310300906185740FF0900764E0F47002A3E060AF
:103113004E900765E0600814601B14602E804075B4
:103123000801750900900764E07808122314E50884
:10313300F45280802A750801750900900764E078CD
:1031430008122314E508F4529080147508017509D8
:1031530000900764E07808122314E508F452A0797C
:10316300007F020224AF74F7122403E9FEEAFF1280
:103173000F3874016E700C7A807B0090037AE0F94B
:103183001214F09035D8E493F46008E493F9120C28
:1031930056800953C6B8E59E544770FA120EE49060
:1031A3000766E064017003120C7A900764E0F47020
:1031B30002A3E0604B900765E0600814601A146096
:1031C3002C803D750801750900900764E0780812AA
:1031D3002314E508428080287508017509009007CB
:1031E30064E07808122314E50842908013750801FF
:1031F300750900900764E07808122314E50842A0DB
:10320300120E7E8A088B09A808A909E8496014E50B
:10321300E170FCE82414F582E439F583E0F46003FB
:10322300E0F5E174016F700A7A0190037AE0F91214
:10323300158002316474F11224038A088B098C0A05
:103243008D0B90824178081221B9740F1223737881
:103253000C1221DF908241780C1221B97808790C85
:103263001217FB9081DD50107808790C12217978C0
:103273000812181B4014800E780C790812217978F3
:103283000C12181B50047901800279007F08022474
:10329300AF74ED1224038A088B098C0A8D0B90827C
:1032A3004178081221B97413122373780C1221DFA9
:1032B300908241780C1221B9780C79081217FB40DF
:1032C300117808790C122179AA08AB09AC0AAD0B65
:1032D30080227510007511007512007513017810A6
:1032E300790C12217978107908122140AA10AB11B8
:1032F300AC12AD137F0C0224AF90824178081221E7
:10330300DF8A828B8378081221CC7F040224AF7476
:10331300F51224038C828D8378081221DF8A828B35
:103323008378081221A512336AC3E09CF0A3E09DC1
:1033330012335C402290825578081221DF8A828BF7
:103343008378081221668A828B83A3A3A3A3E02434
:1033530020F0A3E0344EF080A0F088828983C3E09C
:103363009420A3E0944E22EA2404F8E43BF98C82EF
:103373008D83A3A3A3A3E0FCA3E0FD88828983221A
:1033830074F5122403E9FE9006F4E0FAA3E0FBEEE1
:1033930029F8E433F9744B28F582748139F583E015
:1033A3002AF508A3E03BF50978081225AA9082398B
:1033B3001221FD122EF0740212233D8A088B098C10
:1033C3000A8D0B74107808122108AA08AB097F0430
:1033D3000224AF74F11224038A0C8B0D8C0E8D0F13
:1033E30074111223731225C17411122373E0240183
:1033F300F508A3E03400F509E4F50AF50B780C7938
:10340300081220059081D978081221DF780C7908F9
:10341300122005AA0CAB0DAC0EAD0F122EF07402E8
:1034230012233D8B09EA450960047A0180027A0080
:10343300EC2AFCE43DFD7413122373E0F8A3E0F9D6
:10344300E8FEE9FFECF8EDF97A717B0212229C8821
:10345300088909E4F50AF50B8E828F837808122117
:10346300EEECF8EDF97A717B0212229C8A088B0943
:10347300740578081223148E828F83A3A3A3A3E574
:1034830008F0A3E509F07F080224AFC082C083E9F6
:10349300906000F0D083D08222C0E074F21224EF57
:1034A300A2AFE433FED2AFC2C0E5D1A2E4500675A9
:1034B300D10F121466751A00EEF8EEA2E092AF7FF8
:1034C3000102254EC0E074F21224EFA2AFE433FEF2
:1034D300D2AFE589A2E550031213BE758900C2C5B8
:1034E300751A00EEF8EEA2E092AF7F0102254EC0FE
:1034F300E0C0D0E8C0E0E9C0E0A2AFE433F8D2AF67
:10350300C2C7751A00E8F9E8A2E092AFD0E0F9D09B
:10351300E0F8D0D0D0E032C0E0C0D0E8C0E0E9C0ED
:10352300E0EAC0E0C082C083A2AFE433FAD2AF9036
:103533000FB9E0F8900FBAE068700B539AFB900F45
:10354300BB7401F0802CC2E9900FB9E0F874012834
:10355300900FB9F07900743928F582740F39F58327
:10356300E0F5C1900FB9E0C394804006900FB974A1
:1035730000F0EAF8EAA2E092AFD083D082D0E0FA7A
:10358300D0E0F9D0E0F8D0D0D0E032C2AF020000F2
:1035930022C0E074F21224EF75C000901798E06423
:1035A30001700512166A8025901798E06402700571
:1035B3001216768018901798E06403700512167C33
:1035C300800B901798E0640470031216707F010259
:1035D300254E020132FFFFFFFFFFFFFFFFC082C046
:1035E30083121640790712165212164CE9F8790025
:1035F30090174BE8F0A3E9F0D083D0820201327434
:10360300F61223979017467401F09017477401F050
:103613009017987401F09017487400F0901749744C
:1036230000F090177BE090174DF090174A7400F06C
:103633009017697400F090174E7401F090174F744F
:1036430001F090176A7400F09017687400F09017F7
:103653006B7400F075080D75090078081225AA7CB3
:10366300007D007A6C7B171217A2740212233D753A
:10367300080D75090078081225AA7C007D007A7967
:103683007B171217A2740212233D750808750900EF
:1036930078081225AA7C007D007A867B171217A270
:1036A300740212233D7F02022469C2AF75C9AB7550
:1036B300C95B80FEC082C083EAFCEBFD908030E0F2
:1036C300F8A3E0F9C3EC98ED99500579FF02375E52
:1036D300908058C3E09CA3E09D50079080BFE0F921
:1036E30080797A0080010AEAC39414506CEAF8796D
:1036F30000E875F002A4C8ABF075F000A42BFB75CD
:10370300F002E9A42BF9743028F582748039F5832B
:10371300E0F8A3E0F9C3EC98ED9940CAEAF8790020
:10372300E875F002A4C8ABF075F000A42BFB75F0AC
:1037330002E9A42BF9743228F582748039F583C326
:10374300E09CA3E09D409FEAF8790074AB28F582E2
:10375300748039F583E0F9800279EED083D0820258
:10376300013274F412239774EC12232789087E0024
:103773007F0075090080377A04A90812136AA80923
:103783007900E875F002A4C8ACF075F000A42CFC35
:1037930075F002E9A42CF9851882851983E582283E
:1037A300F582E58339F583EAF0A3EBF00509E50932
:1037B300C3940A40C27509000238F0ECF87900E8B6
:1037C30075F002A4C8AAF075F000A42AFA75F002F5
:1037D300E9A42AF9851882851983E58228F582E50B
:1037E3008339F583C082C083A8097900E875F002A4
:1037F300A4C8AAF075F000A42AFA75F002E9A42A75
:10380300F9851882851983E58228F582E58339F5E0
:1038130083E0F8A3E0F9D083D082C3E098A3E099D2
:1038230040030238E4A8097900E875F002A4C8AAA5
:10383300F075F000A42AFA75F002E9A42AF98518B4
:1038430082851983E58228F582E58339F583E0FAD9
:10385300A3E0FBECF87900E875F002A4C8ADF075BD
:10386300F000A42DFD75F002E9A42DF985188285D9
:103873001983E58228F582E58339F583E0F50AA308
:10388300E0F50BA8097900E875F002A4C8ADF0755E
:10389300F000A42DFD75F002E9A42DF985188285A9
:1038A3001983E58228F582E58339F583E50AF0A3D8
:1038B300E50BF0ECF87900E875F002A4C8ADF075FB
:1038C300F000A42DFD75F002E9A42DF98518828579
:1038D3001983E58228F582E58339F583EAF0A3EBC2
:1038E300F00CECC3940A50030237BE0509E509C383
:1038F3009409500774012509FC80E7750902803299
:10390300A8097900E875F002A4C8AAF075F000A42C
:103913002AFA75F002E9A42AF9851882851983E544
:103923008228F582E58339F583E02EFEA3E03FFF8D
:103933000509E509C3940840C7EEF8EFF97A067B59
:103943000012229C880A890BAA0AAB0B7414122357
:103953003D7F04022469C082C08343F380A8F475C9
:10396300F40043FD5B53FD5B438FA053FEF643F628
:103973000143FE0443F31053F3F753F1BFC283C271
:103983008490178E7400F0A37400F0901790740065
:10399300F0A37400F09017927400F0A37400F090F9
:1039A30017967400F0A37400F09017947400F0A3BA
:1039B3007400F0D083D08202013243F10343E40860
:1039C30043E72C75DA0E75DB0075DE0475DF0075D1
:1039D300CBE675CC5475CD1975B80875A880D2AFF0
:1039E30043CB1002013274F41223978A088B09EC3B
:1039F300FEEDFF9017A2E02401F0A3E03400F07481
:103A03000C122373C082C0839017A2E0F8A3E0F9DD
:103A1300D083D082C3E098A3E0994003023B39EE00
:103A23004F70119017A4E02401F0A3E03400F07963
:103A330000023B3BEEF8EFF97A0F7B0012229CE881
:103A43009017A1F09017A1E0F50A750B00E5088522
:103A53000AF0A4C508A8F0850BF0A428F8850AF09D
:103A6300E509A428F50990179BE508F0A3E509F0FB
:103A730090179DE02401F0A3E03400F090179DC05F
:103A830082C08390179BE0F8A3E0F9D083D082C370
:103A9300E098A3E099500643E40B43F31090179B7F
:103AA300E0F8A3E0F990179DE0687003A3E0697064
:103AB3005943E40853F3EFC2847A047B001213D60C
:103AC30090179FE0F8A3E0F9E8497017D2807ADCF9
:103AD3007B001213D6C28090179F7401F0A3740069
:103AE300F08015D2817ADC7B001213D6C281901745
:103AF3009F7400F0A37400F07A0F7B001213D6D2E8
:103B0300837A087B001213D6C28390179DE06E70F0
:103B130003A3E06F702090179D7400F0A37400F06E
:103B23009017A27400F0A37400F09017A4E024018E
:103B3300F0A3E03400F079007F0402246974F612E4
:103B430023979017A6E01225EE0021D742943BCB92
:103B53003B023C393C703CA73CDD3C133D4A3D8174
:103B63003DB83DEF3D263E5D3E933EC93E003F37A7
:103B73003F6E3FA53FDC3F134049407F40B640EDD9
:103B83004024415B419241C941FF4135426B42A10F
:103B93004275082075090378081225AA7CF47D0173
:103BA300901799E0FAA3E0FB121664740212233D06
:103BB300E99017A4E0640A7004A3E064007006901F
:103BC30017A67401F00242E77508F4750901780835
:103BD3001225AA7CF47D01901799E0FAA3E0FB1269
:103BE3001664740212233DE99017A4E0641970046B
:103BF300A3E0640070069017A67402F00242E77512
:103C030008FA75090078081225AA7CF47D0190173B
:103C130099E0FAA3E0FB121664740212233DE990C3
:103C230017A4E064287004A3E0640070069017A64C
:103C33007403F00242E775086475090078081225D9
:103C4300AA7CF47D01901799E0FAA3E0FB121664B5
:103C5300740212233DE99017A4E0643C7004A3E0CE
:103C6300640070069017A67404F00242E7750832E8
:103C730075090078081225AA7CF47D01901799E054
:103C8300FAA3E0FB121664740212233DE99017A411
:103C9300E064507004A3E0640070069017A67405F6
:103CA300F00242E7E4F508F50978081225AA7CF446
:103CB3007D01901799E0FAA3E0FB121664740212D7
:103CC300233DE99017A4E064647004A3E0640070EA
:103CD300069017A67406F00242E7E4F508F50978A2
:103CE300081225AA7C2C7D01901799E0FAA3E0FB2A
:103CF300121664740212233DE99017A4E0648270E3
:103D030004A3E0640070069017A67407F00242E76C
:103D13007508B875090B78081225AA7C007D0090F8
:103D23001799E0FAA3E0FB121664740212233DE92B
:103D33009017A4E064837004A3E0640070069017F6
:103D4300A67408F00242E775082075090378081283
:103D530025AA7CF47D01901799E0FAA3E0FB1216E3
:103D630064740212233DE99017A4E0648D7004A3E8
:103D7300E0640070069017A67409F00242E7750824
:103D8300F475090178081225AA7CF47D019017992E
:103D9300E0FAA3E0FB121664740212233DE99017C4
:103DA300A4E0649C7004A3E0640070069017A674FA
:103DB3000AF00242E77508FA75090078081225AA85
:103DC3007CF47D01901799E0FAA3E0FB121664746A
:103DD3000212233DE99017A4E064AB7004A3E064EE
:103DE3000070069017A6740BF00242E7750864751D
:103DF300090078081225AA7CF47D01901799E0FA4E
:103E0300A3E0FB121664740212233DE99017A4E0A9
:103E130064BF7004A3E0640070069017A6740CF0EE
:103E23000242E775083275090078081225AA7CF466
:103E33007D01901799E0FAA3E0FB12166474021255
:103E4300233DE99017A4E064D37004A3E0640070F9
:103E5300069017A6740DF00242E7E4F508F5097819
:103E6300081225AA7CF47D01901799E0FAA3E0FBE0
:103E7300121664740212233DE99017A4E064E770FC
:103E830004A3E0640070069017A6740EF00242E7E4
:103E9300E4F508F50978081225AA7C2C7D01901712
:103EA30099E0FAA3E0FB121664740212233DE99031
:103EB30017A4E064057004A3E0640170069017A6DC
:103EC300740FF00242E77508B875090B78081225DC
:103ED300AA7C007D00901799E0FAA3E0FB12166418
:103EE300740212233DE99017A4E064067004A3E072
:103EF300640170069017A67410F00242E77508205B
:103F030075090378081225AA7CF47D01901799E0BE
:103F1300FAA3E0FB121664740212233DE99017A47E
:103F2300E064107004A3E0640170069017A6741196
:103F3300F00242E77508F475090178081225AA7C96
:103F4300F47D01901799E0FAA3E0FB121664740262
:103F530012233DE99017A4E0641F7004A3E06401F9
:103F630070069017A67412F00242E77508FA7509F5
:103F73000078081225AA7CF47D01901799E0FAA332
:103F8300E0FB121664740212233DE99017A4E06467
:103F93002E7004A3E0640170069017A67413F00258
:103FA30042E775086475090078081225AA7CF47D38
:103FB30001901799E0FAA3E0FB121664740212232E
:103FC3003DE99017A4E064427004A3E06401700625
:103FD3009017A67414F00242E77508327509007849
:103FE300081225AA7CF47D01901799E0FAA3E0FB5F
:103FF300121664740212233DE99017A4E06456700C
:1040030004A3E0640170069017A67415F00242E75A
:10401300E4F508F50978081225AA7CF47D019017C8
:1040230099E0FAA3E0FB121664740212233DE990AF
:1040330017A4E0646A7004A3E0640170069017A6F5
:104043007416F00242E7E4F508F50978081225AA88
:104053007C2C7D01901799E0FAA3E0FB121664749F
:104063000212233DE99017A4E064887004A3E0647E
:104073000170069017A67417F00242E77508B87529
:10408300090B78081225AA7C007D00901799E0FAA5
:10409300A3E0FB121664740212233DE99017A4E017
:1040A30064897004A3E0640170069017A67418F085
:1040B3000242E775082075090378081225AA7CF4E3
:1040C3007D01901799E0FAA3E0FB121664740212C3
:1040D300233DE99017A4E064937004A3E0640170A6
:1040E300069017A67419F00242E77508F4750901E2
:1040F30078081225AA7CF47D01901799E0FAA3E0D1
:10410300FB121664740212233DE99017A4E064A223
:104113007004A3E0640170069017A6741AF00242BB
:10412300E77508FA75090078081225AA7CF47D0161
:10413300901799E0FAA3E0FB121664740212233D70
:10414300E99017A4E064B17004A3E06401700690E1
:1041530017A6741BF00242E7750864750900780816
:104163001225AA7CF47D01901799E0FAA3E0FB12D3
:104173001664740212233DE99017A4E064C5700429
:10418300A3E0640170069017A6741CF00242E77561
:10419300083275090078081225AA7CF47D0190176E
:1041A30099E0FAA3E0FB121664740212233DE9902E
:1041B30017A4E064D97004A3E0640170069017A605
:1041C300741DF00242E7E4F508F50978081225AA00
:1041D3007CF47D01901799E0FAA3E0FB1216647456
:1041E3000212233DE99017A4E064ED7004A3E06498
:1041F3000170069017A6741EF00242E7E4F508F575
:104203000978081225AA7C2C7D01901799E0FAA35E
:10421300E0FB121664740212233DE99017A4E064D4
:104223000B7004A3E0640270069017A6741FF002DB
:1042330042E77508B875090B78081225AA7C007D3A
:1042430000901799E0FAA3E0FB121664740212239C
:104253003DE99017A4E0640C7004A3E064027006C7
:104263009017A67420F0807C7508F475090178080E
:104273001225AA7CD07D07901799E0FAA3E0FB12E0
:104283001664740212233DE99017A4E0642A7004B3
:10429300A3E06402704E9017A67421F0804675085F
:1042A300A075090F78081225AA7C007D0090179944
:1042B300E0FAA3E0FB121664740212233DE990179F
:1042C300A4E0642B7004A3E0640270189017A67432
:1042D30022F080109017A67400F09017A47400F0D9
:1042E300A37400F07F0202246974F61223979017D7
:1042F300A6E01225EE002F9D4D5C439343CA430174
:104303004438446F44A544DC4413454A458145B8C9
:1043130045EF4525465C469346CA46004737476EF8
:1043230047A547DC47134849488048B648ED48232A
:10433300495A499149C849FE49354A6B4AA24AD864
:104343004A0F4B464B7D4BB44BEB4B214C584C8E99
:104353004CC54CFB4C314D674D75082075090378EE
:10436300081225AA7CF47D01901799E0FAA3E0FBDB
:10437300121664740212233DE99017A4E0641070CE
:1043830004A3E0640070069017A67401F0024DAD1B
:1043930075085875090278081225AA7CF47D0190E6
:1043A3001799E0FAA3E0FB121664740212233DE9A5
:1043B3009017A4E064247004A3E0640070069017CF
:1043C300A67402F0024DAD7508C87509007808128D
:1043D30025AA7CF47D01901799E0FAA3E0FB12165D
:1043E30064740212233DE99017A4E0643C7004A3B3
:1043F300E0640070069017A67403F0024DAD7508D3
:104403003275090078081225AA7CF47D019017996A
:10441300E0FAA3E0FB121664740212233DE990173D
:10442300A4E064507004A3E0640070069017A674BF
:1044330004F0024DAD75081475090078081225AA19
:104443007CF47D01901799E0FAA3E0FB12166474E3
:104453000212233DE99017A4E0645F7004A3E064B3
:104463000070069017A67405F0024DADE4F508F54B
:104473000978081225AA7CF47D01901799E0FAA324
:10448300E0FB121664740212233DE99017A4E06462
:104493006E7004A3E0640070069017A67406F00221
:1044A3004DAD7508D075090778081225AA7C007DE3
:1044B30000901799E0FAA3E0FB121664740212232A
:1044C3003DE99017A4E0646F7004A3E064007006F4
:1044D3009017A67407F0024DAD750820750903788F
:1044E300081225AA7CF47D01901799E0FAA3E0FB5A
:1044F300121664740212233DE99017A4E0647F70DE
:1045030004A3E0640070069017A67408F0024DAD92
:1045130075085875090278081225AA7CF47D019064
:104523001799E0FAA3E0FB121664740212233DE923
:104533009017A4E064937004A3E0640070069017DE
:10454300A67409F0024DAD7508C875090078081204
:1045530025AA7CF47D01901799E0FAA3E0FB1216DB
:1045630064740212233DE99017A4E064A77004A3C6
:10457300E0640070069017A6740AF0024DAD75084A
:104583003275090078081225AA7CF47D01901799E9
:10459300E0FAA3E0FB121664740212233DE99017BC
:1045A300A4E064BB7004A3E0640070069017A674D3
:1045B3000BF0024DAD75081475090078081225AA91
:1045C3007CF47D01901799E0FAA3E0FB1216647462
:1045D3000212233DE99017A4E064C87004A3E064C9
:1045E3000070069017A6740CF0024DADE4F508F5C3
:1045F3000978081225AA7CF47D01901799E0FAA3A3
:10460300E0FB121664740212233DE99017A4E064E0
:10461300D77004A3E0640070069017A6740DF0022F
:104623004DAD7508D075090778081225AA7C007D61
:1046330000901799E0FAA3E0FB12166474021223A8
:104643003DE99017A4E064D87004A3E06400700609
:104653009017A6740EF0024DAD7508E8750903783E
:10466300081225AA7CF47D01901799E0FAA3E0FBD8
:10467300121664740212233DE99017A4E064E670F5
:1046830004A3E0640070069017A6740FF0024DAD0A
:104693007508C875090078081225AA7CF47D019075
:1046A3001799E0FAA3E0FB121664740212233DE9A2
:1046B3009017A4E064FA7004A3E0640070069017F6
:1046C300A67410F0024DADE4F508F509780812253B
:1046D300AA7CF47D01901799E0FAA3E0FB1216641B
:1046E300740212233DE99017A4E064187004A3E058
:1046F300640170069017A67411F0024DAD7508D0D1
:1047030075090778081225AA7C007D00901799E0A7
:10471300FAA3E0FB121664740212233DE99017A476
:10472300E064197004A3E0640170069017A6741284
:10473300F0024DAD7508F475090178081225AA7CBD
:10474300F47D01901799E0FAA3E0FB12166474025A
:1047530012233DE99017A4E0642C7004A3E06401E4
:1047630070069017A67413F0024DAD7508D0750945
:104773000778081225AA7C007D00901799E0FAA318
:10478300E0FB121664740212233DE99017A4E0645F
:104793002D7004A3E0640170069017A67414F00250
:1047A3004DAD7508FA75090078081225AA7CF47DC9
:1047B30001901799E0FAA3E0FB1216647402122326
:1047C3003DE99017A4E064407004A3E0640170061F
:1047D3009017A67415F0024DAD7508D075090778CA
:1047E300081225AA7C007D00901799E0FAA3E0FB4C
:1047F300121664740212233DE99017A4E064417019
:1048030004A3E0640170069017A67416F0024DAD80
:10481300E4F508F50978081225AA7CF47D019017C0
:1048230099E0FAA3E0FB121664740212233DE990A7
:1048330017A4E064547004A3E0640170069017A603
:104843007417F0024DAD7508B875090B7808122579
:10485300AA7C007D00901799E0FAA3E0FB1216648E
:10486300740212233DE99017A4E064557004A3E099
:10487300640170069017A67418F0024DADE4F508B4
:10488300F50978081225AA7C2C7D01901799E0FA86
:10489300A3E0FB121664740212233DE99017A4E00F
:1048A300647C7004A3E0640170069017A67419F089
:1048B300024DAD7508D075090778081225AA7C004A
:1048C3007D00901799E0FAA3E0FB121664740212BC
:1048D300233DE99017A4E0647D7004A3E0640170B4
:1048E300069017A6741AF0024DADE4F508F50978A1
:1048F300081225AA7CFA7D00901799E0FAA3E0FB41
:10490300121664740212233DE99017A4E064C27086
:1049130004A3E0640170069017A6741BF0024DAD6A
:104923007508D075090778081225AA7C007D0090C8
:104933001799E0FAA3E0FB121664740212233DE90F
:104943009017A4E064C37004A3E064017006901799
:10495300A6741CF0024DAD7508F4750901780812B0
:1049630025AA7CE87D03901799E0FAA3E0FB1216D1
:1049730064740212233DE99017A4E064D67004A383
:10498300E0640170069017A6741DF0024DAD750822
:10499300D075090778081225AA7C007D0090179925
:1049A300E0FAA3E0FB121664740212233DE99017A8
:1049B300A4E064D77004A3E0640170069017A674A2
:1049C3001EF0024DADE4F508F50978081225AA7C1E
:1049D300E87D03901799E0FAA3E0FB1216647402D2
:1049E30012233DE99017A4E064EA7004A3E0640194
:1049F30070069017A6741FF0024DAD7508D07509A7
:104A03000778081225AA7C007D00901799E0FAA385
:104A1300E0FB121664740212233DE99017A4E064CC
:104A2300EB7004A3E0640170069017A67420F002F3
:104A33004DADE4F508F50978081225AA7CF47D014B
:104A4300901799E0FAA3E0FB121664740212233D57
:104A5300E99017A4E064FE7004A3E064017006907B
:104A630017A67421F0024DAD7508D07509077808B3
:104A73001225AA7C007D00901799E0FAA3E0FB12AF
:104A83001664740212233DE99017A4E064FF7004D6
:104A9300A3E0640170069017A67422F0024DADE402
:104AA300F508F50978081225AA7C907D01901799DD
:104AB300E0FAA3E0FB121664740212233DE9901797
:104AC300A4E0641C7004A3E0640270069017A6744B
:104AD30023F0024DAD7508D075090778081225AA91
:104AE3007C007D00901799E0FAA3E0FB1216647432
:104AF3000212233DE99017A4E0641D7004A3E0644F
:104B03000270069017A67424F0024DAD7508F47573
:104B1300090178081225AA7CF47D01901799E0FA1F
:104B2300A3E0FB121664740212233DE99017A4E07C
:104B330064307004A3E0640270069017A67425F035
:104B4300024DAD7508D075090778081225AA7C00B7
:104B53007D00901799E0FAA3E0FB12166474021229
:104B6300233DE99017A4E064317004A3E06402706C
:104B7300069017A67426F0024DAD7508F475090169
:104B830078081225AA7CE87D03901799E0FAA3E040
:104B9300FB121664740212233DE99017A4E0643EED
:104BA3007004A3E0640270069017A67427F0024D08
:104BB300AD7508D075090778081225AA7C007D0019
:104BC300901799E0FAA3E0FB121664740212233DD6
:104BD300E99017A4E0643F7004A3E06402700690B8
:104BE30017A67428F0024DADE4F508F5097808120C
:104BF30025AA7CE87D03901799E0FAA3E0FB12163F
:104C030064740212233DE99017A4E0644E7004A378
:104C1300E0640270069017A67429F0024DAD750882
:104C2300D075090778081225AA7C007D0090179992
:104C3300E0FAA3E0FB121664740212233DE9901715
:104C4300A4E0644F7004A3E0640270069017A67496
:104C53002AF0024DADE4F508F50978081225AA7C7F
:104C6300907D01901799E0FAA3E0FB121664740299
:104C730012233DE99017A4E064627004A3E0640288
:104C830070069017A6742BF0024DAD7508D0750908
:104C93000778081225AA7C007D00901799E0FAA3F3
:104CA300E0FB121664740212233DE99017A4E0643A
:104CB300637004A3E0640270069017A6742CF002DC
:104CC3004DADE4F508F50978081225AA7CFC7D08AA
:104CD300901799E0FAA3E0FB121664740212233DC5
:104CE300E99017A4E0648A7004A3E064027006905C
:104CF30017A6742DF0024DAD7508D0750907780815
:104D03001225AA7C007D00901799E0FAA3E0FB121C
:104D13001664740212233DE99017A4E0648B7004B7
:104D2300A3E0640270069017A6742EF0807C7508C9
:104D3300F475090178081225AA7CD07D079017998C
:104D4300E0FAA3E0FB121664740212233DE9901704
:104D5300A4E064997004A3E06402704E9017A674F3
:104D63002FF0804675088875091378081225AA7CE8
:104D7300007D00901799E0FAA3E0FB121664740219
:104D830012233DE99017A4E0649A7004A3E064023F
:104D930070189017A67430F080109017A67400F066
:104DA3009017A47400F0A37400F07F0202246974C6
:104DB300F61223979017A6E01225EE00279E5612AF
:104DC3004E494E804EB64EED4E244F5B4F924FC927
:104DD3004FFF4F36506D50A450DB50125149518054
:104DE30051B651ED5123525A529152C852FF523685
:104DF300536C53A353D953105446547D54B354EABC
:104E030054205557558D55C455FA55335668567524
:104E130008E875090378081225AA7CE87D03901732
:104E230099E0FAA3E0FB121664740212233DE990A1
:104E330017A4E0640A7004A3E0640070069017A648
:104E43007401F00256AE7508D0750907780812256B
:104E5300AA7C007D00901799E0FAA3E0FB12166488
:104E6300740212233DE99017A4E0640B7004A3E0DD
:104E7300640070069017A67402F00256AEE4F508BB
:104E8300F50978081225AA7CE87D03901799E0FAC2
:104E9300A3E0FB121664740212233DE99017A4E009
:104EA30064157004A3E0640070069017A67403F001
:104EB3000256AE7508D075090778081225AA7C003A
:104EC3007D00901799E0FAA3E0FB121664740212B6
:104ED300233DE99017A4E064167004A3E064007016
:104EE300069017A67404F00256AE7508F47509010E
:104EF30078081225AA7CF47D01901799E0FAA3E0C3
:104F0300FB121664740212233DE99017A4E0642097
:104F13007004A3E0640070069017A67405F00256AF
:104F2300AE7508D075090778081225AA7C007D00A4
:104F3300901799E0FAA3E0FB121664740212233D62
:104F4300E99017A4E064217004A3E0640070069064
:104F530017A67406F00256AE7508FA7509007808AC
:104F63001225AA7CF47D01901799E0FAA3E0FB12C5
:104F73001664740212233DE99017A4E0642B7004B5
:104F8300A3E0640070069017A67407F00256AE758E
:104F930008D075090778081225AA7C007D009017B0
:104FA30099E0FAA3E0FB121664740212233DE99020
:104FB30017A4E0642C7004A3E0640070069017A6A5
:104FC3007408F00256AEE4F508F50978081225AA2C
:104FD3007CF47D01901799E0FAA3E0FB1216647448
:104FE3000212233DE99017A4E0643B7004A3E0643C
:104FF3000070069017A67409F00256AE7508D075B6
:10500300090778081225AA7C007D00901799E0FA19
:10501300A3E0FB121664740212233DE99017A4E087
:10502300643C7004A3E0640070069017A6740AF051
:105033000256AE75089075090178081225AA7C906E
:105043007D01901799E0FAA3E0FB12166474021233
:10505300233DE99017A4E064507004A3E06400705A
:10506300069017A6740BF00256AE7508D0750907A3
:1050730078081225AA7C007D00901799E0FAA3E036
:10508300FB121664740212233DE99017A4E06451E5
:105093007004A3E0640070069017A6740CF0025627
:1050A300AE7508F475090178081225AA7CE87D031A
:1050B300901799E0FAA3E0FB121664740212233DE1
:1050C300E99017A4E0645B7004A3E06400700690A9
:1050D30017A6740DF00256AE7508D0750907780847
:1050E3001225AA7C007D00901799E0FAA3E0FB1239
:1050F3001664740212233DE99017A4E0645C700403
:10510300A3E0640070069017A6740EF00256AE7505
:1051130008F475090178081225AA7CF47D0190171B
:1051230099E0FAA3E0FB121664740212233DE9909E
:1051330017A4E0646B7004A3E0640070069017A6E4
:10514300740FF00256AE7508D0750907780812255A
:10515300AA7C007D00901799E0FAA3E0FB12166485
:10516300740212233DE99017A4E0646C7004A3E079
:10517300640070069017A67410F00256AEE4F508AA
:10518300F50978081225AA7CF47D01901799E0FAB5
:10519300A3E0FB121664740212233DE99017A4E006
:1051A30064807004A3E0640070069017A67411F085
:1051B3000256AE7508D075090778081225AA7C0037
:1051C3007D00901799E0FAA3E0FB121664740212B3
:1051D300233DE99017A4E064817004A3E0640070A8
:1051E300069017A67412F00256AEE4F508F5097896
:1051F300081225AA7C907D01901799E0FAA3E0FBA1
:10520300121664740212233DE99017A4E0649670A9
:1052130004A3E0640070069017A67413F00256AE60
:105223007508D075090778081225AA7C007D0090BF
:105233001799E0FAA3E0FB121664740212233DE906
:105243009017A4E064977004A3E0640070069017BD
:10525300A67414F00256AE7508F4750901780812A5
:1052630025AA7CE87D03901799E0FAA3E0FB1216C8
:1052730064740212233DE99017A4E064A17004A3AF
:10528300E0640070069017A67415F00256AE750818
:10529300D075090778081225AA7C007D009017991C
:1052A300E0FAA3E0FB121664740212233DE990179F
:1052B300A4E064A27004A3E0640070069017A674CF
:1052C30016F00256AE7508F475090178081225AA7E
:1052D3007CF47D01901799E0FAA3E0FB1216647445
:1052E3000212233DE99017A4E064B17004A3E064C3
:1052F3000070069017A67417F00256AE7508D075A5
:10530300090778081225AA7C007D00901799E0FA16
:10531300A3E0FB121664740212233DE99017A4E084
:1053230064B27004A3E0640070069017A67418F0CA
:105333000256AEE4F508F50978081225AA7CF47D37
:1053430001901799E0FAA3E0FB121664740212238A
:105353003DE99017A4E064C67004A3E064007006FE
:105363009017A67419F00256AE7508D07509077820
:10537300081225AA7C007D00901799E0FAA3E0FBB0
:10538300121664740212233DE99017A4E064C770F7
:1053930004A3E0640070069017A6741AF00256AED8
:1053A300E4F508F50978081225AA7C907D01901789
:1053B30099E0FAA3E0FB121664740212233DE9900C
:1053C30017A4E064DC7004A3E0640070069017A6E1
:1053D300741BF00256AE7508D075090778081225BC
:1053E300AA7C007D00901799E0FAA3E0FB121664F3
:1053F300740212233DE99017A4E064DD7004A3E076
:10540300640070069017A6741CF00256AEE4F5080B
:10541300F50978081225AA7CD07D07901799E0FA40
:10542300A3E0FB121664740212233DE99017A4E073
:1054330064F17004A3E0640070069017A6741DF075
:105443000256AE7508D075090778081225AA7C00A4
:105453007D00901799E0FAA3E0FB12166474021220
:10546300233DE99017A4E064F27004A3E0640070A4
:10547300069017A6741EF00256AEE4F508F50978F7
:10548300081225AA7CE87D03901799E0FAA3E0FBB4
:10549300121664740212233DE99017A4E06410709D
:1054A30004A3E0640170069017A6741FF00256AEC1
:1054B3007508D075090778081225AA7C007D00902D
:1054C3001799E0FAA3E0FB121664740212233DE974
:1054D3009017A4E064117004A3E0640170069017B0
:1054E300A67420F00256AEE4F508F50978081225F3
:1054F300AA7C907D01901799E0FAA3E0FB12166451
:10550300740212233DE99017A4E0642C7004A3E015
:10551300640170069017A67421F00256AE7508D088
:1055230075090778081225AA7C007D00901799E079
:10553300FAA3E0FB121664740212233DE99017A448
:10554300E0642D7004A3E0640170069017A6742232
:10555300F00256AEE4F508F50978081225AA7C2C6A
:105563007D01901799E0FAA3E0FB1216647402120E
:10557300233DE99017A4E0644A7004A3E06401703A
:10558300069017A67423F00256AE7508D075090766
:1055930078081225AA7C007D00901799E0FAA3E011
:1055A300FB121664740212233DE99017A4E0644BC6
:1055B3007004A3E0640170069017A67424F00256E9
:1055C300AEE4F508F50978081225AA7CD07D07908A
:1055D3001799E0FAA3E0FB121664740212233DE963
:1055E3009017A4E0645F7004A3E064017006901751
:1055F300A67425F00256AE7508D07509077808120F
:1056030025AA7C007D00901799E0FAA3E0FB12160F
:1056130064740212233DE99017A4E064607004A34C
:10562300E0640160030256AE9017A67426F0807BF7
:10563300E4F508F50978081225AA7CE87D0390179C
:1056430099E0FAA3E0FB121664740212233DE99079
:1056530017A4E0647E7004A3E06401704E9017A663
:105663007427F080467508D075090778081225AAB3
:105673007C007D00901799E0FAA3E0FB1216647496
:105683000212233DE99017A4E0647F7004A3E06451
:105693000170189017A67428F080109017A6740054
:1056A300F09017A47400F0A37400F07F0202246941
:1056B30074F61223979017A6E01225EE0027A15F38
:1056C30013574A578157B857EF5726585D58945880
:1056D300CB58025939597059A759DE59155A4C5AA2
:1056E300835AB95AF05A265B5D5B935BCA5B015CD4
:1056F300385C6F5CA65CDD5C145D4B5D825DB85D00
:10570300EF5D255E5C5E925EC95EFF5E355F6B5F3B
:105713007508E875090378081225AA7CE87D0390CB
:105723001799E0FAA3E0FB121664740212233DE911
:105733009017A4E0640A7004A3E064007006901755
:10574300A67401F0025FB17508D0750907780812D5
:1057530025AA7C007D00901799E0FAA3E0FB1216BE
:1057630064740212233DE99017A4E0640B7004A350
:10577300E0640070069017A67402F0025FB175082A
:105783002075090378081225AA7CE87D03901799F0
:10579300E0FAA3E0FB121664740212233DE99017AA
:1057A300A4E064157004A3E0640070069017A67467
:1057B30003F0025FB17508D075090778081225AAAE
:1057C3007C007D00901799E0FAA3E0FB1216647445
:1057D3000212233DE99017A4E064167004A3E06469
:1057E3000070069017A67404F0025FB17508F47593
:1057F300090178081225AA7CF47D01901799E0FA33
:10580300A3E0FB121664740212233DE99017A4E08F
:1058130064207004A3E0640070069017A67405F07A
:10582300025FB17508D075090778081225AA7C00B4
:105833007D00901799E0FAA3E0FB1216647402123C
:10584300233DE99017A4E064217004A3E064007091
:10585300069017A67406F0025FB17508E875090390
:1058630078081225AA7CE87D03901799E0FAA3E053
:10587300FB121664740212233DE99017A4E0642B13
:105883007004A3E0640070069017A67407F0025F2B
:10589300B17508D075090778081225AA7C007D0028
:1058A300901799E0FAA3E0FB121664740212233DE9
:1058B300E99017A4E0642C7004A3E06400700690E0
:1058C30017A67408F0025FB17508207509037808FC
:1058D3001225AA7CE87D03901799E0FAA3E0FB1256
:1058E3001664740212233DE99017A4E0643B70042C
:1058F300A3E0640070069017A67409F0025FB17507
:1059030008D075090778081225AA7C007D00901736
:1059130099E0FAA3E0FB121664740212233DE990A6
:1059230017A4E0643C7004A3E0640070069017A61B
:10593300740AF0025FB17508F4750901780812253D
:10594300AA7CF47D01901799E0FAA3E0FB12166498
:10595300740212233DE99017A4E064507004A3E09D
:10596300640070069017A6740BF0025FB17508D03F
:1059730075090778081225AA7C007D00901799E025
:10598300FAA3E0FB121664740212233DE99017A4F4
:10599300E064517004A3E0640070069017A6740CD1
:1059A300F0025FB175082C75090178081225AA7CED
:1059B3002C7D01901799E0FAA3E0FB1216647402A0
:1059C30012233DE99017A4E0645B7004A3E0640034
:1059D30070069017A6740DF0025FB17508D07509B3
:1059E3000778081225AA7C007D00901799E0FAA396
:1059F300E0FB121664740212233DE99017A4E064DD
:105A03005C7004A3E0640070069017A6740EF002A5
:105A13005FB17508F475090178081225AA7CF47D35
:105A230001901799E0FAA3E0FB12166474021223A3
:105A33003DE99017A4E0646B7004A3E06400700672
:105A43009017A6740FF0025FB17508D07509077837
:105A5300081225AA7C007D00901799E0FAA3E0FBC9
:105A6300121664740212233DE99017A4E0646C706B
:105A730004A3E0640070069017A67410F0025FB1EF
:105A8300E4F508F50978081225AA7CF47D0190173E
:105A930099E0FAA3E0FB121664740212233DE99025
:105AA30017A4E064807004A3E0640070069017A656
:105AB3007411F0025FB17508D075090778081225D3
:105AC300AA7C007D00901799E0FAA3E0FB1216640C
:105AD300740212233DE99017A4E064817004A3E0EB
:105AE300640070069017A67412F0025FB1E4F50823
:105AF300F50978081225AA7CE87D03901799E0FA46
:105B0300A3E0FB121664740212233DE99017A4E08C
:105B130064967004A3E0640070069017A67413F0F3
:105B2300025FB17508D075090778081225AA7C00B1
