:020000040000FA
:0600000002011A022D5955
:03002B000234AAF2
:03003B000234D2BA
:0300430002345430
:03005300022DCFAC
:03005B0002354C1F
:03006B0002347FDD
:10008300022BAFE5C754F84401F5C77901220000FC
:100093000080FB120086B90003020104E479217891
:1000A30008B800028004F709D8FCE479297802B87B
:1000B30000028004F709D8FCE490028178F07916F5
:1000C3008002F0A3D8FCD9FA781A90014A7A01BACF
:1000D30000028007E493A3F608DAF97A707B18909C
:1000E300014B78DE79038015E493A3AD82AE838A56
:1000F300828B83F0A3AA82AB838D828E83D8E9D9C6
:10010300E77582CD7583DA740412012C75829175BB
:100113008300740012012C75D00075813F7518811E
:10012300751902759F00020096C09FF59FE473D076
:100133009F22D083D082C09FE493C0E0740193C018
:10014300E0740293F59F220130053C056C056605BA
:10015300FF0000B4000028002800283075A000A08C
:1001630000A000A00000080008E001F0001000104B
:10017300001000100010001000500050005000103C
:10018300001000D0070000000000000F0001000570
:1001930000307507001000010081FF00000000FF20
:1001A300FFFFA406C206AA06E606FF020202080231
:1001B3005000A0000000E80302A5820100009A821B
:1001C30002A182010000D318028E81010000C40243
:1001D30002A182010000D41802A382010000DA0206
:1001E30002A182010000D51802AB82010000DC02EB
:1001F30002A182010000D61802B182080000DD02CC
:1002030002A182010000D71802CB82010000D81896
:10021300FF0100FF2002A582010000948202A18257
:100223000100003C1902C9820000000000029D8207
:100233000300000B031700000E000E000E000E005B
:100243000E000E000E000E000E000E000E000E003B
:100253000E2810461022106C117E11661102020244
:10026300020202020202010D000000100102A58237
:10027300010000978202A182010000851902C18258
:10028300010000180D02A182010000861902BF823D
:10029300010000778102A182010000871902BD825B
:1002A300010000698102A182010000881902BB825A
:1002B300010000E48002A182010000891902B982D1
:1002C300010000F68002A1820100008A1902B782B0
:1002D300010000088102A1820100008B1902B5828E
:1002E300010000C08002A1820100008C1902AF82CC
:1002F3000100005B8102A1820100008D1902AD8221
:100303000100008E1901E803057710020A0A281379
:10031300FFFFFF000130750302010600000000002B
:1003230000000000000000000000000000000000CA
:1003330000000000000000FFFF0600800CE803023D
:1003430001060302F0FF09FF4A69616E5975616E88
:1003530024172A1736173C1730171A4461746100A3
:1003630002A582010000918202A182040000821A88
:1003730002C7820C00005C18029D820C00005A1810
:10038300029F82040000831A0100B0423BAAB83FD7
:100393000000003F8C906339AA0CA33A00941E3CE2
:1003A3008042633DCFFE753E1572313F0000803FB2
:1003B300F304353F8096184B3031323334353637BA
:1003C300383941424344454600286E756C6C2070B1
:1003D3006F696E74657229003031323334353637C4
:1003E3003839616263646566003F3F3F0000008007
:1003F3007FF9021550B743BA5100E7DB2E0000A086
:1004030040000080BF2292D43EDD9B2A3F040000BF
:100413004000000000FFFF7F7FFFFF7FFF010080A0
:10042300341872313F120135AEA204120135C1A254
:1004330004120135F2A2041201352CA30412013572
:1004430085A304120135CCA30412013514A40412AC
:10045300013543A40412013572A404120135A9A481
:1004630004120135F0A40412013509A50412013563
:100473005EA50412013577A504120135C5A5041242
:100483000135FFA5041201357B76001201357E7715
:1004930000120135B77700120135DA770012013502
:1004A300EC77001201352A7800120135A678001284
:1004B30001356E7900120135907900120135277AE2
:1004C30000120135797A00120135AA7A001201353A
:1004D300B77A00120135217B00120135787B0012B7
:1004E30001357B7B00120135B47B00120135B77BEC
:1004F30000120135C17B00120135157C0012013554
:10050300567C00120135897C00120135C67C00122D
:100513000135C87D001201356C7E00120135D57E90
:1005230000120135137F001201359DA70312013517
:1005330033A8031201357EA803120135E2A8031282
:1005430001356CA90312013525AA0312013547AD04
:1005530003120135C4AE03120135E7AE03120135B0
:100563008EB604120135AEB604120135CFB70412AC
:10057300013522B804120135D996041201350197C9
:10058300041201352E9704120135669704120135C2
:10059300C497041201351098041201357798041298
:1005A3000135B79804120135F498041201352299E4
:1005B30004120135CC9904120135D6990412013580
:1005C300E39904120135169A04120135229A041292
:1005D30001353A9A04120135449A0412013510D8B0
:1005E300041201351ED80412013536D80412013520
:1005F3004DD804120135279202120135D19202120D
:100603000135E493021201356094021201357E959F
:1006130002120135BA9502120135559602120135BF
:10062300399702120135FC970212013574980212B0
:100633000135029A02120135739A021201352D9B7C
:10064300021201351F9C021201355F9C0212013513
:10065300139D02120135459D021201353B9F021283
:100663000135829F02120135A09F0212013506A0B7
:1006730002120135D5A00212013599A102120135EA
:10068300B8A302120135C2A30212013529BF031216
:10069300013513C003120135BEC0031201350FC16A
:1006A30003120135BFC10312013530C203120135F4
:1006B30015C30312013549C30312013542C40312A2
:1006C30001357FC4031201355BC5031201359AC599
:1006D30003120135B6C50312013561C70412013592
:1006E300E5C70412013510C8041201352AC90412E2
:1006F3000135D29A04120135E89A04120135069B9A
:1007030004120135179C04120135219C0412013592
:100713004C9D04120135439E04120135B09E041210
:100723000135BA9E04120135ACD203120135E2D36E
:10073300031201355CD4031201358CD40312013545
:100743009FD403120135F6D4031201350BD70312DC
:10075300013575E40112013501E50112013565E644
:100763000112013571E601120135ACE601120135C2
:100773001BE70112013524E8011201352DE90112AD
:100783000135F4E90112013551EB011201356FEB2B
:10079300011201358CEB0112013539EC01120135DF
:1007A300B6EC01120135DEEC01120135A8EF01129E
:1007B3000135ADEF01120135C6F10112013514F215
:1007C3000112013584F201120135C2F20112013521
:1007D3009EF3011201355EF401120135AAF40112F0
:1007E3000135ADF401120135F1F40112013539F58A
:1007F3000112013578F5011201359AF5011201351F
:10080300CEF50112013531F60112013541EE031225
:1008130001354FEE03120135A2EE03120135C1EE8D
:100823000312013506EF031201354AF003120135B5
:10083300E5F00312013529F10312013553F10312D7
:100843000135C2F10312013508F2031201357FF2BB
:100853000312013530F303120135655600120135D9
:1008630075560012013516570012013572570012E2
:1008730001352F58001201354B59001201357D59AE
:1008830000120135AC5900120135595B00120135D4
:10089300D05D001201354060001201353261001253
:1008A30001352B62001201353264001201352667CF
:1008B30000120135556800120135596A00120135DD
:1008C300696B00120135F86C00120135E96D0012F5
:1008D3000135376E00120135A66E00120135CA6E5E
:1008E300001201351B6F00120135BC730012013574
:1008F300BD74001201351E750012013549750012D1
:1009030001350F760012013542F3031201354CF322
:100913000312013591F303120135A5F303120135D7
:1009230035F4031201356EF403120135A9F40312F1
:100933000135D2F40312013520F50312013535F5E3
:10094300031201354AF50312013572F5031201351D
:1009530087F5031201359BF503120135AFF5031239
:100963000135C4F503120135FEF50312013522F6F4
:10097300031201354EF60312013585F603120135D4
:10098300E7F60312013559F7031201359CF70312F9
:100993000135C6F703120135F1F70312013555D5B9
:1009A3000412013551D00212013534D1021201353E
:1009B300AFD102120135EAD1021201353BD3021243
:1009C3000135C4D302120135DCD5021201356ED8CC
:1009D3000212013520D9021201352CDA0212013537
:1009E3009FDB02120135F8DB021201351EE9031207
:1009F300013561E903120135E5E903120135B8EA6E
:100A0300031201358FED03120135DBBB04120135EF
:100A130088BC0412013595BD04120135D4BD0412FE
:100A230001352EBE0412013559C904120135BCC962
:100A33000412013559CA041201358ECA0412013554
:100A4300BECA04120135DFCA041201351ACB0412DF
:100A530001353ACB041201350080041201358C8034
:100A6300041201354B8104120135638204120135EE
:100A73007D840412013594E802120135B9E80212AB
:100A8300013586E9021201355AEA02120135C7EA35
:100A9300021201351DEB02120135B9EB02120135C9
:100AA300EDEC02120135C8ED0212013527EE0212F8
:100AB3000135B3EE0212013521EF02120135ADEF1C
:100AC30002120135B0EF02120135FAEF02120135BD
:100AD3006CF002120135FEF0021201359FF1021291
:100AE3000135BFF10212013507F20212013550F24E
:100AF300021201356CF20212013592F20212013533
:100B03000CF3021201351AF302120135A9F3021292
:100B1300013512F402120135668904120135EB899D
:100B2300041201352D8A04120135118B041201358B
:100B33007E8B04120135C28B04120135068C04121C
:100B43000135338C041201355B8C04120135938C0F
:100B530004120135D18C04120135F88C04120135CD
:100B6300728D04120135BC8D04120135589F011298
:100B7300013551A1011201353EA40112013592A4A0
:100B830001120135BDA40112013596A501120135EB
:100B9300D1A50112013501A60112013514A60112D6
:100BA300013555A60112013582A601120135D0A6E1
:100BB3000112013505A7011201353BA701120135C9
:100BC3009AA7011201351FA801120135BEAA01120D
:100BD3000135A6AC01120135E2AC0112013560AE5C
:100BE30001120135C2AE01120135ACB0011201355B
:100BF3002FB10112013506B2011201355EB20112A5
:100C0300013540B4011201350FB60112013514B696
:100C130001120135E2B60112013579B7011201352E
:100C2300C7B801120135D8B801120135DE9D031290
:100C33000135579E0312013511A4031201351CA57A
:100C430003120135C5A60312013553A7031201355B
:100C5300CD82011201354E83011201357B830112CE
:100C63000135C68301120135C784011201350C8594
:100C730001120135388501120135B486011201359F
:100C8300368701120135858701120135F08701127C
:100C93000135A48801120135418901120135BC894E
:100CA30001120135468A01120135998A0112013573
:100CB300E18B01120135608D011201352B8E01127A
:100CC3000135388E01120135888E01120135988E57
:100CD30001120135BC8E01120135BF8E011201359F
:100CE300A88F011201358A90011201352C9101124E
:100CF3000135C79101120135EE91011201354B9275
:100D030001120135A29201120135F092011201354F
:100D13003E9301120135A793011201354794011245
:100D23000135E39401120135709501120135E59502
:100D330001120135359601120135949601120135E0
:100D4300BB9601120135759701120135669901129F
:100D53000135AF9901120135E19901120135589A14
:100D630001120135E29B01120135969C01120135F6
:100D7300C69C01120135DB9C011201354B9D01120A
:100D830001358C9D01120135A19E01120135229F6F
:100D9300011201351E9403120135699403120135C2
:100DA30075940312013549950312013560950312B9
:100DB30001359D9503120135CE9503120135069633
:100DC300031201355C960312013572960312013545
:100DD300AE9603120135C19603120135E89603124C
:100DE30001351C97031201354298031201358C9982
:100DF30003120135889A03120135A59B03120135AD
:100E0300E47F00120135F1E3031201359FE703127A
:100E13000135D3E803120135A1DC0212013564DF89
:100E2300021201356ADF0212013527E2021201358F
:100E330081E402120135B484041201354B85041296
:100E43000135098604120135338604120135698898
:100E530004120135FBB80112013536B9011201350F
:100E63007BC501120135E7C601120135E4C7011242
:100E7300013569CB0112013553CC011201359FCCE9
:100E830001120135B9CC01120135F6CC011201353D
:100E930001CD011201350ACD01120135BACD01127E
:100EA30001358ACE01120135D1CE0112013537CF7A
:100EB30001120135A9CF011201350080021201355B
:100EC3004883021201354E8302120135A18A0212B0
:100ED3000135AE8E0212013567A604120135FDA657
:100EE3000412013513A7041201356CA7041201354E
:100EF300B0A704120135EAA70412013582A804122F
:100F03000135F1A804120135FAA80412013506A926
:100F13000412013520A9041201354AA9041201352E
:100F23005FA904120135C1A904120135E8A904120D
:100F3300013573CC0312013580CC031201359ACCF1
:100F430003120135CDCC031201350BCD031201354C
:100F530070CD0312013585CD0312013590CD0312F7
:100F630001359DCD03120135B4CD03120135C2CD38
:100F730003120135D1CD03120135E6CD031201353C
:100F8300FBCD0312013506CE0312013512CE031237
:100F930001351FCE031201352ECE0312013539CE92
:100FA300031201355ECE0312013502CF0312013560
:100FB30012CF0312013527CF0312013541CF03129C
:100FC30001355ECF031201357BCF0312013586CF86
:100FD3000312013532D00312013513D10312013547
:100FE30038D10312013543D10312013558D103120D
:100FF30001356CD103120135CDD103120135D3D1A3
:1010030003120135D9D103120135DFD103120135A2
:10101300F7D1031201352AD20312013500800312DE
:101023000135228003120135EA8003120135A483BE
:1010330003120135BA8403120135DB85031201352E
:10104300B58603120135648703120135CEC202123D
:10105300013565C302120135FDC302120135EDC42A
:101063000212013524C50212013537C502120135BA
:10107300A5C50212013540C70212013567C7021226
:10108300013509C8021201353EC8021201354FC8A5
:1010930002120135C8C802120135E9C8021201352E
:1010A30001C90212013559CA0212013562CC02127A
:1010B3000135B2CE02120135B5CF0212013504D08B
:1010C3000212013532B4021201352FB50212013575
:1010D3001AB60212013524B6021201352EB60212D7
:1010E300013550B6021201355CB602120135AEB7B6
:1010F30002120135DDB7021201350DB902120135B5
:101103004FB9021201357BBA0212013551BB0212EB
:101113000135A3BB0212013502BC0212013539BCF1
:101123000212013574BC021201350FC002120135DF
:1011330028C002120135AAC002120135B8C002123A
:1011430001350DC1021201351BC10212013588C1DF
:1011530002120135FAC10212013540C202120135F1
:1011630035F40212013557F40212013541F6021229
:101173000135E6F90212013529FB0212013503FCA0
:1011830002120135C7CE04120135ECCE041201352B
:101193005DCF041201350AB00312013513B00312F7
:1011A30001351CB0031201354DB1031201356CB387
:1011B30003120135A2B303120135DCB30312013567
:1011C30012B4031201354CB40312013580B4031277
:1011D3000135ACB403120135F5B4031201352FB553
:1011E3000312013577B503120135CDB5031201356D
:1011F30002B6031201355DB60312013597B6031229
:101203000135E8B6031201351EB70312013558B78D
:101213000312013586B703120135A9B7031201354D
:10122300397F00120135657F00120135C07F00123E
:101233000135CA7F00120135DA7F001201357A9237
:1012430004120135A19204120135D1920412013521
:1012530045FF021201357035001201358B3800123B
:1012630001357B3A00120135ED3A00120135AB3BF3
:1012730000120135563C00120135E63C00120135DF
:10128300753D001201359F3D001201350C3E0012E1
:101293000135464300120135D94300120135084593
:1012A300001201356C45001201352046001201354C
:1012B300D348001201350D49001201357749001258
:1012C3000135D44900120135314A001201358E4AE5
:1012D30000120135794B00120135BF4B0012013565
:1012E3000A4C001201352B4C001201358D4D0012B2
:1012F3000135A84D001201352E4F001201355B4F09
:10130300001201359B4F00120135E14F00120135E8
:10131300FF4F001201353D50001201357B52001280
:101323000135B452001201354B5300120135EB5312
:10133300001201357E5400120135F05400120135BC
:10134300315600120135E0C00412013574C1041294
:10135300013547C20412013570C204120135D7C2E8
:101363000412013569D6041201357AD60412013507
:10137300A8B30412013573B6041201350ADC041252
:101383000135D6D104120135E6D10412013506D256
:101393000412013502D3041201352FB904120135A9
:1013A300CAB904120135C0BB0412013548CB04127B
:1013B30001357DCB04120135D6CB04120135D4CCD3
:1013C3000412013507CD041201350ACD041201358B
:1013D300BFFF01120135E4FF01120135FC8D041238
:1013E3000135328E04120135C88E04120135CA8FBD
:1013F30004120135BB91041201354B9204120135DD
:101403005C9204120135E77F00120135F87F001268
:1014130001353FC304120135E3C4041201354FC53E
:101423000412013519F80312013516FA03120135B6
:101433009CFA031201359EFB0312013513FC0312C0
:10144300013573FC0312013576FC0312013584FC6C
:101453000312013598FC03120135B0FC0312013568
:10146300BEFC03120135D6FC0312013537DA041230
:101473000135ADDA04120135BDDA041201357DD030
:1014830004120135A6D004120135D0D0041201355F
:10149300F0D00412013537B80312013545B80312F1
:1014A30001358BB803120135DEB80312013526B9B5
:1014B3000312013580B903120135A1B903120135B5
:1014C300AFB9031201350BBA031201353EBA031249
:1014D300013551BA03120135DCBA0312013575BB6C
:1014E30003120135F2BB031201352BBC0312013584
:1014F300B3BC031201350ABD0312013567BD0312E4
:10150300013579BD031201359FBD03120135A8BD15
:1015130003120135F5BE031201350FCD0412013557
:1015230070CD041201350DCE0412013573CE0412B1
:10153300013516AA0412013549AA0412013570AB0C
:101543000412013595AB0412013571AC0412013557
:1015530013D304120135DFD30412013579BE04120B
:101563000135BEBE04120135FEBE041201359BC017
:101573000412013540D7041201355BD7041201353B
:101583006BD704120135D0D704120135DDD804120C
:101593000135588A03120135348B031201357B8BD5
:1015A30003120135B88B03120135248C0312013564
:1015B3007C8C03120135EC8C03120135BC8D0312B4
:1015C3000135A58E031201351C8F03120135B1902D
:1015D300031201353C9103120135AB91031201351E
:1015E3002392031201353A920312013563930312D6
:1015F3000135B59303120135D2D803120135F2D860
:1016030003120135E2D9031201352BDA0312013536
:101613004BDA0312013589DA03120135E4DA0312D6
:10162300013522DB031201356CDB0312013514DEB5
:10163300031201357DDE0312013517C6031201358E
:1016430039C603120135E4C603120135EEC603128F
:1016530001359CC70312013590C903120135F4C942
:101663000312013520CA031201351ECB03120135C3
:1016730035CC03120135ADAD041201351AAF041296
:1016830001354EB0041201351CD10112013535D696
:10169300011201352CD90112013552D9011201353C
:1016A3007BD9011201352DDA011201350EDC01124D
:1016B300013529DD0112013542DD0112013538E220
:1016C3000112013571E201120135B5E20112013552
:1016D300C2E3011201358EDE03120135C2DE0312AD
:1016E300013534DF031201354DDF031201355FDFAE
:1016F30003120135C6DF03120135A2E103120135DE
:1017030011E20312013590E30312013509F70112C7
:101713000135B0FA01120135A2FD01120135BFFDF9
:1017230001120135DEFD01120135BFFE0112013543
:10173300D0FE0112013509FF0112013557FF0112D5
:101743000135E4FC0312013565FD0312013582FD09
:1017530003120135CDFD03120135B8FE0312013525
:1017630029DC04120135C7B00412013537D4041241
:10177300013537DB04120135CCA302120135DFA892
:101783000212013552C50412013598DB04120135EA
:10179300DEDB04120135C49E04120135A1D9041203
:1017A3000135CBD90412013547DC04E0667010081B
:1017B300A3E066700A08A3E066700408A3E066224B
:1017C300C008C3E096F50808A3E096420808A3E022
:1017D30096420808A3E0964208A2D265D033E508F2
:1017E3007001D3D00822C3E7960809E7960809E7F2
:1017F300960809E79622C3E09608A3E09608A3E0BB
:101803009608A3E09622C008C3E096F50808A3E073
:1018130096420808A3E096420808A3E0964508709C
:1018230001D3D00822080808E630E7111220E2129B
:101833001840080808C64480C61818182218181833
:10184300E9799EC608CAC608CBC608CCC6C37020B1
:101853007996CACBCC7019798ECBCC70137986CCA0
:10186300700EF9802ACA33CACB33CBCC33CC3319AD
:1018730030E7F2CCCBCA3350147004EA30E00DE405
:10188300CA3ACACB3BCBCC3CCC500209C3E913C602
:10189300CC182313C6CB18C6CA18C6F9221218E0EF
:1018A30020F01430E72B74FFFCFBFA747F8022E4F2
:1018B300FCFBFA7480801AB48008BC00F2BB00EF12
:1018C300800F50EBF9E4C39AFAE49BFBE49CFCE43D
:1018D30099C6CC18C6CB18C6CA18C6F922E4C9C61D
:1018E30008CAC608CBC6D3330308CCC63392F0C3A9
:1018F300947F402E94184019C9B90704CACBCC224F
:101903005025C309CA33CACB33CBCC33CC33D9F438
:1019130022F4600DC9CCC313CB13CBCA13CAD9F6B7
:10192300CC22E4FCFBFA2214FCFBFA22E62618463E
:101933001846184622E72719471947194722181846
:1019430018E60846087009E626087005E633F4220F
:101953000822191919E70947097009E727097005CA
:10196300E733F4220922E6084608C3134608336026
:1019730002E633F422E7094709C313470933600238
:10198300E733F422121969602512197860201219BD
:101993002F7003021938080808E76670101819E752
:1019A30066700A1819E76670041819E76622F422AC
:1019B300121969601C121978601712192F70071217
:1019C30019387001D322C0D01219387006D0D0B3A1
:1019D30022C32233D0D0501430E0F6C3E79608096F
:1019E300E7960809E7960809E796B32220E0D5E6CB
:1019F300970809E6970809E6970809E697B32212BC
:101A03001969601B121978601612192F70071219C1
:101A130038600CB322C0D01219387005D0D022C35D
:101A23002233D0D0501330E0EBC3E7960809E79692
:101A33000809E7960809E7962220E0E4E6970809F3
:101A4300E6970809E6970809E697220012196960E4
:101A53004F1219786012E7548066F612194170111B
:101A6300121938703B090909F4F618F618F618F636
:101A730022121955701512192F08080860EAE64456
:101A83007FF618768018E4F618F62212192F6016DE
:101A93001219387012E4F608F608F608E65480F6D0
:101AA30009090918181822EAC0E0EBC0E0ECC0E00D
:101AB300EDC0E0E687F0A4FBACF008E687F0A42CC9
:101AC300FCE435F0FA1809E687F0A42C4B600274A5
:101AD30001CA35F0FCE433FB09E687F0D2F7A42C06
:101AE300CB35F0FC1908E687F0A42BCC35F0FBE4EA
:101AF30033FD0819E687F0D2E7A42C4ACB35F0CDA5
:101B03003400FC09E687F0D2E7A42DCC35F0FDE4E0
:101B130033FA0918E687F0D2F7A42CCD35F0CA348E
:101B230000FC08E687F0D2E7D2F7A42ACC35F07A96
:101B33007E20E70B0ACB33CBCD33CDCC33CC33CBA9
:101B43003350147004ED30E00ED2F1E4CD3DCDCC32
:101B53003CCC3B5005DA05C2F1EB547FC63308E6B3
:101B63003392F0FBE73309E733C39A502D2B7019F7
:101B73000C0D4C4D70151806E608C333700D20F19B
:101B83000AA2F013F6E418800B4024E4F630F002C6
:101B9300768018F618F618F68024D33B1450107488
:101BA300FFA2F013F6187680E418F618F6800FA259
:101BB300F013F618E63303F618ECF618EDF6D0E05A
:101BC300FDD0E0FCD0E0FBD0E0FA221219786046A9
:101BD300121969603DE9687008F618F618F618F6E8
:101BE30022748067F7121C02090909748067F722BF
:101BF300121969601D1219787005191919801A12C2
:101C03001941701F121955C37003E6673319191967
:101C130040071818182208080874FFF618F618F673
:101C230018F6221219556017121938702192F01202
:101C3300192F7019501720F014080808090909E72B
:101C4300F61819E7F61819E7F61819E7F622121924
:101C53002F60E6E869701F0808E62480F608E4367A
:101C6300F618547FB47F0CE654806007F6E418F648
:101C730018F622181822E9C6CC08C6CD08C6CE0825
:101C8300C6CFC0E0E8C0E0EAC0E0EBC0E009E9F895
:101C930009E7FA09E7FBE6F918E6F8C3EC98ED99CA
:101CA300EE9AEBC2E7F5F0EFC2E795F0500E600C49
:101CB300EBCFFBEACEFAE9CDF9E8CCF8EAA2E7D21A
:101CC300E7FAEB33FB13F5F0EEA2E7D2E7FEEF33CF
:101CD300FFC5F013A2E730E601B313C5F0C3C0E0BC
:101CE300C0F07F00C39BFB605E9418600F401D141F
:101CF300601AD0E023F9D0E0F8021DD48AF0E94855
:101D03006003D2F0E4AFF0FAF9F8803BEB30E40D76
:101D130089F0EA6003D2F0E4AFF0F9CAF8EB30E3FC
:101D23000D88F0EF6002D2F0AFF0E4CAC9F8EB54CB
:101D3300076014FBC3EA13FAE913F9E813F8EF1386
:101D43005002D2E0FFDBEDD0E0C0E030E739C3E47E
:101D53009FFFF5F0EC98FC42F0ED99FD42F0EE9A0E
:101D6300FE42F0D0E0F9D0E0F8E5F0607AE923F93B
:101D7300EE20E742D8028067C3EF33FFEC33FCED7C
:101D830033FDEE33FE80EAEC28FCED39FDEE3AFE3E
:101D9300D0E023F9D0E0F84002801BC3EE13FEED40
:101DA30013FDEC13FCEF135002D2E0FF08B800065A
:101DB3007F7F74FF802EEF3350178CF020F002608A
:101DC300100CBC000C0DBD00080EBE000408E8603A
:101DD300DFE933E813FFEE2313FE4F4D4C8008E990
:101DE3005480FFE4FEFDFCEE33EF33F47004FCFD9E
:101DF3007E80D0E0FBD0E0FAD0E0F8D0E0CFC61888
:101E0300CEC618CDC618CCC6F922121969700418AB
:101E1300181822121978700D74FFF61819F618198C
:101E2300F61819F622E7548066F612192F700F126E
:101E3300193870F014F608F608F608F680D112196E
:101E430038700CF608F608768008E6447F80EC12BA
:101E53001958700C12194460BFE65480F6E480BB35
:101E6300121944700519191980A5E869700C763F99
:101E730018768018F618F6E8F922E6CDC0E018ECDB
:101E8300C0E0E633CD33CDD313F6E719FCE71919D8
:101E930033CC33C3947F400ECD9D502408E6548049
:101EA300F6E418F6800FF4043D14501408E6447F5A
:101EB300F6187680E418F618F6D0E0FCD0E0FD22A0
:101EC300CCD313CCFD18E4C6CBC0E018E4C6CAC01B
:101ED300E00808ED08C633E613F618E433C675F0D8
:101EE30003C3CA97CA09CB97CB199C40047D0880CA
:101EF3002EBD0003021FB616B6FF05060608161808
:101F0300C3CA33CACB33CB33CA27CA09CB37CB199E
:101F13003CC37D08803E187D0820E75CC633C6CAF3
:101F230033CACB33CB33DDF1D5F0EB30E77BCA9744
:101F3300CA09CB974ACB199C406F4B7025E620E02A
:101F4300218066187D08C3CA97CA09CB97CB199C11
:101F5300D3C633C6CA33CACB33CB3350C9DDE7D577
:101F6300F0E1D3E4C636C608C636C608C636C60888
:101F7300C636C61818188031C3CA97CA09CB97CB7F
:101F8300199CB34097C633C6CA33CACB33CB33DDB0
:101F930034D5F02EC6A2E0C640C8CA27CA09CB373B
:101FA300194A70BECB3CB480B90808E63308E6335F
:101FB300601F181818D0E0FAD0E0FBD0E0FCD0E0A6
:101FC300FD22187D08CA27CA09CB37CB193CD38019
:101FD3008013F618E4B67F11F618B6FF0EF618C68E
:101FE3000470D20808768080CAF618F618F680C501
:101FF300080808EAC0E0EBC0E086F0E7A4FA180995
:1020030086F0E7A42AFA180986F0E7A42AFA180941
:1020130086F0E7A42AFA1986F0E7A4FBE5F02AFA8A
:10202300190886F0E7A42BFBE5F03AFA190886F0C5
:10203300E7A42BFBE5F03AFA18180986F0E7A4C5E4
:10204300F02BFBE43AFA1908E7C5F0C6A426F6E537
:10205300F03BFBE43AFA1886F0E7A4F6E5F008262D
:10206300F6E43B08F6E43A08F6D0E0FBD0E0FA22C7
:10207300E4CFC0E0E4CEC0E0E4CDC0E0E4CCC0E017
:1020830075F020E626F608E633F608E633F608E6AA
:1020930033F6181818EC33FCED33FDEE33FEEF3353
:1020A300FFC3EC9709ED9709EE9709EF97191919F3
:1020B300400FFFEC97FC09ED97FD09EE97FE191908
:1020C30006D5F0BFECF709EDF709EEF709EFF719BD
:1020D3001919D0E0FCD0E0FDD0E0FED0E0FF2218DB
:1020E3001818E4C396F608E496F608E496F608E4AE
:1020F30096F6226016080808C6C313C618C613C688
:1021030018C613C618C613C6D5E0EA227009080814
:1021130008226016181818C6C333C608C633C60883
:10212300C633C608C633C6D5E0EA22E627F6080951
:10213300E637F60809E637F60809E637F622E02619
:10214300F608A3E036F608A3E036F608A3E036F671
:1021530022E026F008A3E036F008A3E036F008A357
:10216300E036F022C3E697F60809E697F60809E693
:1021730097F60809E697F622C3E0C696F608A3E0A9
:10218300C696F608A3E0C696F608A3E0C696F6221E
:10219300C3E096F008A3E096F008A3E096F008A346
:1021A300E096F022E056F608A3E056F608A3E056C0
:1021B300F608A3E056F622E056F008A3E056F0082E
:1021C300A3E056F008A3E056F022E0F608A3E0F6F9
:1021D30008A3E0F608A3E0F622E6F008A3E6F00879
:1021E300A3E6F008A3E6F022E0FAA3E0FBA3E0FCF9
:1021F300A3E0FD22EAF0A3EBF0A3ECF0A3EDF022C1
:10220300E0F8A3E0F9A3E0FAA3E0FB22E8F0A3E9F6
:10221300F0A3EAF0A3EBF022CAC0E0E6F0A308DAE9
:10222300FAD0E0FA22CAC0E0E0A3C582CCC582C5D9
:1022330083CDC583F0A3C582CCC582C583CDC583B9
:10224300DAE6D0E0CA22C3E498F8E499F912228AC4
:102253008026C3E49AFAE49BFBE920E7E912228A89
:10226300E498F8E499F922C3E498F8E499F912227E
:102273008AE498F8E499F9C3E49AFAE49BFB22EB25
:1022830020E7CFE920E7E0B90010BB0008E88AF0B7
:1022930084F8AAF022E4FBC8FA22EB70227B10C870
:1022A30033C8C933C9335007C39AC3DBF280069AD4
:1022B30050012ADBEAC833F4C8C933F4C9FA2275DA
:1022C300F008E4C833C8C933C933C99AC99B500459
:1022D300C92AC93BD5F0ECFBC833F4C8E4C9FA22D8
:1022E300600D08C6A2E713C618C613C6D5E0F322CD
:1022F300600C08C6C313C618C613C6D5E0F4227013
:102303000422600D18C6C333C608C633C6D5E0F42D
:102313001822251810AF08F518400C15198008F578
:102323001840021519D2AF2200C0D0251810AF08EB
:10233300F518500C05198008F51850020519D2AF8D
:10234300D0D0222518F58210AF08F518400C1519C6
:102353008008F51840021519D2AF85198322251874
:10236300F582E43519F583222518F8E43519F922A5
:102373002518FAE43519FB222518FCE43519FD224A
:10238300E4732518C582C0E0E51934FFC583C0E0B6
:10239300E518C3958224F810AF0885831985821840
:1023A3008008858319858218D2AFCEF0A3E520F08B
:1023B300A37808E608F0A3DEFAEFF0A3E58124FA98
:1023C300F8E608F0A3E608F0A3E608F0A30808E699
:1023D30008F0A3E608F0A315811581D0E0FED0E054
:1023E300F8158115811581E8C0E0EEC0E0222518BB
:1023F300C582C0E0E51934FFC583C0E0E518C39585
:102403008224F910AF088583198582188008858393
:1024130019858218D2AFCEF0A3E520F0A37808E6A1
:1024230008F0A3DEFAEFF0A3E58124FBF8E608F059
:10243300A3E608F0A30808E608F0A3E608F0A3154E
:10244300811581D0E0FED0E0F815811581E8C0E068
:10245300EEC0E022851983851882E0A3FEE0A3F590
:10246300207808E0A3F608DFFAE0A3FFE0A3C0E0CA
:10247300E0A3C0E0E0A3C0E0E0A3C0E0E0A3C0E0CD
:1024830010AF088582188583198008858218858393
:1024930019D2AFD083D08202013285198385188285
:1024A300E0A3FEE0A3F5207808E0A3F608DFFAE056
:1024B300A3FFE0A3C0E0E0A3C0E0E0A3C0E0E0A38B
:1024C300C0E010AF088582188583198008858218BB
:1024D300858319D2AFD083D08222C0D02518C5827C
:1024E300C0E0E51934FFC583C0E0E518C395822435
:1024F300F310AF08858319858218800885831985B1
:102503008218D2AFC8F0A3E9F0A3EAF0A3EBF0A3DB
:102513007908E709F0A3D8FAECF0A3EDF0A3EEF005
:10252300A3EFF0A3D0E0F0A3D0E0F0A3D0E0F0A3BA
:10253300E520F0A3E5F0F0A322851983851882E056
:10254300C0E0A3E0F9A3E0FAA3E0FBA37808E0F678
:1025530008A3DFFAE0FCA3E0FDA3E0FEA3E0FFA3F2
:10256300E0C0E0A3E0C0E0A3E0F5D0A3E0F520A342
:10257300E0A3F5F010AF08858319858218800885DC
:102583008319858218D2AFD082D083D0E0F8D0E00F
:102593003274048006740280027401C0E0F40412F1
:1025A3002346D0E012221B227404800474028000AC
:1025B300CCC0E0EDC0E0E518C39CCCAD1950011DC3
:1025C30010AF068C188D1980068C188D19D2AF1296
:1025D3002228D0E0FDD0E0FC22D083D082E9C0E005
:1025E300E493A3C386F0C5F095F0F908E493A386BA
:1025F300F0C5F095F0700BE493A3C3994005E9048B
:102603008002A3E475F002A42582F582E5F0358308
:10261300F583D0E0F9E493A3C0E0E493C0E022D0D3
:1026230083D082ECC0E0EDC0E0E493A3FCE493A389
:10263300FDED4C600D12266EEC24FFFCED34FFFD26
:1026430080EFE493A3FCE493A3FDED4C600D12260D
:10265300ADEC24FFFCED34FFFD80EFD0E0FDD0E0D6
:10266300FCE493A3C0E0E493C0E022C0E0C3E4939E
:1026730096087401939618400FE4936670080874E3
:102683000193661870007019A3A3C3E493960874AA
:1026930001939618A3A3400DD0E0D0E0D0E002262A
:1026A3005EA3A3A3A3A3A3D0E022C0E0C0F088F05D
:1026B300E4936670080874019366187000A8F0A389
:1026C300A3700BD0F0D0E0D0E0D0E002265EA3A34D
:1026D300D0F0D0E02274F61223F1EAFEEBFF8C086F
:1026E3008D09EE2434F8E43FF9E8FCE9FDEE2435E6
:1026F3001229F4FAEE24371229F4F88508F0A4C855
:1027030085F00A8509F0A4250AF9EA28F8E439F9DD
:102713007A257B0012228AEA8C828D83F0FA1313C6
:1027230013541FF8EE28F8E43FF9E8245DF582E43A
:1027330039F583E0C0E074075AF8D0E0B8000280AE
:1027430004C313D8FCA2E0EE50082434F582E43F1E
:10275300801824361229F4F5F0EA84A8F0EE28F85C
:10276300E43FF9E82438F582E439F583E0F97F039F
:1027730002249D74F71223F1EAFEEBFFEE243412D8
:1027830029F4C0E0EE2435F582E43FF583D0E0F090
:102793008E828F83A3A3A3A3A3A3A3C082C0838E8C
:1027A300828F83A3A3A3A3A3E0F8A3E0F9D083D0EC
:1027B30082E0C398F508A3E099F509EE247F122976
:1027C300F46401703EEE2480F582E43FF583C08219
:1027D300C0838E828F83A3A3A3A3A3E0240108A3B2
:1027E300E03400F9D083D082E0687003A3E069701D
:1027F300127CD27D06120D40EE247FF582E43FF574
:1028030083E4F0AC08AD09EEFAEFFB1226D8E9F940
:102813001234467F0202249DC082C08385188285BC
:102823001983E0F8A3E0F9C3EA9CEB9D5010C3ECD5
:1028330098ED99401BC3EA98EB995014800EC3EAB4
:1028430098EB994007C3EC98ED9940047901800215
:102853007900D083D08222EAC39CFAEB9DFB2274D9
:10286300EF1223F190037BE064086005E0640770D6
:102873002A9061C8E060249003A9E0F4601DE0F8A9
:1028830075F00DA4C8AAF02AF974AB28FE740339B5
:10289300FF8E828F83A3A3A3E0700302297090604D
:1028A30060E0C0E0EE2468F582E43FF583D0E0F019
:1028B300750C6C750D07750800750900E5D914F5DD
:1028C3000AE5D95403F50E60127403650E6043E5FF
:1028D3000A600AEE24671229F47002807590076774
:1028E300E06401601F1229F160047A0480027A0017
:1028F300E50AC39AFA95E0FB120B7E8A088B09EA74
:1029030045097005120FFE80641229F170048A0CC8
:102913008B0DE50A6012850C82850D83F50BE5D9D5
:10292300F0A3150BE50B70F61229F1604474FC2536
:102933000AF50A780C122598AC0AA90EEEFAEFFBF9
:10294300120DFA740212232BE97026AA08AB09129E
:102953001520793D8E828F83A3A3A3A3E0FA7B0086
:102963001209CEEEFAEFFB120D64120E5A790080B3
:10297300787403650E6051850A1075110078101282
:102983002598AC0CAD0DAA08AB09120DBE7402124A
:10299300232BEE24681229F464807004747F800171
:1029A300E0F50C780C12259CE50EF50C780C12253D
:1029B3009CA90AAC08AD099003A9E0FA7B001209AF
:1029C3009E740212232B801C90037BE06408AC0CE2
:1029D300AD0D7009EEFAEFFB120E2A8007EEFAEF47
:1029E300FB120ECC12100A79017F0A02249DEE24F9
:1029F30083F582E43FF583E02274F21223F174FC41
:102A0300122315EAFEEBFF8909A2AFE433F508C2EE
:102A1300AF022AC6E0601B780C122598AC0BA90EF6
:102A2300EEFAEFFB120DF4740212232B7404250B40
:102A3300F50B7401250BF5D9850ED9E50B6018F557
:102A43000A850C82850D83E0F5D9A385820C8583E5
:102A53000D150AE50A70EA75E195EE2463F8E43F83
:102A6300F97A007B00A2AFE433F50BC2AF88828909
:102A730083E0FCA3E0FDEC4D603A88828983E0FAB1
:102A8300A3E0FB8A828B83E0FCA3E0FD8882898339
:102A9300ECF0A3EDF08A828B83E4F0A3F0888289C3
:102AA30083E0FCA3E0FDEC4D700A88828983A3A335
:102AB300E4F0A3F0E50BA2E092AF1215209006D943
:102AC300E004F0EE24631229F4F8A3E0F9E8496086
:102AD30064EE24631229F42402F8A3E03400F98895
:102AE300828983E5822402F50CE43583F50DE0F554
:102AF3000BA3E0F50EEE24621229F4640170369004
:102B030061D0E0F81229F160047C0480027C007437
:102B130080C398FA95E0FBE50B2CF8E43400F9E860
:102B23002402F8500109C3EA98EB99A2D265D03385
:102B33004003022A179006D9E0604D9006DAE0F8C8
:102B43009006D9E0C398500C74026509703A900658
:102B5300DBE060348E828F83A3A3A3A3E085188276
:102B6300851983122B9B7402122361E8122B9B900D
:102B730006D8E028F0740212237BAA18AB19790156
:102B83001209FE9006D9E4F0E508A2E092AF7404BE
:102B930012232B7F0702249DF0A3E4F09006D9E0D3
:102BA300F8220000008521878522C622C0E074EB4D
:102BB3001224DDA2AFE433F508C2AF759B00906128
:102BC30082E0A2E05030E591A2E0502A7591FE74B4
:102BD3000165217021122D42120F1A122D30122578
:102BE300AB1231F0740412232BE9640170057901EF
:102BF300120F62122862906182E0A2E5505DE591B6
:102C0300A2E550577591DF90037BE064076005E010
:102C13006408702F122D4274016521703E120F1A41
:102C2300122D301225AB1231F0740412232BE964F8
:102C33000170057901120F627901EEFAEFFB122997
:102C4300FC8018E0640D701390039DE004F0642889
:102C53007002E4F07A00E0F9121010906182E0A2B1
:102C6300E64003022D05E591A2E64003022D05751A
:102C730091BF90037BE064057008120F02120F0EE0
:102C83008003120F08752100120F80E990037CF076
:102C93007900120F62120C627A017B0090037AE0D2
:102CA300F91214F0907803E06442705690076BE0D9
:102CB30014F0704EC2AF122CBC00782AD0E0F61884
:102CC300D0E0F6E59F5407F87005750DFF80037596
:102CD3000D7FC4C0E07829E6F50A08E6550DF50B2B
:102CE300740B780A1222F3D0E0250AF8906270E0A0
:102CF300A2E740F8E8C333906272F0906270E0D2CA
:102D0300E0F0906181E0A2E35009E5E9A2E350031A
:102D130075E9F7A3E0A2E75009E591A2E75003752F
:102D2300917FE508A2E092AF7F0802253C8E828F57
:102D330083E0F8A3E0C82416F582E438F5832290F3
:102D430003A9E0F875F00DA4C8AAF02AF974AB281A
:102D5300FE740339FF22C0E0C0D0C082C0839061FB
:102D630083E0A2E05009E5BFA2E0500375BFFEE097
:102D7300A2E15009E5BFA2E1500375BFFDE0A2E265
:102D83005009E5BFA2E2500375BFFBE0A2E350097F
:102D9300E5BFA2E3500375BFF7E0A2E45009E5BF26
:102DA300A2E4500375BFEFE0A2E55009E5BFA2E539
:102DB300500375BFDFE0A2E65009E5BFA2E650036A
:102DC30075BFBFD083D082D0D0D0E032C0E074F2E0
:102DD3001224DDE5A7A2E6500FE5A1A2E6500953B0
:102DE300A7BF75A1BF122E23E5A7A2E5500CE5A14D
:102DF300A2E5500653A7DF75A1DFE5A7A2E15009BD
:102E0300E5A1A2E1500375A1FDE5A7A2E2500CE5FF
:102E1300A1A2E2500653A7FB75A1FB7F0102253C4B
:102E230074F71223F175210190037BE0640670159A
:102E3300120E7E8A828B83A3A3A3A3A3A3E0FAA388
:102E4300E0FB120EF0A2AFE433FED2AF900381E0B9
:102E5300640170187A207B0090037AE0F912161C43
:102E63007A207B0090037AE0F91214F6906182E0F5
:102E7300D2E6F0900768E0602185C62280169003B1
:102E830080E064017008E5C654F84405F5C653BEF6
:102E9300FC122BA87401652160E4EEA2E092AF7FDF
:102EA3000202249D008E238F248582288583278513
:102EB3001882851983E0CEA3E0CF852882852783F6
:102EC300EBC9EAC8EDCBECCA75F010C3E833C8E927
:102ED30033C9EA33CAEB33CBC3EA9EF526EB9FF53E
:102EE30025B35004AB25AA26EC33CCED33CDD5F076
:102EF300DAAE23AF242274E91223F174FA122315F4
:102F0300EAFEEBFF8C0A8D0B120F26EAF8EBF9ECC5
:102F1300FAEDFB8E828F8312220F90037BE024F75E
:102F2300C394055006751401023060120E7E8A08A0
:102F33008B09EA4509700302305DEEFCEFFDAA1828
:102F4300AB19120F20850882850983A3A3780C127D
:102F530021CD908241780C1221A78518828519838F
:102F630078101221CD90824178101221A7780C7924
:102F7300101217E9501F780C79101221679081DD28
:102F8300780C1218094047850C14850D15850E160B
:102F9300850F1780459081DD8510148511158512E5
:102FA300168513177814790C1221677814121809EF
:102FB300501C7514007515007516007517017814EB
:102FC30079101221677814790C12212E800C751454
:102FD3000175150075160075170074097814122110
:102FE3000F908275780C1221CD7814790C1220730E
:102FF300850882850983A3A3A3A3A3A312307E120A
:10300300228A880C890DE4F50EF50F7814790C12D9
:10301300212E740412236112307E12228AE8FA8A66
:103023000CE4F50D7814790C1217E950077814792C
:103033000C12216790037BE06408600AE064066079
:1030430005E0640570209081D57814121809501694
:103053009082697814122141800C75140075150053
:10306300751600751700850A82850B837814122163
:10307300DC740612232B7F1002249DE0F8A3E0F9F1
:103083007AD07B032274F71223F1120F389007666C
:10309300E064017010906245E4F0A3F053F4F3434D
:1030A300FE0C5390F3120EDEE5C654B84441F5C648
:1030B300E59E5447644170F8906185740FF0900762
:1030C30064E0F47002A3E0604E900765E0600814CA
:1030D300601B14602E804075080175090090076419
:1030E300E07808122302E508F45280802A7508016B
:1030F300750900900764E07808122302E508F4528A
:10310300908014750801750900900764E07808122F
:103113002302E508F452A079007F0202249D74F78C
:103123001223F1E9FEEAFF120F3874016E700C7A74
:10313300807B0090037AE0F91214F0903568E493F1
:10314300F46008E493F9120C56800953C6B8E59E5F
:10315300544770FA120EE4900766E064017003129C
:103163000C7A900764E0F47002A3E0604B9007656B
:10317300E0600814601A14602C803D75080175091D
:1031830000900764E07808122302E5084280802853
:10319300750801750900900764E07808122302E5B9
:1031A3000842908013750801750900900764E07860
:1031B30008122302E50842A0120E7E8A088B09A892
:1031C30008A909E8496014E5E170FCE82414F582D4
:1031D300E439F583E0F46003E0F5E174016F700A0C
:1031E3007A0190037AE0F912158002311C74F1120E
:1031F30023F18A088B098C0A8D0B9082417808127F
:1032030021A7740F122361780C1221CD908241788B
:103213000C1221A77808790C1217E99081DD501060
:103223007808790C12216778081218094014800E67
:10323300780C7908122167780C1218095004790167
:10324300800279007F0802249D74ED1223F18A081D
:103253008B098C0A8D0B90824178081221A7741375
:10326300122361780C1221CD908241780C1221A790
:10327300780C79081217E940117808790C12216744
:10328300AA08AB09AC0AAD0B8022751000751100BA
:103293007512007513017810790C12216778107973
:1032A3000812212EAA10AB11AC12AD137F0C02240D
:1032B3009D90824178081221CD8A828B83780812EF
:1032C30021BA7F0402249D74F51223F18C828D832D
:1032D30078081221CD8A828B8378081221931233C6
:1032E30022C3E09CF0A3E09D123314402290825548
:1032F30078081221CD8A828B8378081221548A821E
:103303008B83A3A3A3A3E02420F0A3E0344EF08097
:10331300A0F088828983C3E09420A3E0944E22EA3C
:103323002404F8E43BF98C828D83A3A3A3A3E0FCDC
:10333300A3E0FD888289832274F51223F1E9FE90CC
:1033430006F4E0FAA3E0FBEE29F8E433F9744B2822
:10335300F582748139F583E02AF508A3E03BF5098A
:1033630078081225989082391221EB122EA8740244
:1033730012232B8A088B098C0A8D0B741078081280
:1033830020F6AA08AB097F0402249D74F11223F1ED
:103393008A0C8B0D8C0E8D0F74111223611225AFC5
:1033A3007411122361E02401F508A3E03400F50948
:1033B300E4F50AF50B780C7908121FF39081D9789C
:1033C300081221CD780C7908121FF3AA0CAB0DACAF
:1033D3000EAD0F122EA8740212232B8B09EA450996
:1033E30060047A0180027A00EC2AFCE43DFD741348
:1033F300122361E0F8A3E0F9E8FEE9FFECF8EDF948
:103403007A717B0212228A88088909E4F50AF50B8E
:103413008E828F8378081221DCECF8EDF97A717BC8
:103423000212228A8A088B09740578081223028EF5
:10343300828F83A3A3A3A3E508F0A3E509F07F0884
:1034430002249DC082C083E9906000F0D083D082C3
:1034530022C0E074F21224DDA2AFE433FED2AFC285
:10346300C0E5D1A2E4500675D10F121466751A0097
:10347300EEF8EEA2E092AF7F0102253CC0E074F2C9
:103483001224DDA2AFE433FED2AFE589A2E55003F7
:103493001213BE758900C2C5751A00EEF8EEA2E0DC
:1034A30092AF7F0102253CC0E0C0D0E8C0E0E9C094
:1034B300E0A2AFE433F8D2AFC2C7751A00E8F9E867
:1034C300A2E092AFD0E0F9D0E0F8D0D0D0E032C0A3
:1034D300E0C0D0E8C0E0E9C0E0EAC0E0C082C08359
:1034E300A2AFE433FAD2AF900FB9E0F8900FBAE08D
:1034F30068700B539AFB900FBB7401F0802CC2E9E8
:10350300900FB9E0F8740128900FB9F0790074397D
:1035130028F582740F39F583E0F5C1900FB9E0C344
:1035230094804006900FB97400F0EAF8EAA2E092A2
:10353300AFD083D082D0E0FAD0E0F9D0E0F8D0D099
:10354300D0E032C2AF02000022C0E074F21224DDE8
:1035530075C000901798E06401700312166A7F012A
:0335630002253C02
:10356800FFFFFFFFFFFFFFFF74F012238574FA12BD
:103578002315E9FF8C088D097E008A0A8B0B780ACF
:103588001225DC0004105D38B235D535F435173610
:103598003A365D368E36B136C836F836A737CA376A
:1035A800ED3712385D383B38213774016F70198553
:1035B8000882850983E0C39403500D850882850934
:1035C80083E0901A2DF080027E1802387F74026F13
:1035D8007015850882850983E0F8A3E0F9901A2E12
:1035E800E8F0A3E9F080027E1802387F74016F705A
:1035F80019850882850983E0C39402500D850882E5
:10360800850983E0900D21F080027E1802387F74CE
:10361800016F7019850882850983E0C39405500DF0
:10362800850882850983E0900D22F080027E1802C9
:10363800387F74016F7019850882850983E0C39407
:1036480002500D850882850983E0900D23F08002E1
:103658007E1802387F74106F7027750A10750B007A
:10366800780A122598AC08AD097A247B0D12149CAF
:10367800740212232B8A088B0985088285098380A6
:10368800027E1802387F74016F70198508828509D7
:1036980083E0C39402500D850882850983E0900D6C
:1036A80034F080027E1802387F74016F700D85082F
:1036B80082850983E0901A31F080027E1802387FF3
:1036C80074046F7026908239780C1221CD85088297
:1036D800850983780C1217F95011850882850983AA
:1036E800122203900D3612220F80027E1802387FB4
:1036F800EF7021120704E970131212E0E9F5097955
:10370800501215F2E9F5081212CE800A900DC9740C
:1037180001F080027E1802387F74076F707C750A8A
:1037280006750B00780A122598850882850983A3F7
:10373800AC82AD8374021223731214A27402122392
:103748002B8A0C8B0D850C0A850D0B7C007D00AA3D
:1037580018AB19850882850983E0F912126EE9F51C
:1037680008E508C3940A502E120704E97015A90841
:103778001212E6E9F50979501215F2E9F508121264
:10378800CE8019A808790074CA28F582740D39F515
:10379800837401F080067E0280027E1802387F74EE
:1037A800016F7019850882850983E0C39402500D62
:1037B800850882850983E0900D35F080027E180225
:1037C800387F74016F7019850882850983E0C39476
:1037D8000A500D850882850983E0901A30F080022E
:1037E8007E1802387F74016F701C850882850983F2
:1037F800E0C39407C3940A500D850882850983E0C5
:10380800901A32F080717E18806D74016F7020906C
:103818000DC8E0F8850882850983E0900DC8F0E8B6
:103828007055900DC8E06401704D1212CE80487E2C
:1038380018804474016F7019850882850983E0C374
:103848009404500D850882850983E0901A33F0802E
:10385800267E188022C3EA9427EB9400501774023E
:103868006F7012850882850983E0FCA3E0FD1205CC
:1038780078E9FE80027E02EEF9740612232B7F0897
:1038880002245774F012238574DA122315890BEC7D
:10389800FEEDFF9081A5AC18AD197406122228AC74
:1038A80018AD19A90B12126EE9F5087436122361C6
:1038B800E0F50AE508C3940A40030239FDA9081295
:1038C80012B0E9F509901A2DE064027004740180C1
:1038D800027400F50C780C12259CAD0AAC09A908F5
:1038E800EEFAEFFB12132E740112232B7C147D00C9
:1038F800790074121223731214B48A0E8B0F850E7A
:103908000C850F0D741212237B7A1075F006E508EA
:10391800A42424F91215ECE9703E7C1079FF741286
:10392800122373121514E9702F7422122361AC82CA
:10393800AD837A0475F006E508A42425F91215EC80
:10394800E9F50C741212237BE509A2E0E433F9EEE1
:10395800FAEFFB120602E9F8740612237B7A0C745C
:10396800702508F91215ECE97075740612237312A4
:1039780012A47508008061A8087900E875F003A40E
:10398800C8AAF075F000A42AFA75F003E9A42AF988
:103998007406122361E58228F8E58339F9E8FAE923
:1039A800FB8A828B83E0F8A3E0F9E84960288A82E1
:1039B8008B83A3A3E0F50C750D00780C1225988A6B
:1039C800828B83E0FCA3E0FDEEFAEFFB1208F074B3
:1039D8000212232BE9F80508E508C394044098E58A
:1039E80009A2E1506D900D20E0F9EEFAEFFB120804
:1039F800F6E9F8805D7408650A7057901A2DE0643E
:103A080002704F7C007D00A90BEEFAEFFB12131633
:103A1800900D3AE0F8A3E0F9E8496036900D3AE0F5
:103A2800F8A3E0F5838882A3A3E0F8A3E0F9E849C6
:103A380060207C007900EEFAEFFB900D3AE0F8A3E5
:103A4800E0F5838882A3A3E0F8A3E0F583888212D7
:103A580023837404650A700F901A2DE064027007BE
:103A6800EEFAEFFB12131C7900742612232B7F0841
:103A780002245774F7122385120704E97062900D27
:103A8800C9E06401701A1212E0E9FE900DC97400D1
:103A9800F07C0A7D0079007ACA7B0D1214B4803656
:103AA8007E00802CEEF8790074CA28F582740D39EE
:103AB800F583E064017018EEF91212E6E9FAEEF8FF
:103AC800790074CA28F582740D39F5837400F00EF4
:103AD800EEC3940A40CE79501215F2E9FE1212CEC6
:103AE8007F0102245774F412238574FA122315EA0D
:103AF800FEEBFF9081C3AC18AD197406122228EEB4
:103B0800FAEFFB120B308A0A8B0B850A08850B0922
:103B1800E50845097003023BA1901A2DE064026094
:103B280078AC18AD19E5082405FAE43509FB8508D1
:103B380082850983A3A3A3A3E0F912126EE9F50A0B
:103B4800E50AC3940A5021A90A1212B0E9FC7508C3
:103B580001780812259C7D08A90AEEFAEFFB1213DA
:103B68002E740112232B8031901A2DE0700C7905E8
:103B7800EEFAEFFB12060EE9801F901A2DE06401A1
:103B880070177C007D00850882850983A3A3A3A301
:103B9800E0F9EEFAEFFB121316740612232B7F04DA
:103BA80002245774F2122385890BEAFEEBFF8C0876
:103BB8008D09750A0AE50B600C1460091460441439
:103BC8006064023C4FEEFAEFFB1212C2E9F50AE517
:103BD8000AC3940A5071E5084509606B750C0675AF
:103BE8000D00780C122598EEFCEFFDAA08AB09121F
:103BF800149C740212232B8A088B09850882850974
:103C0800838044EEFAEFFB1212BCE9F50AE50AC319
:103C1800940A5033E5084509602DAA08AB09A90A9A
:103C28001212B6E98021EEFAEFFB1212C8E9F50A82
:103C3800E50AC3940A5010E5084509600AAA08ABCA
:103C480009A90A1212B6E9A90A7F0602245774F4D0
:103C5800122385890975081574FF6A700374FF6B50
:103C680070297E008012AC097A027B00EEF91212EC
:103C780092E960037508000EEEC3940A40E8E5096E
:103C880060557A0A7B13120B60804C120B308A0A3B
:103C98008B0BAE0AAF0BEE4F603A7C007D00EE2432
:103CA80005FAE43FFB8E828F83A3A3A3A3E0F91256
:103CB800126EE9F9E9C3940A500DAC097A027B0047
:103CC800121292E9750800E509600CEEFAEFFB1292
:103CD800130A8003750814A9087F0402245774F294
:103CE800122385ECFEEDFF750815740E122361E0B2
:103CF800F50AA3E0F50B74FF6A700374FF6B70217B
:103D0800750900E509C3940A505CAC0AAD0BEEFADC
:103D1800EFFBA909121298E96003750800050980EC
:103D2800E2120B308A0C8B0D850C82850D83E5829F
:103D38004583602F7C007D00E5822405FAE4358305
:103D4800FBA3A3A3A3E0F912126EE9F9E9C3940A4D
:103D58005014AC0AAD0BEEFAEFFB121298E9750895
:103D6800008003750814A9087F0602245774F71207
:103D78002385900D3AEAF0A3EBF0900D20E0FC7D4E
:103D8800007A267B00120578E9FE900D20E0F912F2
:103D9800085A7F0102245774EC1223858A0C8B0D74
:103DA800E9FF7E00EF704B74141223617810122122
:103DB800CD85100885110985120A85130B90823963
:103DC80078101221CD78087910122073780C1225FA
:103DD80098AA10AB11AC12AD131206147402122378
:103DE8002BE9FEEE60177901AA0CAB0D12060EE95D
:103DF800800BEFF9AA0CAB0D12060EE9F8EEF97F6D
:103E08000C02245774F212238574EC122315EAFE6F
:103E1800EBFF8E828F83A3A3E024FA700302432B67
:103E280024FD700302419A147003023EFC146016CC
:103E380014700302431A24FE7003024096147003A0
:103E48000241D202433A900D3AE0F8A3E0F9E8497A
:103E58006066900D3AE0F8A3E0F5838882E0F8A365
:103E6800E0F9E8496052EE240CF582E43FF583E07E
:103E7800F508780812259CEE240BF582E43FF583BB
:103E8800E0F98E828F83A3A3A3A3A3A3A3A3A3E094
:103E9800FCA3E0FDEE2403FAE43FFB900D3AE0F8C2
:103EA800A3E0F5838882E0F8A3E0F58388821223F3
:103EB80083740112232B80398E828F83A3A3A3A33B
:103EC800A3A3A3A3A31225AF900D361221EB1206CC
:103ED80014740212232BE9601879018E828F83A350
:103EE800A3A3A3A3A3A3A3A3E0FAA3E0FB12060E34
:103EF800E902433A7508008E828F83A3E0600302CB
:103F080040188E828F83A3A3A3A3A3E0A2E040035B
:103F1800024018900DD4E0F8A3E0F9E849600302E4
:103F280040187C0E7D007900AA18AB191214B48AC7
:103F3800088B09AA08AB09EE240CF582E43FF58347
:103F4800E0F8A3E0F9E849604675080675090078C5
:103F580008122598EE240CF582E43FF583E024103E
:103F6800FCA3E03400FD740212237312149C740243
:103F780012232B8A088B098508828509838E828FF4
:103F880083A3A3A3A3A3E0A2E2504DD2F0804B8E5B
:103F9800828F83A3A3A3E0FAA3E0FB120B308A0865
:103FA8008B09AA08AB09EA4B602B7508067509004E
:103FB8007808122598EA2405FCE43BFD74021223D4
:103FC8007312149C740212232B8A088B09850882A9
:103FD80085098380A802433AC2F0A2F0E433F87955
:103FE80000740C122361E048F0A3E049F0EEFCEF06
:103FF800FDAA18AB191212AAE970127A027B009076
:104008000D20E0F91214F0E9790002433C75081517
:10401800900D3AE0F8A3E0F9E849606F900D3AE0B6
:10402800F8A3E0F5838882A3A3E0F8A3E0F9E849C0
:1040380060598E828F83A3E0FC79018E828F83A3DF
:10404800A3A3E0FAA3E0FB900D3AE0F8A3E0F58320
:104058008882A3A3E0F8A3E0F5838882122383E58E
:10406800086028AC0879038E828F83A3A3A3E0FAA3
:10407800A3E0FB900D3AE0F8A3E0F5838882A3A3C0
:10408800E0F8A3E0F583888212238302433A8E0A7C
:104098008F0B850A82850B83A3E0640660030241C7
:1040A80046850A82850B83A3A3A3E0FAA3E0FB124B
:1040B8000B308A0C8B0D850C08850D09E508450920
:1040C800607C901A33E01460081460281460438000
:1040D8006D7C007D00850882850983A3A3A3A3E0E6
:1040E800F9850A82850B83A3A3A3E0FAA3E0FB1258
:1040F8001316804A7C05850A82850B83A3A3A3E057
:10410800FAA3E0FB850882850983E0F91205F6E940
:10411800802C7C007D0079007A097B04121256E914
:10412800F50C7C05850A82850B83A3A3A3E0FAA37B
:10413800E0FB850882850983E0F91205F6E9900D10
:104148003AE0F8A3E0F9E8496045900D3AE0F8A3B1
:10415800E0F5838882A3A3E0F8A3E0F9E849602F9B
:104168008E828F83A3E0FC7902850A82850B83A364
:10417800A3A3E0FAA3E0FB900D3AE0F8A3E0F583EF
:104188008882A3A3E0F8A3E0F58388821223830240
:10419800433A7C007D00EE2404FAE43FFB8E828FD4
:1041A80083A3A3A3E0F912126EE9F8E8C3940A50B6
:1041B80016EE240AFCE43FFD7A0475F006E8A42410
:1041C80025F91215E6E9F802433A900D35E0601931
:1041D800901A30E0F98E828F83A3A3A3E0FAA3E0BC
:1041E800FB12060EE9F802433A901A2DE070167990
:1041F800058E828F83A3A3A3E0FAA3E0FB12060E29
:10420800E9F802433A8E828F83A3A3A3E0FAA3E0DE
:10421800FB120B308A0A8B0B850A08850B09E50807
:104228004509700302433A8E828F83A3A3A3A3A3F5
:10423800A3A3E0A2E0506D850882850983A3A3A308
:10424800A3E060608E828F83A3A3A3A3A3A3A3A3E9
:10425800A3E0F50AA3E0F50B7409780A1222F3E546
:104268000A5401F8E50B5400F9E8A2E04036740E50
:1042780012237BE5082405FAE43509FB85088285C5
:104288000983A3A3A3A3E0F912126EE970167903B8
:104298008E828F83A3A3A3E0FAA3E0FB12060EE9A4
:1042A800F802433AEE2405FCE43FFD8508828509BF
:1042B80083A3A3A3A3E0F98E828F83A3A3A3E0FA29
:1042C800A3E0FB121316900D3AE0F8A3E0F9E849D1
:1042D8006060900D3AE0F8A3E0F5838882A3A3E03C
:1042E800F8A3E0F9E849604A7C0079008E828F8360
:1042F800A3A3A3E0FAA3E0FB900D3AE0F8A3E0F54E
:10430800838882A3A3E0F8A3E0F58388821223833D
:1043180080208E828F83A3A3A3E0FAA3E0FB12126E
:1043280068800F8E828F83A3A3A3E0FAA3E0FB1219
:1043380012627901741412232B7F0602245774F435
:1043480012238574F2122315890AEAFEEBFF8C0BFF
:10435800AC18AD197A0E75F006E50AA42420F912F6
:1043680015ECE970607C0679FFAA18AB19121514D0
:10437800E97052740C122361E0F8A3E0F9E8F5083B
:10438800E50B6005EE42088004EEF45208A80879AF
:1043980000740C122361E0687003A3E06960227561
:1043A8000900740C122361E508F0A3E509F0AC18C4
:1043B800AD197A0E75F006E50AA42420F91215E65F
:1043C800E9790180027900740E12232B7F040224FC
:1043D8005774F212238574E6122315890A8A088B0A
:1043E80009ECFEEDFF740C12237B7A0E75F006E5DE
:1043F8000AA42420F91215ECE960030244FC7C06A7
:1044080079FF740C122373121514E960030244FC3B
:10441800AC18AD197A0C7470250AF91215ECE9601C
:10442800030244F8750B00AA18AB191212A4E50888
:104438004509702D7C0C7900AA18AB19121514E9DE
:1044480060030244DE7C0C7D007900AA18AB1912C7
:1044580014B48A088B09850882850983750B018045
:1044680075AC18AD19AA08AB0912129E8A0C8B0DEF
:10447800A80CA90DE849702EEE4F601BAC18AD19B9
:104488007A007B0012129E8A0C8B0DAA0CAB0DEAE7
:10449800F8EBF9EA4B70047900805B88828983E540
:1044A80008F0A3E509F088828983A3A3E0FA7B00DA
:1044B800EE6A7002EF6B601EEEC0E088828983A30B
:1044C800A3D0E0F0EE4F700B888289837400F0A3CC
:1044D8007400F0750B01E50B6016AA18AB191212DF
:1044E800A4AC18AD197A0C7470250AF91215E6E90E
:1044F800790180027900741A12232B7F060224574F
:1045080074F71223857E0080010EEEC39404504B8D
:10451800EEF87900E875F003A4C8AFF075F000A4D0
:104528002FFF75F003E9A42FF9EC28F582ED39F592
:1045380083E06A7003A3E06B70CFEEF87900E8754A
:10454800F003A4C8AAF075F000A42AFA75F003E9EC
:10455800A42AF9EC28FAED39FB80047A007B007F65
:104568000102245774F71223857C00024612ECF8E6
:104578007900E875F003A4C8ADF075F000A42DFD2E
:1045880075F003E9A42DF9EA28F582EB39F583E003
:10459800F4FEA3E0F4FFECF87900E875F003A4C892
:1045A800ADF075F000A42DFD75F003E9A42DF9EA2E
:1045B80028F582EB39F583EEF0A3EFF0ECF87900FB
:1045C800E875F003A4C8ADF075F000A42DFD75F0F2
:1045D80003E9A42DF9EA28F582EB39F583A3A3E0D2
:1045E800F4C0E0ECF87900E875F003A4C8ADF07504
:1045F800F000A42DFD75F003E9A42DF9EA28F58251
:10460800EB39F583A3A3D0E0F00CECC3940450037A
:104618000245767F0102245774F012238574F41240
:104628002315EAFEEBFF8C088D09900DD4E0F8A362
:10463800E0F9E849702CEE4F6006E5084509700579
:1046480079010248C9EEFAEFFB1212C2E9901A3456
:10465800F0901A34E0C3940A40081212D4E9901A70
:1046680034F0901A34E0C3940A40030248C7900D0E
:10467800D4E0F8A3E0F9E8496003024718EEFCEF3C
:10468800FD7A0E75F006901A34E0A42420F912156C
:10469800E6E9F50C7C0C7D0079FFAA18AB19121419
:1046A800B48A0E8B0F850E0A850F0BAC18AD197ADC
:1046B8000C901A34E02470F91215E6E9F50D750E20
:1046C8000E750F00780E122598EEFCEFFD901A3447
:1046D800E0F87900E875F00EA4C8AAF075F000A417
:1046E8002AFA75F00EE9A42AF9743C28FA740D39EF
:1046F800FB12149C740212232B8A0E8B0FA80EA98E
:104708000F900DD4E508F0A3E509F079000248C937
:10471800900DD4E0F8A3E0C82406F582C83400F56B
:1047280083E0F8A3E0F9E8496042900DD4E0F8A3EB
:10473800E0C82406F582C83400F583E0FCA3E0FD58
:104748007A1B75F006901A34E0A42421F91215E6B4
:10475800E9F8900DD4E0F9A3E0C92406F582C9343C
:1047680000F5837400F0A37400F0809F900DD4E0EE
:10477800F8A3E0C8240AF582C83400F583E0F8A35A
:10478800E0F9E8496043900DD4E0F8A3E0C8240AB2
:10479800F582C83400F583E0FCA3E0FD7A1B75F0D0
:1047A80006901A34E0A42422F91215E6E9F8900DCF
:1047B800D4E0F9A3E0C9240AF582C93400F583746A
:1047C80000F0A37400F0024713900DD4E0F8A3E0C2
:1047D800C8240CF582C83400F583E0F8A3E0F9E8B2
:1047E800496043900DD4E0F8A3E0C8240CF582C8D2
:1047F8003400F583E0FCA3E0FD7A1075F006901A0A
:1048080034E0A42423F91215E6E9F8900DD4E0F970
:10481800A3E0C9240CF582C93400F5837400F0A321
:104828007400F0024713900DD4E0F8A3E0C8240800
:10483800F582C83400F583E0F8A3E0F9E849606F31
:10484800900DD4E0F8A3E0C82408F582C83400F538
:1048580083E0FCA3E0FD7A1075F006901A34E0A41A
:104868002424F91215E6E9FE900DD4E0F8A3E0C877
:104878002408F582C83400F583E02410FCA3E03452
:1048880000FD7A0475F006901A34E0A42425F91284
:1048980015E6E9F8900DD4E0F9A3E0C92408F582FB
:1048A800C93400F5837400F0A37400F00247139034
:1048B8000DC8E060031213341213107901800279D5
:1048C80001740C12232B7F0802245774F7122385D6
:1048D80074F2122315E9FEAC18AD197A0E75F006BC
:1048E800EEA42420F91215ECE9700E740C12236161
:1048F800E0F8A3E0F9E8F980027900740E12232B9E
:104908007F0102245774F412238574F21223158947
:1049180009EAFEEBFFE509C3940A5004EE4F700460
:1049280079028041AC18AD197A0E75F006E509A434
:104938002420F91215ECE9F508E5087026750A0631
:10494800750B00780A122598740212237BEEFAEF91
:10495800FB12149C740212232B8A0A8B0B850A8281
:10496800850B83A908740E12232B7F040224577425
:10497800F4122385EAFEEBFF75080080020508E5BE
:1049880008C3940A503F750A06750B00780A122569
:1049980098EEFCEFFDA8087900E875F00EA4C8AA07
:1049A800F075F000A42AFA75F00EE9A42AF9744209
:1049B80028FA740D39FB1214AE740212232BE96025
:1049C800BCA9088002790A7F0402245774F41223D0
:1049D80085EAFEEBFF75080080020508E508C39428
:1049E8000A503F750A06750B00780A122598EEFCE6
:1049F800EFFDA8087900E875F00EA4C8AAF075F0D4
:104A080000A42AFA75F00EE9A42AF9743C28FA746D
:104A18000D39FB1214AE740212232BE960BCA908ED
:104A28008002790A7F0402245774F712238574F0F0
:104A3800122315EAFEEBFF75080080020508E50859
:104A4800C3940A5035AC18AD197A1075F006E5080C
:104A5800A42423F91215ECE970E27C1079FFAA1856
:104A6800AB19121514E970D4EEFCEFFDAA18AB19B6
:104A78001205DEE970C6A9088002790A74101223AB
:104A88002B7F0102245774F4122385750800024B0A
:104A98005EA8087900E875F00EA4C8AAF075F000C1
:104AA800A42AFA75F00EE9A42AF9743C28FC740DBE
:104AB80039FD7A0E75F006E508A42420F91215ECE4
:104AC800E97003024B5C7C067D0079FFAA087B0035
:104AD800EA75F00EA4CAA8F075F000A428F875F0DD
:104AE8000EEBA428FB743C2AFA740D3BFB1214B499
:104AF8008A0A8B0BAE0AAF0B7C067D0079FFAA08E9
:104B08007B00EA75F00EA4CAA8F075F000A428F896
:104B180075F00EEBA428FB74422AFA740D3BFB12C5
:104B280014B48A0A8B0BAC0AAD0BA8087900E87597
:104B3800F00EA4C8AAF075F000A42AFA75F00EE9E0
:104B4800A42AF9744828F582740D39F5837400F0A5
:104B5800A37400F00508E508C3940A5003024A99B3
:104B6800900DC8E060031213341213107F0402245E
:104B78005774F71223857E0080010EEEC3940A5005
:104B88002F7C0679FFEEFA7B00EA75F00EA4CAA81E
:104B9800F075F000A428F875F00EEBA428FB743C1F
:104BA8002AFA740D3BFB121514E960CEEEF9800267
:104BB800790A7F0102245774F71223857E007F004B
:104BC80080337C0679FFC9FDC9EFF87900E875F0F4
:104BD8000EA4C8AAF075F000A42AFA75F00EE9A48C
:104BE8002AF9743C28FA740D39FBCDF9CD12151445
:104BF800E970010E0FEFC3940A40C7EEF97F010276
:104C0800245774F712238579007E008008EEF91284
:104C180012E6E9F90EEEC3940A5003E960EF7F014A
:104C280002245774F012238574CB12231589099036
:104C38001A34E06509701D7A017B00900D20E0F9B7
:104C48001214F6E97A027B00900D20E0F91214F6AE
:104C5800E9121340901A35E0650970137A047B0055
:104C6800900D20E0F91214F6E9901A35740AF074E0
:104C78002712237B7A0E75F006E509A42420F91281
:104C880015ECE96003024D7E7C0679FF7427122338
:104C980073121514E96003024D7E7C0E7D0079FFC6
:104CA80074271223731214B48A0A8B0B850A0C8595
:104CB8000B0D7C1B7D0079FF740C1223731214B446
:104CC8008A0E8B0F850E0A850F0B7C0C7D0079FFF1
:104CD800AA18AB191214B48A0E8B0FAE0EAF0F744C
:104CE8002712237B7A0E75F006E509A42420F91211
:104CF80015E6E9F508740C12237B7A1B75F006E5B6
:104D080009A42421F91215E6E94208740C12237B40
:104D18007A1B75F006E509A42422F91215E6E94282
:104D280008740C12237B7A1075F006E509A4242375
:104D3800F91215E6E94208740C12237B7A1075F013
:104D480006E509A42424F91215E6E94208740C12B0
:104D5800237B7A0475F006E509A42425F91215E6E3
:104D6800E94208AC18AD197A0C74702509F91215C6
:104D7800E6E942088003750800A908743512232B58
:104D88007F0802245774F7122385E9FEEE900D2060
:104D9800F01212CE7A367B1A12073A7F0102245794
:104DA80074F6122385EAFEEBFFEE5400F8EF548008
:104DB800F9E8496035900D20E0F91214D88A088B7B
:104DC80009A808A90988088909E8496012AA08AB4E
:104DD800091212F8E96008AA08AB091214C6E9EE2C
:104DE8006400FAEF6480FB024F29EE5402603E7CB7
:104DF800007D007A007B001212AAE960187A017B14
:104E080000900D20E0F91214F0E9EE6402FAEF6464
:104E180000FB024F297A027B00900D20E0F9121462
:104E2800F0E9EE6402FAEF6400FB024F29EEA2E01B
:104E38004003024EFD900DD4E0F8A3E0F58388828C
:104E4800A3A3A3E0FAA3E0FB12133AE97003024E0E
:104E5800E6900D3AE0F8A3E0F9E8496074900D3A5D
:104E6800E0F8A3E0F5838882A3A3E0F8A3E0F9E8DB
:104E780049605E7C007901900DD4E0F8A3E0F583E9
:104E88008882A3A3A3E0FAA3E0FB900D3AE0F8A37D
:104E9800E0F5838882A3A3E0F8A3E0F58388821273
:104EA80023837C007903900DD4E0F8A3E0F5838890
:104EB80082A3A3A3E0FAA3E0FB900D3AE0F8A3E0F5
:104EC800F5838882A3A3E0F8A3E0F5838882122300
:104ED80083121340EE6401FAEF6400FB80437A0109
:104EE8007B00900D20E0F91214F0E9EE6401FAEF6E
:104EF8006400FB802CEE54046023901A35E0C394C0
:104F08000A5010901A35E0F9121322E9F8901A3570
:104F1800740AF0EE6404FAEF6400FB80047A007B04
:104F2800007F0202245774F71223857E018A828B40
:104F380083E02450600E14601024E1700F12128C6C
:104F4800E9FE80081212FE8003121304EEF97F01B5
:104F580002245774F7122385EAFEEBFF8E828F83B3
:104F6800A3A3A3A3E0641E701179008E828F83A38C
:104F7800A3E0FAA3E0FB121274E98E828F83A3A345
:104F8800A3A3E0F9EE2405FAE43FFB1208547F01DD
:104F9800022457C082C0838A828B83A3A3A3A3E081
:104FA80070308A828B83A3A3A3A3A3A3A31225AFE4
:104FB8008A828B83A3A3A3A3A3E0FCA3E0FD8A8238
:104FC8008B83A3A3E0FAA3E0FB12127A74021223E4
:104FD8002BE9D083D082020132C082C083900D2099
:104FE800E0F98A828B83A3E0FAA3E0FB1208F6E9D2
:104FF800D083D082020132C082C08374FF1223158D
:105008001212DAE9C39402400B8518828519837459
:1050180002F08009851882851983740AF0AC18ADEE
:10502800197A017905120728E9740112232BD08314
:10503800D08202013274F212238574E8122315EA31
:10504800FEEBFF890A8C088D097C187D007900AA7F
:1050580018AB191214B48A0C8B0DAC0CAD0D851855
:1050680082851983EEF0A3EFF0900D22E0C0E07482
:1050780002122361D0E0F0900D23E0C0E074031227
:105088002361D0E0F0901A32E0C0E0741712236177
:10509800D0E0F07415122361E054FEFAA3E054FF47
:1050A800FB901A31E0A2E0E433F87900EA48F8EB23
:1050B80049F97415122361E8F0A3E9F0901A31E078
:1050C800A2E15004D2F08002C2F07415122361E00C
:1050D80054FDFAA3E054FFFBA2F0E433F87900E8AA
:1050E80028F8E933F9EA48F8EB49F974151223610D
:1050F800E8F0A3E9F0901A31E0A2E45004D2F0807D
:1051080002C2F07415122361E054FFFAA3E054FEC2
:10511800FBA2F0E433F87900E4C8F9EA48F8EB496F
:10512800F97415122361E8F0A3E9F0901A31E0A2AE
:10513800E55004D2F08002C2F07415122361E054E5
:10514800FFFAA3E054FDFBA2F0E433F50C750D0063
:105158007409780C122302EA450CF8EB450DF97432
:1051680015122361E8F0A3E9F0901A31E0A2E650A5
:1051780004D2F08002C2F07415122361E054FFFAE1
:10518800A3E054FBFBA2F0E433F50C750D00740AA0
:10519800780C122302EA450CF8EB450DF974151248
:1051A8002361E8F0A3E9F0901A31E0A2E25004D2BA
:1051B800F08002C2F07415122361E054FBFAA3E0F8
:1051C80054FFFBA2F0E433F50C750D007402780C63
:1051D800122302EA450CF8EB450DF9741512236108
:1051E800E8F0A3E9F0900D23E0602A750C10750D26
:1051F80000780C1225987C247D0D7406122361AA70
:1052080082AB8312149C740212232B8A0C8B0D859B
:105218000C82850D83900D34E06012E50A600E74EF
:1052280015122361E04402F0A3E04400F0900D342D
:10523800E06006780179008004780079007414121F
:105248002361E048F0900D21E06006780479008041
:1052580004780079007414122361E048F0AC08ADBA
:1052680009AA18AB19120608E9741812232B7F062D
:10527800022457C082C0837900900D34E060067C18
:10528800017D0080047C007D00ECC949C9900D2196
:10529800E060067C047D0080047C007D00ECC94948
:1052A800C91206DAE9D083D08202013274F51223DA
:1052B8008574F2122315890AAC18AD197A0E75F0A7
:1052C80006E50AA42420F91215ECE9706A7C06792F
:1052D800FFAA18AB19121514E9705C750806750950
:1052E800007808122598A80A7900E875F00EA4C875
:1052F800AAF075F000A42AFA75F00EE9A42AF97448
:105308004228FC740D39FD7408122361AA82AB830C
:1053180012149C740212232B8A088B09AE08AF0959
:10532800AC18AD197A0E75F006E50AA42420F91216
:1053380015E6E9790180027900740E12232B7F03A8
:1053480002245774F412238574FA122315E9FF74A2
:10535800036F60030253E1120B308A088B09A80817
:10536800A909E8496073E82405FAE439FB1212C276
:10537800E9FEEEC3940A5061AA18AB197903120723
:105388002EE9705575080675090078081225987475
:105398000212237BEEF87900E875F00EA4C8AAF093
:1053A80075F000A42AFA75F00EE9A42AF9744228C7
:1053B800FA740D39FB1214A2740212232B8A0A8B79
:1053C8000B850A08850B09EE901A35F07A047B00E4
:1053D800900D20E0F91214F0E9740612232B7F04D3
:1053E80002245774F012238574E5122315EAFEEBA4
:1053F800FF89088C098D0A7408650A700C75F00617
:10540800E508A42422F50B800A75F006E508A42413
:1054180021F50B7C1B7D007900AA18AB191214B476
:105428008A0E8B0F850E0C850F0DAC18AD197A1BE3
:10543800A90B1215ECE97034741A122361E0C394B5
:1054480007C3940A5026742B122361E0F50B780BDE
:1054580012259C740112237BE509A2E0E433F9EEDE
:10546800FAEFFB12061A740112232BE9741B12239C
:105478002B7F0802245774F7122385120956E97EF8
:1054880000805A7C0679FFC9FDC9EEF87900E875F5
:10549800F00EA4C8AAF075F000A42AFA75F00EE977
:1054A800A42AF9743C28FA740D39FBCDF9CD1215EC
:1054B80014E97028EEF87900E875F00EA4C8AAF08F
:1054C80075F000A42AFA75F00EE9A42AF9743C28AC
:1054D800FA740D39FB790012095CE9F80EEEC394F1
:1054E8000A40A07F0102245774F612238574FD1226
:1054F8002315EAFEEBFF900DD6E0F8A3E0F9E849A2
:1055080070397508D875090D78081225987508023C
:10551800750900780812259875089D75098278081C
:105528001225987CFF7DFF7A017B001207767406AE
:1055380012232B900DD6EAF0A3EBF0900DD6E0F8ED
:10554800A3E0F9E84970030256157508FF780812B8
:10555800259CE4F508F509780812259874051223A6
:105568006B880889097808122598740512236B88B6
:105578000889097808122598900DD81225AF790264
:10558800900DD6E0FCA3E0FDEEFAEFFB1208E47400
:105598000912232BE9704A851882851983E0FA7B62
:1055A800007401122361E0F87900E4C8F9EA28F5EB
:1055B80008EB39F509E508450960267808122598A9
:1055C800900DD6E0F8A3E0F5838882A3A3A3A3E017
:1055D800FCA3E0FDEEFAEFFB12127A740212232B01
:1055E800E9E4F508F5097808122598900DD81225F0
:1055F800AF7CFF7DFF900DD6E0FAA3E0FB12078297
:10560800740412232B900DD6EAF0A3EBF0900DD67C
:10561800E0F8A3E0F9E849700479018002790074A0
:105628000312232B7F02022457C082C083900DD41B
:10563800E0F8A3E0F9E8496017900DD4E0FAA3E098
:10564800FB1214C6E9F8900DD47400F0A37400F0AE
:10565800901A34740AF0D083D082020132C082C01A
:1056680083E990193BF0D083D08202013274F6129C
:105678002385E99002EDF090034DE0F508750900E7
:1056880074027808122302AA08AB0912156890025E
:10569800EE1260289002EE126415606F90034DE0E0
:1056A80075F003A4FAABF012156890030B1260288A
:1056B80090030B126415700B9002EE1263E612153C
:1056C8006E804890030B12737A7AFF7BFF121346A1
:1056D8007A0080198A087509007402780812230272
:1056E800126E2274FF125828E4F0A3F00A90034DBA
:1056F800E0F8EAC39840DD79051208729002EDE0FF
:10570800F912075E7AFC7B08120B1E026EC574F450
:105718001223858A088B09EB548060479002EDE0DC
:10572800F91214D88A0A8B0BAE0AAF0BEE4F602A17
:105738008E828F83E064B0701A120884E960148E38
:10574800828F83A3A3A3A3E0F9EE2405FAE43FFB29
:10575800120854EEFAEFFB1214C6AA08E509648091
:10576800FB80047A007B0002597874F21223857456
:10577800FB122315EAFEEBFFEE4F6045740312237C
:1057880061EEF0A3EFF0851882851983ECF0A3EDA4
:10579800F07402122361E9F0AA18AB19120758E94C
:1057A800F50870757413122361E0F50AA3E0F50B90
:1057B800E50A450B60638E828F83125DB1EE4F70F0
:1057C8000575080280537A067B001215688A0C8BCF
:1057D8000DA80CA90DE8497005750813803B88824F
:1057E8008983E4125828EEF0A3EF125944E50AF031
:1057F800A3E50BF09002F112593D9002F16017E019
:10580800FCA3E08003EAFCEBFD8C828D8312593DFA
:1058180070F38C828D83126A3DA90874050275FAAB
:10582800F0A312735CA32274F21223858908890CF1
:10583800750D007403780C122302850C0A850D0B74
:105848009002F0F09002EE12684812593B602E1256
:10585800156E7900801D890C750D007402780C1284
:1058680023029002EE126CE18882F583A3A3E4F090
:10587800A3F00990034DE0F8E9C39840D990034D8F
:10588800E0FA850AF0A4CAA8F0850BF0A428FB1258
:1058980015688A0C8B0DAE0CAF0DEE4F70030259D4
:1058A8003190034DE0FC850AF0A4CCA8F0850BF0FC
:1058B800A428FD79001214B47C0080318D0C750D7C
:1058C800007403780C1223028A828B83125936885B
:1058D800828983E4F0125943A3A3F0A3F00DEDC32A
:1058E800950840D8EE250AFEEF350BFF0C90034DC6
:1058F800E0F8ECC39850288C0C750D007402780CF5
:105908001223029002EE125936E82402500109FAD5
:10591800E9FB8A828B83EEF0A3EFF07D0080BFE580
:10592800089002F0F07900800279130275FD126C7C
:10593800E5F922A3A31263EAEA4B22A312735CA33C
:10594800A3A32274F41223857900EAA2E0501F75FC
:1059580008BD750981780812259879107C047D00A6
:105968007A3D7B1912086C740212232BE9F9800026
:105978007F04022457C082C0839002F1126415602C
:105988001C88828983A3A3E06A7003A3E06B8882E2
:10599800898370E8A3A3A3A31263E680047A007B3B
:1059A8000002566E74F212238574FD122315EAFE66
:1059B800EBFF851882851983E4F0A3F074021223A3
:1059C800617401F01264127014120A521215689070
:1059D80002F41260281264127003025B3E126128FE
:1059E800EE2404F50AE43FF50B850A82F583E024EA
:1059F800FE603C24FC607424FE607E24FE7003027A
:105A08005A8E24FE7003025A9B24FE7003025AA881
:105A180024FE7003025AB524FE7003025AC224FC05
:105A28007003025AE324FE7003025AFB025B37122A
:105A38000A529002F6EAF0A3EB125B4A120434E928
:105A48006003025B379002F61225AF8E828F83A324
:105A5800A3A3A3A312737A8508828509831263E638
:105A680012083C740212232B025B37AC18AD19EEF6
:105A7800FAEFFB12088A025B06AC18AD19EEFAEFD2
:105A8800FB1208908078AC18AD19EEFAEFFB1208FB
:105A980096806BAC18AD19EEFAEFFB12089C805E8D
:105AA800AC18AD19EEFAEFFB1208A28051AC18AD94
:105AB80019EEFAEFFB1208A88044740212236B88CF
:105AC8000C890D780C122598740212237BEEFAEFDC
:105AD800FB1208AE740212232B8023AC18AD19EE0A
:105AE800FAEFFB1208B4E9F870167402122361E4A5
:105AF800F0803CAC18AD19EEFAEFFB1208BAE9F8E1
:105B0800E8602C8E828F83A3E064146022850A8269
:105B1800850B83E09002F6F085188285198312635D
