:020000040000FA
:0600000002011A022D713D
:03002B000234425A
:03003B0002346A22
:030043000233E3A2
:03005300022DE794
:03006B0002340E4E
:10008300022BC7E5C754F84401F5C77901220000E4
:100093000080FB120086B90003020104E479217891
:1000A30008B800028004F709D8FCE479297802B87B
:1000B30000028004F709D8FCE490028178AD791638
:1000C3008002F0A3D8FCD9FA781A90014A7A01BACF
:1000D30000028007E493A3F608DAF97A2D7B1890DF
:1000E300014B785779048015E493A3AD82AE838ADC
:1000F300828B83F0A3AA82AB838D828E83D8E9D9C6
:10010300E775826F7583EB740412012C7582917508
:100113008300740012012C75D00075813F7518811E
:10012300751902759F00020096C09FF59FE473D076
:100133009F22D083D082C09FE493C0E0740193C018
:10014300E0740293F59F2201A905B505E505DF05D6
:10015300FF0000B4000028002800283075A000A08C
:1001630000A000A00000080008E001F0001000104B
:10017300001000100010001000500050005000103C
:10018300001000D0070000000000000F0001000570
:1001930000307507001000010081FF00000000FF20
:1001A300FFFF1D073B0723075F07FF020202080249
:1001B3005000A0000000E80302F190010000DD9070
:1001C30002ED90010000901802E68F010000C402C6
:1001D30002ED90010000911802F790010000DA028D
:1001E30002ED90010000921802FD90010000DC0274
:1001F30002ED900100009318020391080000DD0254
:1002030002ED900100009418020591010000951879
:10021300FF0100FF2002F190010000E09002ED9049
:10022300010000F918021D91000000000002E9908E
:100233000300000B031700B50EB50EB50EB50EB5D2
:100243000EB50EB50EB50EB50EB50EB50EB50EB593
:100253000E131131110D11571269125112020202BC
:10026300020202020202010D000000100102F190DD
:10027300010000E69002ED900100004219020D9189
:10028300010000180D02ED900100004319020B91CB
:10029300010000B98F02ED90010000441902099199
:1002A3000100009D8F02ED900100004519020791A6
:1002B3000100003A8F02ED900100004619020191FE
:1002C300010000288F02ED90010000471902FF9002
:1002D300010000168F02ED900100004819021B91E6
:1002E300010000048F02ED90010000491902FB9008
:1002F300010000AB8F02ED900100004A1902F99052
:100303000100004B1901E803057710020A0A1314D0
:10031300FFFFFF000130750302010600000000002B
:1003230000000000000000000000000000000000CA
:1003330000000000000000FFFF0600800CE803023D
:1003430001060302F0FF15181B1827182D18211892
:100353001A5374617465001A44617465000A446534
:1003630076696365204E616D6520436F6E666967CC
:1003730000184465766963652056657273696F6E0C
:100383000002F190010000E39002ED9004000035BB
:100393001A0213910C0000F81702E9900C0000F602
:1003A3001702EB90040000361A02ED900400003CA3
:1003B3001A021591040000001802E9900C0000FED7
:1003C3001702EB900400003D1A02ED900400004276
:1003D3001A0217910C0000101802EB90040000435E
:1003E3001A02ED90040000561A0219910400002627
:1003F3001802E9900C0000241802EB900400005747
:100403001A0100B0423BAAB83F0000003F8C906342
:1004130039AA0CA33A00941E3C8042633DCFFE757B
:100423003E1572313F0000803FF304353F8096183C
:100433004B30313233343536373839414243444512
:100443004600286E756C6C20706F696E7465722936
:10045300003031323334353637383961626364659D
:1004630066003F3F3F000000807FF9021550B7430D
:10047300BA5100E7DB2E0000A040000080BF2292AB
:10048300D43EDD9B2A3F0400004000000000FFFF34
:100493007F7FFFFF7FFF010080341872313F12011D
:1004A30035E4B804120135F7B80412013528B9044C
:1004B30012013562B904120135BBB90412013502C8
:1004C300BA041201354ABA0412013579BA04120189
:1004D30035A8BA04120135DFBA0412013526BB046C
:1004E3001201353FBB0412013594BB04120135AD33
:1004F300BB04120135FBBB0412013535BC041201E8
:100503003566A80312013569A903120135A2A903AF
:10051300120135C5A903120135D7A90312013515F7
:10052300AA0312013591AA0312013559AB03120133
:10053300357BAB0312013512AC0312013564AC03F6
:1005430012013595AC03120135A2AC031201350C2F
:10055300AD0312013563AD0312013566AD0312011C
:10056300359FAD03120135A2AD03120135ACAD03C6
:1005730012013500AE0312013541AE031201357489
:10058300AE03120135B1AE03120135B3AF0312014D
:100593003557B003120135C0B003120135FEB00365
:1005A30012013544B103120135DAB10312013525C5
:1005B300B20312013589B20312013513B3031201D9
:1005C30035CCB303120135EEB6031201356BB80314
:1005D3001201358EB8031201358BC904120135ABF4
:1005E300C904120135CCCA041201351FCB04120110
:1005F3003565A5041201358DA504120135BAA5048C
:10060300120135F2A50412013550A6041201359CDE
:10061300A60412013503A70412013543A7041201EE
:100623003580A704120135AEA70412013558A8047A
:1006330012013562A8041201356FA804120135A214
:10064300A804120135AEA804120135C6A80412018C
:1006530035D0A804120135F3E70412013501E8048B
:1006630012013519E80412013530E80412013598F6
:10067300A50212013542A60212013555A702120145
:1006830035D1A702120135EFA8021201352BA902B9
:10069300120135C6A902120135AAAA021201356D4B
:1006A300AB02120135E5AB0212013573AD02120143
:1006B30035E4AD021201359EAE0212013590AF0250
:1006C300120135D0AF0212013584B002120135B6E2
:1006D300B002120135ACB202120135F3B2021201BB
:1006E3003511B30212013577B30212013546B40254
:1006F3001201350AB50212013529B7021201353349
:10070300B70212013523D9031201350DDA031201A1
:1007130035B8DA0312013509DB03120135B9DB03FE
:100723001201352ADC031201350FDD0312013543B3
:10073300DD031201353CDE0312013579DE031201BC
:100743003555DF0312013594DF03120135B0DF03A2
:1007530012013571D704120135F5D7041201352082
:10076300D8041201353AD9041201355EA9041201E5
:100773003574A90412013592A904120135A3AA0400
:10078300120135ADAA04120135D8AB04120135CFDD
:10079300AC041201353CAD0412013546AD0412011F
:1007A3003598F902120135CEFA0212013548FB02DF
:1007B30012013578FB021201358BFB02120135E27F
:1007C300FB02120135F7FD021201350493021201F7
:1007D30035909302120135F494021201350095020B
:1007E3001201353B9502120135AA9502120135B368
:1007F3009602120135BC9702120135839802120149
:1008030035E09902120135FE99021201351B9A0255
:10081300120135C89A02120135459B021201356D4A
:100823009B02120135379E021201353C9E021201D2
:100833003555A002120135A3A00212013513A102FE
:1008430012013551A1021201352DA202120135ED1B
:10085300A20212013539A3021201353CA30212018F
:100863003580A302120135C8A30212013507A40281
:1008730012013529A4021201355DA402120135C00B
:10088300A4021201351B85041201352985041201C6
:10089300357C85041201359B8504120135E08504FE
:1008A300120135248704120135BF87041201350371
:1008B30088041201352D88041201359C8804120125
:1008C30035E288041201355989041201350A8A0474
:1008D300120135E15500120135F15500120135922F
:1008E3005600120135EE5600120135AB57001201C6
:1008F30035C75800120135F958001201352859003F
:10090300120135D55A001201354C5D00120135BC78
:100913005F00120135AE6000120135A761001201BC
:1009230035AE6300120135A26600120135D16700AE
:10093300120135D56900120135E56A0012013574DB
:100943006C00120135656D00120135B36D001201A3
:1009530035226E00120135466E00120135976E0086
:100963001201353873001201353974001201359ABA
:100973007400120135C574001201358B7500120124
:10098300351C8A04120135268A041201356B8A0448
:100993001201357F8A041201350F8B041201354889
:1009A3008B04120135838B04120135AC8B041201C5
:1009B30035FA8B041201350F8C04120135248C0493
:1009C3001201354C8C04120135618C04120135750A
:1009D3008C04120135898C041201359E8C0412019A
:1009E30035D88C04120135FC8C04120135288D0492
:1009F3001201355F8D04120135C18D0412013533A7
:100A03008E04120135768E04120135A08E04120174
:100A130035CB8E0412013532E504120135A7E1020C
:100A23001201358AE20212013505E3021201354053
:100A3300E30212013591E4021201351AE5021201B3
:100A43003532E702120135C4E90212013576EA02B2
:100A530012013582EB02120135F5EC021201354E1B
:100A6300ED021201353AF8031201357DF803120144
:100A73003501F903120135D4F903120135ABFC0337
:100A83001201355DFD031201350AFE03120135170C
:100A9300FF0312013556FF03120135B0FF031201A4
:100AA3003569D904120135CCD90412013569DA0448
:100AB3001201359EDA04120135CEDA04120135EF44
:100AC300DA041201352ADB041201354ADB04120170
:100AD30035F38E041201357F8F041201353E9004E5
:100AE300120135569104120135709304120135F742
:100AF300ED021201351CEE02120135E9EE0212017C
:100B030035BDEF021201352AF00212013580F002E1
:100B13001201351CF10212013550F2021201352B7C
:100B2300F3021201358AF30212013516F40212019F
:100B33003584F40212013510F50212013513F50262
:100B43001201355DF502120135CFF502120135614F
:100B5300F60212013502F70212013522F7021201E1
:100B6300356AF702120135B3F702120135CFF702E6
:100B7300120135F5F7021201356FF8021201357DC6
:100B8300F8021201350CF90212013575F90212014E
:100B9300353E9804120135C39804120135059904B2
:100BA300120135E99904120135569A041201359A56
:100BB3009A04120135DE9A041201350B9B041201CB
:100BC30035339B041201356B9B04120135A99B0439
:100BD300120135D09B041201354A9C04120135944D
:100BE3009C041201358DAD0112013586AF0112014E
:100BF3003572B201120135C6B201120135F1B201EB
:100C0300120135CBB3011201350AB401120135517A
:100C1300B40112013564B401120135A5B401120106
:100C230035D2B40112013520B5011201355FB5018A
:100C33001201358AB501120135DDB5011201356C9A
:100C4300B6011201354AB90112013565BB01120122
:100C530035A3BB0112013518BD0112013575BD0164
:100C63001201358EBF01120135F0BF011201357833
:100C7300C001120135C7C0011201350DC1011201B6
:100C830035EBC201120135B9C401120135BEC401ED
:100C930012013598C50112013511C6011201354102
:100CA300C70112013553C7011201356895031201BB
:100CB30035E79503120135E09B03120135E69C03EA
:100CC300120135599E03120135F09E031201351F9F
:100CD30091011201356891011201359591011201BB
:100CE30035C79101120135D39101120135DF91010D
:100CF300120135F69101120135D192011201352FFE
:100D03009301120135649301120135959401120187
:100D130035E29401120135289501120135949501AC
:100D2300120135389601120135EE96011201354D47
:100D33009701120135BE97011201351C980112016A
:100D4300354E9901120135B69A01120135809B0186
:100D53001201358D9B01120135CF9B01120135DF45
:100D63009B01120135039C01120135069C011201FE
:100D730035F29C011201358E9D01120135279E012A
:100D8300120135BE9E01120135EB9E011201354958
:100D93009F01120135909F01120135E09F0112015D
:100DA3003530A001120135A2A0011201353DA10188
:100DB300120135E8A10112013587A201120135059F
:100DC300A3011201354CA301120135B0A301120195
:100DD30035DFA30112013576A40112013588A6017E
:100DE300120135CCA60112013517A7011201359D59
:100DF300A70112013527A80112013540A9011201EB
:100E030035C6A90112013503AA0112013518AA0139
:100E13001201358BAA01120135D0AA01120135D96D
:100E2300AB011201358AAC01120135E8AC011201A4
:100E33003544AD011201355DAD011201351A9F0331
:100E43001201356E9F031201357A9F031201354457
:100E5300A00312013571A0031201359FA0031201F3
:100E6300350BA10312013541A1031201357AA10308
:100E730012013592A103120135E7A10312013500D6
:100E8300A20312013545A20312013558A203120130
:100E93003572A20312013588A203120135A6A303FA
:100EA300120135D1A403120135BBA503120135ACE0
:100EB300A603120135E97F001201350080041201F7
:100EC30035838304120135D084041201352BD502F6
:100ED300120135FED70212013504D80212013594EE
:100EE300DA02120135F7DC02120135A7930412016D
:100EF300353E9404120135FC940412013526950401
:100F03001201350097041201350598041201357654
:100F1300C701120135A8C701120135C5D30112015A
:100F23003516D5011201351FD6011201359ED701A1
:100F330012013589D801120135D8D801120135F2D1
:100F4300D80112013534D9011201353FD9011201FB
:100F53003586D9011201358FD9011201353BDA01EA
:100F630012013514DB011201355BDB01120135C3BC
:100F7300DB0112013505DC0112013533DC011201FD
:100F83003570DC01120135008002120135CB83027A
:100F9300120135D18302120135758A02120135C956
:100FA3008E02120135B2920212013511B5041201FB
:100FB3003587B5041201359DB5041201352DB604EC
:100FC3001201356AB604120135A4B604120135DEE6
:100FD300B60412013551B70412013592B704120158
:100FE300359BB704120135A7B704120135C6B70400
:100FF300120135F0B70412013505B8041201352D7D
:10100300B8041201358FB804120135B6B8041201C1
:101013003511E00312013524E0031201353EE003EC
:101023001201356BE003120135B1E003120135E41F
:10103300E00312013522E10312013587E1031201B6
:10104300359CE103120135A7E103120135B4E10335
:10105300120135CBE103120135D9E103120135E861
:10106300E103120135FDE10312013512E20312011E
:10107300351DE20312013529E20312013536E2037D
:1010830012013549E20312013554E20312013579A5
:10109300E2031201351DE3031201352DE3031201AF
:1010A3003542E3031201355CE30312013579E303AF
:1010B30012013596E303120135A1E3031201354D05
:1010C300E4031201352EE50312013553E503120142
:1010D300355EE50312013573E50312013587E50338
:1010E300120135E8E503120135EEE503120135F48B
:1010F300E503120135FAE50312013512E603120185
:101103003545E603120135108B03120135328B038B
:10111300120135FA8B03120135B48E03120135CA5D
:101123008F03120135EB9003120135C591031201B0
:1011330035749203120135A8C7021201353FC80264
:10114300120135D7C802120135C7C902120135FE93
:10115300C90212013511CA021201357FCA021201F6
:10116300351ACC0212013541CC02120135E3CC020F
:1011730012013518CD0212013529CD02120135A213
:10118300CD02120135C3CD02120135DBCD021201AE
:101193003533CF021201353CD1021201358CD30213
:1011A3001201358FD402120135DED402120135FD4E
:1011B300F001120135FAF101120135E5F2011201D4
:1011C30035EFF201120135F9F2011201351BF3017A
:1011D30012013527F30112013579F401120135A803
:1011E300F401120135D8F5011201351AF601120185
:1011F3003546F7011201351CF8011201356EF8016D
:10120300120135CDF80112013504F9011201353F00
:10121300F901120135DAFC01120135F3FC01120167
:101223003575FD0112013583FD01120135D8FD012C
:10123300120135E6FD0112013553FE01120135C5D8
:10124300FE011201350BFF0112013500800312016B
:10125300352280031201350C8203120135B1850357
:10126300120135F48603120135CE870312013510BE
:10127300DD0412013535DD04120135A6DD0412014A
:101283003531C2031201353AC20312013543C20399
:1012930012013574C30312013593C503120135C915
:1012A300C50312013503C60312013539C603120102
:1012B3003573C603120135A7C603120135D3C6031E
:1012C3001201351CC70312013556C7031201359E9F
:1012D300C703120135F4C70312013529C8031201EC
:1012E3003584C803120135BEC8031201350FC90383
:1012F30012013545C9031201357FC903120135AD0A
:10130300C903120135D0C90312013584E90412015E
:1013130035B0E9041201350BEA0412013515EA046C
:1013230012013525EA04120135D49C04120135FB60
:101333009C041201352B9D041201352FEA0412017E
:1013430035EC3400120135073800120135F7390046
:10135300120135693A00120135273B00120135D2DB
:101363003B00120135623C00120135F13C001201D1
:10137300351B3D00120135883D00120135C2420084
:10138300120135554300120135844400120135E83A
:1013930044001201359C45001201354F48001201EB
:1013A30035894800120135F34800120135504900D0
:1013B300120135AD49001201350A4A00120135F513
:1013C3004A001201353B4B00120135864B001201D6
:1013D30035A74B00120135094D00120135244D008C
:1013E300120135AA4E00120135D74E0012013517EE
:1013F3004F001201355D4F001201357B4F00120182
:1014030035B94F00120135F7510012013530520042
:10141300120135C75200120135675300120135FA24
:1014230053001201356C5400120135AD5500120101
:1014330035EFF20312013583F303120135C2F403CE
:101443001201354BF5031201351EF6031201354720
:10145300F603120135AEF60312013516F703120136
:101463003546E60412013557E604120135A5C604D4
:1014730012013570C904120135BEFF02120135B3E2
:10148300E104120135C3E104120135E3E104120161
:1014930035DFE2041201352CCC04120135C7CC042C
:1014A300120135BDCE0412013552D3041201357F2A
:1014B300D304120135EED30412013501D404120111
:1014C3003513D50412013551D50412013554D50411
:1014D300120135C6DE04120135EBDE0412013512AA
:1014E300DF0412013539DF0412013561DF04120113
:1014F3003599DF0412013533A10412013555A104D6
:10150300120135E7A104120135E5A204120135D613
:10151300A40412013536A50412013547A5041201AE
:1015230035F87F001201353FD104120135E3D204AF
:101533001201354FD3041201353AB1041201353784
:10154300B304120135F7B3041201356CB40412016C
:1015530035CCB404120135CFB404120135DDB40423
:10156300120135F5B40412013503B504120135CC6B
:10157300EB04120135DCEB0412013560E0041201C7
:101583003595E004120135BFE004120135DFE004B4
:1015930012013531D2031201353FD20312013585D1
:1015A300D203120135D8D20312013520D30312011D
:1015B300357AD3031201359BD303120135A9D30323
:1015C30012013505D40312013538D4031201354B0A
:1015D300D403120135D6D4031201356FD50312019A
:1015E30035ECD50312013525D603120135ADD603EB
:1015F30012013504D70312013561D7031201357384
:10160300D70312013599D703120135A2D70312016B
:1016130035EFD80312013558DB04120135B9DB0469
:1016230012013556DC04120135BCDC041201359D70
:10163300BC04120135D0BC04120135F7BD041201FC
:10164300351CBE04120135F8BE04120135F0E20464
:10165300120135BCE304120135D8CE041201351D45
:10166300CF041201355DCF04120135FAD004120103
:101673003523E7041201353EE7041201354EE70432
:10168300120135B3E704120135C0E804120135F73E
:101693007500120135D376001201351A7700120155
:1016A30035577700120135C377001201351B7800D7
:1016B3001201358B78001201355B79001201354434
:1016C3007A00120135BB7A00120135507C001201F9
:1016D30035DB7C001201354A7D00120135C27D00E5
:1016E300120135D97D00120135027F0012013554F4
:1016F3007F0012013533ED0312013553ED0312015F
:101703003543EE031201358CEE03120135ACEE03C3
:10171300120135EAEE0312013545EF031201358359
:10172300EF03120135CDEF0312013575F2031201F8
:1017330035DEF203120135B1B903120135C3B90322
:10174300120135D4B903120135E4B9031201352668
:10175300BA0312013537BA0312013536BC0312013D
:101763003567BC0312013598BC03120135ABBC03CA
:1017730012013500BD0312013531BF03120135B823
:10178300C103120135A4DD01120135BDE2011201CD
:1017930035B4E501120135DAE50112013503E6013D
:1017A300120135B5E60112013596E801120135B192
:1017B300E901120135CAE901120135C0EE01120136
:1017C30035F9EE011201353DEF011201354AF00101
:1017D30012013534C00412013568C004120135DA30
:1017E300C004120135F3C004120135F6C00412011E
:1017F300355DC10412013539C3041201355ECA03D4
:1018030012013510CE0312013520CF031201353DED
:10181300CF031201355CCF0312013548D003120107
:101823003559D00312013574D103120135C2D103E6
:10183300120135C7E603120135D5E703120135F26C
:10184300E7031201358DE9031201355DEA03120145
:101853003552EB03120135DDFF02120135C4C30417
:1018630012013514E40412013594FF011201353DD0
:10187300B70212013550BC0212013562D5041201C0
:10188300351FEC04120135BD7F0012013550AD0444
:10189300120135D9EA0412013503EB04120135654F
:1018A300EC04E066701008A3E066700A08A3E06623
:1018B300700408A3E06622C008C3E096F50808A3F5
:1018C300E096420808A3E096420808A3E09642087F
:1018D300A2D265D033E5087001D3D00822C3E796BE
:1018E3000809E7960809E7960809E79622C3E096F0
:1018F30008A3E09608A3E09608A3E09622C008C3D5
:10190300E096F50808A3E096420808A3E09642088B
:1019130008A3E09645087001D3D00822080808E61A
:1019230030E7111221D9121937080808C64480C6B6
:1019330018181822181818E9799EC608CAC608CBC1
:10194300C608CCC6C370207996CACBCC7019798EE1
:10195300CBCC70137986CC700EF9802ACA33CACBEC
:1019630033CBCC33CC331930E7F2CCCBCA3350145E
:101973007004EA30E00DE4CA3ACACB3BCBCC3CCC92
:10198300500209C3E913C6CC182313C6CB18C6CA21
:1019930018C6F9221219D720F01430E72B74FFFC74
:1019A300FBFA747F8022E4FCFBFA7480801AB48013
:1019B30008BC00F2BB00EF800F50EBF9E4C39AFAC6
:1019C300E49BFBE49CFCE499C6CC18C6CB18C6CABE
:1019D30018C6F922E4C9C608CAC608CBC6D333035E
:1019E30008CCC63392F0C3947F402E94184019C993
:1019F300B90704CACBCC225025C309CA33CACB3397
:101A0300CBCC33CC33D9F422F4600DC9CCC313CB84
:101A130013CBCA13CAD9F6CC22E4FCFBFA2214FC7A
:101A2300FBFA22E62618461846184622E7271947E6
:101A33001947194722181818E60846087009E626B8
:101A4300087005E633F4220822191919E709470932
:101A53007009E727097005E733F4220922E60846EF
:101A630008C3134608336002E633F422E709470943
:101A7300C3134709336002E733F422121A60602567
:101A8300121A6F6020121A267003021A2F08080810
:101A9300E76670101819E766700A1819E76670048C
:101AA3001819E76622F422121A60601C121A6F607A
:101AB30017121A267007121A2F7001D322C0D012E0
:101AC3001A2F7006D0D0B322C32233D0D050143093
:101AD300E0F6C3E7960809E7960809E7960809E7D9
:101AE30096B32220E0D5E6970809E6970809E6971A
:101AF3000809E697B322121A60601B121A6F601668
:101B0300121A267007121A2F600CB322C0D0121AB1
:101B13002F7005D0D022C32233D0D0501330E0EB46
:101B2300C3E7960809E7960809E7960809E79622A6
:101B330020E0E4E6970809E6970809E6970809E62E
:101B4300972200121A60604F121A6F6012E75480D6
:101B530066F6121A387011121A2F703B090909F42C
:101B6300F618F618F618F622121A4C7015121A26E1
:101B730008080860EAE6447FF618768018E4F61849
:101B8300F622121A266016121A2F7012E4F608F6BD
:101B930008F608E65480F609090918181822EAC05D
:101BA300E0EBC0E0ECC0E0EDC0E0E687F0A4FBAC06
:101BB300F008E687F0A42CFCE435F0FA1809E68770
:101BC300F0A42C4B60027401CA35F0FCE433FB092A
:101BD300E687F0D2F7A42CCB35F0FC1908E687F0A2
:101BE300A42BCC35F0FBE433FD0819E687F0D2E7EC
:101BF300A42C4ACB35F0CD3400FC09E687F0D2E7BC
:101C0300A42DCC35F0FDE433FA0918E687F0D2F7BA
:101C1300A42CCD35F0CA3400FC08E687F0D2E7D215
:101C2300F7A42ACC35F07A7E20E70B0ACB33CBCD51
:101C330033CDCC33CC33CB3350147004ED30E00EC2
:101C4300D2F1E4CD3DCDCC3CCC3B5005DA05C2F11D
:101C5300EB547FC63308E63392F0FBE73309E733EF
:101C6300C39A502D2B70190C0D4C4D70151806E6A8
:101C730008C333700D20F10AA2F013F6E418800BA9
:101C83004024E4F630F002768018F618F618F68051
:101C930024D33B14501074FFA2F013F6187680E49B
:101CA30018F618F6800FA2F013F618E63303F618A9
:101CB300ECF618EDF6D0E0FDD0E0FCD0E0FBD0E090
:101CC300FA22121A6F6046121A60603DE9687008C2
:101CD300F618F618F618F622748067F7121CF9093D
:101CE3000909748067F722121A60601D121A6F7057
:101CF30005191919801A121A38701F121A4CC37059
:101D030003E6673319191940071818182208080839
:101D130074FFF618F618F618F622121A4C6017120A
:101D23001A2F702192F0121A267019501720F014EE
:101D3300080808090909E7F61819E7F61819E7F674
:101D43001819E7F622121A2660E6E869701F0808D8
:101D5300E62480F608E436F618547FB47F0CE65484
:101D6300806007F6E418F618F622181822E9C6CCA4
:101D730008C6CD08C6CE08C6CFC0E0E8C0E0EAC0BA
:101D8300E0EBC0E009E9F809E7FA09E7FBE6F9182F
:101D9300E6F8C3EC98ED99EE9AEBC2E7F5F0EFC2E3
:101DA300E795F0500E600CEBCFFBEACEFAE9CDF9E4
:101DB300E8CCF8EAA2E7D2E7FAEB33FB13F5F0EE4F
:101DC300A2E7D2E7FEEF33FFC5F013A2E730E60147
:101DD300B313C5F0C3C0E0C0F07F00C39BFB605EDC
:101DE3009418600F401D14601AD0E023F9D0E0F876
:101DF300021ECB8AF0E9486003D2F0E4AFF0FAF9AF
:101E0300F8803BEB30E40D89F0EA6003D2F0E4AFF5
:101E1300F0F9CAF8EB30E30D88F0EF6002D2F0AFCF
:101E2300F0E4CAC9F8EB54076014FBC3EA13FAE9F8
:101E330013F9E813F8EF135002D2E0FFDBEDD0E023
:101E4300C0E030E739C3E49FFFF5F0EC98FC42F0C3
:101E5300ED99FD42F0EE9AFE42F0D0E0F9D0E0F8C1
:101E6300E5F0607AE923F9EE20E742D8028067C300
:101E7300EF33FFEC33FCED33FDEE33FE80EAEC2869
:101E8300FCED39FDEE3AFED0E023F9D0E0F8400254
:101E9300801BC3EE13FEED13FDEC13FCEF13500296
:101EA300D2E0FF08B800067F7F74FF802EEF335027
:101EB300178CF020F00260100CBC000C0DBD000864
:101EC3000EBE000408E860DFE933E813FFEE2313D6
:101ED300FE4F4D4C8008E95480FFE4FEFDFCEE33D9
:101EE300EF33F47004FCFD7E80D0E0FBD0E0FAD049
:101EF300E0F8D0E0CFC618CEC618CDC618CCC6F9C8
:101F030022121A60700418181822121A6F700D74B6
:101F1300FFF61819F61819F61819F622E754806611
:101F2300F6121A26700F121A2F70F014F608F6081C
:101F3300F608F680D1121A2F700CF608F608768090
:101F430008E6447F80EC121A4F700C121A3B60BFF4
:101F5300E65480F6E480BB121A3B70051919198008
:101F6300A5E869700C763F18768018F618F6E8F93C
:101F730022E6CDC0E018ECC0E0E633CD33CDD31379
:101F8300F6E719FCE7191933CC33C3947F400ECD20
:101F93009D502408E65480F6E418F6800FF4043DBF
:101FA30014501408E6447FF6187680E418F618F601
:101FB300D0E0FCD0E0FD22CCD313CCFD18E4C6CB9B
:101FC300C0E018E4C6CAC0E00808ED08C633E6134B
:101FD300F618E433C675F003C3CA97CA09CB97CB87
:101FE300199C40047D08802EBD00030220AD16B667
:101FF300FF050606081618C3CA33CACB33CB33CA48
:1020030027CA09CB37CB193CC37D08803E187D080E
:1020130020E75CC633C6CA33CACB33CB33DDF1D535
:10202300F0EB30E77BCA97CA09CB974ACB199C40A0
:102033006F4B7025E620E0218066187D08C3CA97A0
:10204300CA09CB97CB199CD3C633C6CA33CACB3381
:10205300CB3350C9DDE7D5F0E1D3E4C636C608C6B5
:1020630036C608C636C608C636C61818188031C321
:10207300CA97CA09CB97CB199CB34097C633C6CA34
:1020830033CACB33CB33DD34D5F02EC6A2E0C64002
:10209300C8CA27CA09CB37194A70BECB3CB480B92A
:1020A3000808E63308E633601F181818D0E0FAD0A2
:1020B300E0FBD0E0FCD0E0FD22187D08CA27CA0966
:1020C300CB37CB193CD3808013F618E4B67F11F6D7
:1020D30018B6FF0EF618C60470D20808768080CAB8
:1020E300F618F618F680C5080808EAC0E0EBC0E069
:1020F30086F0E7A4FA180986F0E7A42AFA180986F5
:10210300F0E7A42AFA180986F0E7A42AFA1986F058
:10211300E7A4FBE5F02AFA190886F0E7A42BFBE510
:10212300F03AFA190886F0E7A42BFBE5F03AFA181F
:10213300180986F0E7A4C5F02BFBE43AFA1908E77F
:10214300C5F0C6A426F6E5F03BFBE43AFA1886F0A0
:10215300E7A4F6E5F00826F6E43B08F6E43A08F6C9
:10216300D0E0FBD0E0FA22E4CFC0E0E4CEC0E0E46C
:10217300CDC0E0E4CCC0E075F020E626F608E633F7
:10218300F608E633F608E633F6181818EC33FCEDD8
:1021930033FDEE33FEEF33FFC3EC9709ED9709EE02
:1021A3009709EF97191919400FFFEC97FC09ED9761
:1021B300FD09EE97FE191906D5F0BFECF709EDF707
:1021C30009EEF709EFF7191919D0E0FCD0E0FDD0BB
:1021D300E0FED0E0FF22181818E4C396F608E49650
:1021E300F608E496F608E496F6226016080808C690
:1021F300C313C618C613C618C613C618C613C6D546
:10220300E0EA227009080808226016181818C6C3E5
:1022130033C608C633C608C633C608C633C6D5E0B8
:10222300EA22E627F60809E637F60809E637F6084C
:1022330009E637F622E026F608A3E036F608A3E01F
:1022430036F608A3E036F622E026F008A3E036F0DF
:1022530008A3E036F008A3E036F022C3E697F608B9
:1022630009E697F60809E697F60809E697F622C302
:10227300E096F008A3E096F008A3E096F008A3E048
:1022830096F022E056F608A3E056F608A3E056F6C9
:1022930008A3E056F622E056F008A3E056F008A3A0
:1022A300E056F008A3E056F022E0F608A3E0F608B3
:1022B300A3E0F608A3E0F622E6F008A3E6F008A3FD
:1022C300E6F008A3E6F022E0FAA3E0FBA3E0FCA318
:1022D300E0FD22EAF0A3EBF0A3ECF0A3EDF022E0A3
:1022E300F8A3E0F9A3E0FAA3E0FB22E8F0A3E9F006
:1022F300A3EAF0A3EBF022CAC0E0E6F0A308DAFAFF
:10230300D0E0FA22CAC0E0E0A3C582CCC582C5836F
:10231300CDC583F0A3C582CCC582C583CDC583DA81
:10232300E6D0E0CA22C3E498F8E499F9122369805D
:1023330026C3E49AFAE49BFBE920E7E9122369E464
:1023430098F8E499F922C3E498F8E499F912236917
:10235300E498F8E499F9C3E49AFAE49BFB22EB20AE
:10236300E7CFE920E7E0B90010BB0008E88AF08472
:10237300F8AAF022E4FBC8FA22EB70227B10C833E0
:10238300C8C933C9335007C39AC3DBF280069A50D6
:10239300012ADBEAC833F4C8C933F4C9FA2275F059
:1023A30008E4C833C8C933C933C99AC99B5004C99F
:1023B3002AC93BD5F0ECFBC833F4C8E4C9FA226060
:1023C3000D08C6A2E713C618C613C6D5E0F32260EC
:1023D3000C08C6C313C618C613C6D5E0F42270048E
:1023E30022600D18C6C333C608C633C6D5E0F41839
:1023F30022251810AF08F518400C15198008F51898
:1024030040021519D2AF2200C0D0251810AF08F52D
:1024130018500C05198008F51850020519D2AFD0D1
:10242300D0222518F58210AF08F518400C15198035
:1024330008F51840021519D2AF851983222518F51E
:1024430082E43519F583222518F8E43519F9222594
:1024530018FAE43519FB222518FCE43519FD22E4AA
:10246300732518C582C0E0E51934FFC583C0E0E5D4
:1024730018C3958224F810AF0885831985821880C4
:1024830008858319858218D2AFCEF0A3E520F0A387
:102493007808E608F0A3DEFAEFF0A3E58124FAF862
:1024A300E608F0A3E608F0A3E608F0A30808E608A8
:1024B300F0A3E608F0A315811581D0E0FED0E0F883
:1024C300158115811581E8C0E0EEC0E0222518C50D
:1024D30082C0E0E51934FFC583C0E0E518C39582E7
:1024E30024F910AF0885831985821880088583191C
:1024F300858218D2AFCEF0A3E520F0A37808E608D2
:10250300F0A3DEFAEFF0A3E58124FBF8E608F0A3DD
:10251300E608F0A30808E608F0A3E608F0A315818F
:102523001581D0E0FED0E0F815811581E8C0E0EE1A
:10253300C0E022851983851882E0A3FEE0A3F5207D
:102543007808E0A3F608DFFAE0A3FFE0A3C0E0E029
:10255300A3C0E0E0A3C0E0E0A3C0E0E0A3C0E010BC
:10256300AF088582188583198008858218858319A9
:10257300D2AFD083D082020132851983851882E0DD
:10258300A3FEE0A3F5207808E0A3F608DFFAE0A3B2
:10259300FFE0A3C0E0E0A3C0E0E0A3C0E0E0A3C08D
:1025A300E010AF0885821885831980088582188515
:1025B3008319D2AFD083D08222C0D02518C582C060
:1025C300E0E51934FFC583C0E0E518C3958224F321
:1025D30010AF088583198582188008858319858241
:1025E30018D2AFC8F0A3E9F0A3EAF0A3EBF0A37904
:1025F30008E709F0A3D8FAECF0A3EDF0A3EEF0A3FB
:10260300EFF0A3D0E0F0A3D0E0F0A3D0E0F0A3E597
:1026130020F0A3E5F0F0A322851983851882E0C09A
:10262300E0A3E0F9A3E0FAA3E0FBA37808E0F6084F
:10263300A3DFFAE0FCA3E0FDA3E0FEA3E0FFA3E039
:10264300C0E0A3E0C0E0A3E0F5D0A3E0F520A3E061
:10265300A3F5F010AF088583198582188008858358
:1026630019858218D2AFD082D083D0E0F8D0E0327F
:1026730074048006740280027401C0E0F40412241E
:1026830025D0E01222FA227404800474028000CC64
:10269300C0E0EDC0E0E518C39CCCAD1950011D109E
:1026A300AF068C188D1980068C188D19D2AF1223A2
:1026B30007D0E0FDD0E0FC22D083D082E9C0E0E483
:1026C30093A3C386F0C5F095F0F908E493A386F0CD
:1026D300C5F095F0700BE493A3C3994005E904801A
:1026E30002A3E475F002A42582F582E5F03583F5B3
:1026F30083D0E0F9E493A3C0E0E493C0E022D08365
:10270300D082ECC0E0EDC0E0E493A3FCE493A3FD2E
:10271300ED4C600D12274DEC24FFFCED34FFFD80E2
:10272300EFE493A3FCE493A3FDED4C600D12278C1F
:10273300EC24FFFCED34FFFD80EFD0E0FDD0E0FCA6
:10274300E493A3C0E0E493C0E022C0E0C3E4939623
:10275300087401939618400FE49366700808740197
:1027630093661870007019A3A3C3E49396087401C9
:10277300939618A3A3400DD0E0D0E0D0E002273D0C
:10278300A3A3A3A3A3A3D0E022C0E0C0F088F0E4F6
:10279300936670080874019366187000A8F0A3A3E9
:1027A300700BD0F0D0E0D0E0D0E002273DA3A3D05F
:0427B300F0D0E02260
:1027B80074F61224D0EAFEEBFF8C088D09EE24345F
:1027C800F8E43FF9E8FCE9FD1228EAE0FAEE2437DC
:1027D800F582E43FF583E0F88508F0A4C885F00A9F
:1027E8008509F0A4250AF9EA28F8E439F97A257B5D
:1027F80000122369EA8C828D83F0FA131313541F95
:10280800F8EE28F8E43FF9E8245DF582E439F58329
:10281800E0C0E074075AF8D0E0B800028004C3139F
:10282800D8FCA2E05003EA8020EE2436F582E43F8B
:10283800F583E0F5F0EA84A8F0EE28F8E43FF9E83B
:102848002438F582E439F583E0F97F0302257C74A6
:10285800F51224D0EAFEEBFFEE2434F582E43FF5CE
:1028680083E0C0E01228EAD0E0F08E828F83A3A331
:10287800A3A3A3E0FAA3E0FB8E828F83A3A3A3A361
:10288800A3A3A3E0C39AF508A3E09BF509EE247F70
:10289800F8E43FF9880A890B8882F583E0640170BF
:1028A8002CEE2480F582E43FF583EA2401F8E43B2A
:1028B800F9E0687003A3E06970137CD27D06EEFA34
:1028C800EFFB120DD1850A82850B83E4F0AC08ADCD
:1028D80009EEFAEFFB1227B8E9F91233D57F0402A3
:1028E800257CEE2435F582E43FF58322C082C0833F
:1028F800851882851983E0F8A3E0F9C3EA9CEB9D6B
:102908005010C3EC98ED99401BC3EA98EB9950140A
:10291800800EC3EA98EB994007C3EC98ED99400400
:10292800790180027900D083D08222EAC39CFAEB35
:102938009DFB2274ED1224D090037BE064086005AF
:10294800E06407702C9061C8E060269003A9E0F865
:1029580074FF68601CE875F00DA4C8AAF02AF97421
:10296800AB28FE740339FF8E828F83A3A3A3E07084
:10297800057900022ADDEE2468F50EE43FF50F9094
:102988006060E0850E82850F83F075106C75110705
:10299800750800750900E5D914F50AE5D95403F559
:1029A8000B601FEE2483F50CE43FF50D7403650BF3
:1029B8006059E50A6017EE2467F582E43FF583E085
:1029C800700B793DEEFAEFFB120E0180A4900767B9
:1029D800E064016023850C82850D83E060047A043D
:1029E80080027A00E50AC39AFA95E0FB120BF78A8F
:1029F800088B09EA450970061210E9022979850C45
:102A080082850D83E070048A108B117A008014E5AA
:102A1800D9C0E0EAF8E51028F582E43511F583D04D
:102A2800E0F00AEAC3950A40E6850C82850D83E04A
:102A3800602874FC250AF50A7810122677AC0AA9D2
:102A48000BEEFAEFFB120EAF740212240AE9700AB9
:102A5800AA08AB0912161D0229CA7403650B605433
:102A6800850A0C750D00780C122677AC10AD11AAEA
:102A780008AB09120E73740212240A850E82850FA0
:102A880083E0F87480687005750C7F8002880CE517
:102A98000CF50D780D12267B780B12267BA90AAC53
:102AA80008AD099003A9E0FA7B00120A1774021214
:102AB800240A801C90037BE06408AC10AD117009F7
:102AC800EEFAEFFB120EDF8007EEFAEFFB120F991A
:102AD8001210F579017F0C02257C74F31224D0744E
:102AE800FC1223F4EAFEEBFF8909A2AFE433F508F0
:102AF800C2AFEE2463F50AE43FF50B8010AA0AABD7
:102B08000B120E2B12161D9006D9E004F0850A82CE
:102B1800850B83E0F8A3E0F9E849602DE82402FA80
:102B2800E439FBEA2402F50CE43BF50D780C122697
:102B3800778A828B83E0FCA3E0F9EEFAEFFB120EB2
:102B48001F740212240AE960B49006D9E0604D901F
:102B580006DAE0F89006D9E0C398500C74026509CB
:102B6800703A9006DBE060348E828F83A3A3A3A320
:102B7800E0851882851983122BB47402122440E868
:102B8800122BB49006D8E028F0740212245AAA181E
:102B9800AB197901120A779006D9E4F0E508A2E0AA
:102BA80092AF740412240A7F0602257CF0A3E4F095
:102BB8009006D9E0F82200008521878522C622C028
:102BC800E074EB1225BCA2AFE433F508C2AF759BE5
:102BD80000906182E0A2E05030E591A2E0502A75B1
:102BE80091FE740165217021122D5A120FF3122DD6
:102BF8004812268A12317F740412240AE96401708B
:102C080005790112104D12293B906182E0A2E5502E
:102C18005DE591A2E550577591DF90037BE064076D
:102C28006005E06408702F122D5A74016521703E0A
:102C3800120FF3122D4812268A12317F74041224BF
:102C48000AE964017005790112104D7901EEFAEF75
:102C5800FB122AE28018E0640D701390039DE004D3
:102C6800F064287002E4F07A00E0F91210FB906139
:102C780082E0A2E64003022D1DE591A2E640030290
:102C88002D1D7591BF90037BE064057008120FDB62
:102C9800120FE78003120FE175210012106BE99003
:102CA800037CF0790012104D120CF37A017B00902E
:102CB800037AE0F91215ED907803E06442705690BB
:102CC800076BE014F0704EC2AF122CD400782AD0F3
:102CD800E0F618D0E0F6E59F5407F87005750DFF8B
:102CE8008003750D7FC4C0E07829E6F50A08E6552B
:102CF8000DF50B740B780A1223D2D0E0250AF89050
:102D08006270E0A2E740F8E8C333906272F0906224
:102D180070E0D2E0F0906181E0A2E35009E5E9A219
:102D2800E3500375E9F7A3E0A2E75009E591A2E7AC
:102D3800500375917FE508A2E092AF7F0802261B39
:102D48008E828F83E0F8A3E0C82416F582E438F574
:102D580083229003A9E0F875F00DA4C8AAF02AF917
:102D680074AB28FE740339FF22C0E0C0D0C082C013
:102D780083906183E0A2E05009E5BFA2E0500375AB
:102D8800BFFEE0A2E15009E5BFA2E1500375BFFD17
:102D9800E0A2E25009E5BFA2E2500375BFFBE0A242
:102DA800E35009E5BFA2E3500375BFF7E0A2E45082
:102DB80009E5BFA2E4500375BFEFE0A2E55009E5BD
:102DC800BFA2E5500375BFDFE0A2E65009E5BFA248
:102DD800E6500375BFBFD083D082D0D0D0E032C0D8
:102DE800E074F21225BCE5A7A2E4500FE5A1A2E425
:102DF800500953A7EF75A1EF122E3BE5A7A2E550A6
:102E08000CE5A1A2E5500653A7DF75A1DFE5A7A24F
:102E1800E15009E5A1A2E1500375A1FDE5A7A2E2F1
:102E2800500CE5A1A2E2500653A7FB75A1FB7F0158
:102E380002261B74F81224D075210190037BE064EC
:102E48000670077A007B00120FC3A2AFE433FED2EC
:102E5800AF900381E0640170187A207B0090037AB8
:102E6800E0F91217197A207B0090037AE0F912151D
:102E7800F3906182E0D2E6F0900768E0602185C6B1
:102E8800228016900380E064017008E5C654F84477
:102E980005F5C653BEFC122BC07401652160E4EE33
:102EA800A2E092AF7F0102257C0000008E238F24D0
:102EB800858228858327851882851983E0CEA3E03B
:102EC800CF852882852783EBC9EAC8EDCBECCA7584
:102ED800F010C3E833C8E933C9EA33CAEB33CBC3CC
:102EE800EA9EF526EB9FF525B35004AB25AA26EC00
:102EF80033CCED33CDD5F0DAAE23AF242274E9120A
:102F080024D074FA1223F4EAFEEBFF8C088D091220
:102F18001005EAF8EBF9ECFAEDFB8E828F831222AA
:102F2800EE90037BE024F7C3940550067510010268
:102F3800303C120F398A0A8B0BEA450B70030230BA
:102F480039120FF98A0C8B0D120FF9EA650C700310
:102F5800EB650D60ECEEFCEFFDAA18AB19120FFF44
:102F6800850A82850B83A3A3780C1222AC90905912
:102F7800780C12228685188285198378141222AC5F
:102F88009090597814122286780C79141218E0500F
:102F98001F780C791412225E909065780C12190033
:102FA8004047850C10850D11850E12850F1380453D
:102FB800909065851410851511851612851713785C
:102FC80010790C12225E7810121900501C7510002E
:102FD8007511007512007513017810791412225EAC
:102FE8007810790C122225800C7510017511007566
:102FF8001200751300740978101222069090C57893
:103008000C1222AC7810790C12216A90037BE064D0
:1030180008600AE064066005E0640570209090612D
:1030280078101219005016909031781012223880BA
:103038000C75100075110075120075130085088253
:1030480085098378101222BB740612240A7F1002A5
:10305800257C74F71224D0121017900766E06401DB
:103068007010906245E4F0A3F053F4F343FE0C5360
:1030780090F3120FB1E5C654B84441F5C6E59E5425
:1030880047644170F8906185740FF0900764E0F42C
:103098007002A3E0602C750801750900900764E0D0
:1030A80078081223E1E508F4FAA3E0600814600A3E
:1030B80014600C800DEA52808008EA52908003EA7E
:1030C80052A079007F0202257C74F71224D0E9FE11
:1030D800EAFF74016E700C7A807B0090037AE0F945
:1030E8001215ED9034E4E493F46008E493F9120CBB
:1030F800D5800953C6B8E59E544770FA120FB790A9
:103108000766E064017003120D0B900764E0F47029
:1031180002A3E0602B750801750900900764E07848
:10312800081223E1E508FAA3E0600814600A1460B5
:103138000C800DEA42808008EA42908003EA42A0AF
:10314800120F398A088B09A808A909E8496016E509
:10315800E170FCE82414F582E439F583E0F874FFA3
:1031680068600288E174016F700A7A0190037AE05E
:10317800F912167D0230CC74F11224D08A088B091A
:103188008C0A8D0B9090597808122286740F12249D
:1031980040780C1222AC909059780C12228678084C
:1031A800790C1218E090906550107808790C12226A
:1031B8005E78081219004014800E780C79081222E3
:1031C8005E780C12190050047901800279007F089A
:1031D80002257C74ED1224D08A088B098C0A8D0B89
:1031E80090905978081222867413122440780C1291
:1031F80022AC909059780C122286780C7908121813
:10320800E040117808790C12225EAA08AB09AC0AD2
:10321800AD0B802275100075110075120075130131
:103228007810790C12225E78107908122225AA10DB
:10323800AB11AC12AD137F0C02257C909059780825
:103248001222AC8A828B8378081222997F04022585
:103258007C74F51224D08C828D8378081222AC8A73
:10326800828B8378081222721232ADC3E098F0A3E1
:10327800E09912329F401E9090A178081222AC8AE1
:10328800828B83780812224B8E828F83E02420F071
:10329800A3E0344EF080A4F08E828F83C3E09420A4
:1032A800A3E0944E22EA2404F8E43BF9E8FEE9FF9F
:1032B8008C828D83A3A3A3A3E0F8A3E0F98E828F69
:1032C800832274F51224D0E9FE9006F4E0FAA3E014
:1032D800FBEE29F8E433F9747D28F582748F39F50B
:1032E80083E02AF508A3E03BF509780812267790D1
:1032F80090891222CA122EB4740212240A8A088BE8
:10330800098C0A8D0B741078081221EDAA08AB09F4
:103318007F0402257C74F11224D08A0C8B0D8C0E4C
:103328008D0F741112244012268E7411122440E05D
:103338002401F508A3E03400F509E4F50AF50B7853
:103348000C79081220EA9090D978081222AC780CEF
:1033580079081220EAAA0CAB0DAC0EAD0F122EB4F0
:10336800740212240A8B09EA450960047A01800272
:103378007A00EC2AFCE43DFD7413122440E0F8A323
:10338800E0F9E8FEE9FFECF8EDF97A717B02122327
:103398006988088909E4F50AF50B8E828F83780815
:1033A8001222BBECF8EDF97A717B021223698A08C4
:1033B8008B09740578081223E18E828F83A3A3A357
:1033C800A3E508F0A3E509F07F0802257CC082C0C8
:1033D80083E9906000F0D083D08222C0E074F212BA
:1033E80025BCA2AFE433FED2AFC2C0E5D1A2E450FF
:1033F8000675D10F121569751A00EEF8EEA2E09263
:10340800AF7F0102261BC0E074F21225BCA2AFE414
:1034180033FED2AFE589A2E74006E589A2E550036D
:103428001214C1758900758900C2C5751A00EEF8B5
:10343800EEA2E092AF7F0102261BC0E0C0D0E8C038
:10344800E0E9C0E0A2AFE433F8D2AFC2C7751A0012
:10345800E8F9E8A2E092AFD0E0F9D0E0F8D0D0D017
:10346800E032C0E0C0D0E8C0E0E9C0E0EAC0E0C0B7
:1034780082C083A2AFE433FAD2AF900FB8E0F890DD
:103488000FB9E068700B539AFB900FBA7401F08083
:103498002CC2E9900FB8E0F8740128900FB8F079C1
:1034A80000743828F582740F39F583E0F5C1900F60
:1034B800B8E0C394804006900FB87400F0EAF8EAC8
:1034C800A2E092AFD083D082D0E0FAD0E0F9D0E089
:1034D800F8D0D0D0E032C2AF02000022FFFFFFFFD9
:1034E800FFFFFFFF74F012246474FA1223F4E9FF5B
:1034F8008C088D097E008A0A8B0B780A1226BB007D
:103508000410D9372E35513570359335B635D93540
:103518000A362D36443674362337463769378E37A0
:10352800D937B7379D3674016F70198508828509B8
:1035380083E0C39403500D850882850983E09019C0
:10354800EAF080027E180237FB74026F7015850856
:1035580082850983E0F8A3E0F99019EBE8F0A3E984
:10356800F080027E180237FB74016F70198508829B
:10357800850983E0C39402500D850882850983E09C
:10358800900D21F080027E180237FB74016F7019CC
:10359800850882850983E0C39405500D85088285D6
:1035A8000983E0900D22F080027E180237FB740137
:1035B8006F7019850882850983E0C39402500D85D0
:1035C8000882850983E0900D23F080027E18023777
:1035D800FB74106F7027750A10750B00780A122695
:1035E80077AC08AD097A247B0D1215997402122460
:1035F8000A8A088B0985088285098380027E180259
:1036080037FB74016F7019850882850983E0C394BC
:1036180002500D850882850983E0900D34F0800200
:103628007E180237FB74016F700D85088285098347
:10363800E09019EEF080027E180237FB74046F7078
:1036480026909089780C1222AC85088285098378A7
:103658000C1218F050118508828509831222E29015
:103668000D361222EE80027E180237FBEF7021120F
:10367800077DE970131213CBE9F50979501216EF9B
:10368800E9F5081213B9800A900DC97401F0800297
:103698007E180237FB74076F707C750A06750B007D
:1036A800780A122677850882850983A3AC82AD83C0
:1036B800740212245212159F740212240A8A0C8B67
:1036C8000D850C0A850D0B7C007D00AA18AB1985A9
:1036D8000882850983E0F9121359E9F508E508C35A
:1036E800940A502E12077DE97015A9081213D1E922
:1036F800F50979501216EFE9F5081213B98019A8DF
:1037080008790074CA28F582740D39F5837401F0BC
:1037180080067E0280027E180237FB74016F7019E2
:10372800850882850983E0C39402500D8508828547
:103738000983E0900D35F080027E180237FB740192
:103748006F7019850882850983E0C3940A500D8536
:103758000882850983E09019EDF080027E1802370F
:10376800FB74016F701C850882850983E0C3940788
:10377800C3940A500D850882850983E09019EFF0FB
:1037880080717E18806D74016F7020900DC8E0F80C
:10379800850882850983E0900DC8F0E87055900D82
:1037A800C8E06401704D1213B980487E18804474D3
:1037B800016F7019850882850983E0C39404500D50
:1037C800850882850983E09019F0F080267E1880AC
:1037D80022C3EA9427EB9400501774026F70128585
:1037E8000882850983E0FCA3E0FD1205F1E9FE806B
:1037F800027E02EEF9740612240A7F080225367446
:10380800F012246474DA1223F4890BECFEEDFF90B5
:103818008FFBAC18AD197406122307AC18AD19A9A3
:103828000B121359E9F5087436122440E0F50AE53D
:1038380008C3940A4003023979A90812139BE9F5D1
:10384800099019EAE064027004740180027400F5BA
:103858000C780C12267BAD0AAC09A908EEFAEFFB2E
:10386800121419740112240A7C147D007900741250
:103878001224521215B18A0E8B0F850E0C850F0D6E
:10388800741212245A7A1075F006E508A42424F953
:103898001216E9E9703E7C1079FF74121224521254
:1038A8001611E9702F7422122440AC82AD837A0479
:1038B80075F006E508A42425F91216E9E9F50C7453
:1038C8001212245AE509A2E0E433F9EEFAEFFB12EA
:1038D800067BE9F8740612245A7A0C74702508F9E4
:1038E8001216E9E97075740612245212138F7508BE
:1038F800008061A8087900E875F003A4C8AAF075EB
:10390800F000A42AFA75F003E9A42AF9740612242F
:1039180040E58228F8E58339F9E8FAE9FB8A828BE1
:1039280083E0F8A3E0F9E84960288A828B83A3A39F
:10393800E0F50C750D00780C1226778A828B83E0EF
:10394800FCA3E0FDEEFAEFFB120969740212240AE7
:10395800E9F80508E508C394044098E509A2E15090
:103968006D900D20E0F9EEFAEFFB12096FE9F8808F
:103978005D7408650A70579019EAE06402704F7C1C
:10398800007D00A90BEEFAEFFB121401900D3AE04E
:10399800F8A3E0F9E8496036900D3AE0F8A3E0F5BD
:1039A800838882A3A3E0F8A3E0F9E84960207C00BB
:1039B8007900EEFAEFFB900D3AE0F8A3E0F5838882
:1039C80082A3A3E0F8A3E0F583888212246274043A
:1039D800650A700F9019EAE064027007EEFAEFFBCF
:1039E8001214077900742612240A7F0802253674F7
:1039F800F712246412077DE97062900DC9E0640132
:103A0800701A1213CBE9FE900DC97400F07C0A7D80
:103A18000079007ACA7B0D1215B180367E00802CA1
:103A2800EEF8790074CA28F582740D39F583E064DC
:103A3800017018EEF91213D1E9FAEEF8790074CA98
:103A480028F582740D39F5837400F00EEEC3940ADC
:103A580040CE79501216EFE9FE1213B97F01022504
:103A68003674F412246474FA1223F4EAFEEBFF901D
:103A78009019AC18AD197406122307EEFAEFFB1271
:103A88000BA98A0A8B0B850A08850B09E5084509E5
:103A98007003023B1D9019EAE064026078AC18AD2F
:103AA80019E5082405FAE43509FB850882850983A8
:103AB800A3A3A3A3E0F9121359E9F50AE50AC394ED
:103AC8000A5021A90A12139BE9FC7508017808120B
:103AD800267B7D08A90AEEFAEFFB1214197401126D
:103AE800240A80319019EAE0700C7905EEFAEFFBB0
:103AF800120687E9801F9019EAE0640170177C00BC
:103B08007D00850882850983A3A3A3A3E0F9EEFAC3
:103B1800EFFB121401740612240A7F04022536747E
:103B2800F2122464890BEAFEEBFF8C088D09750AF2
:103B38000AE50B600C146009146044146064023BCD
:103B4800CBEEFAEFFB1213ADE9F50AE50AC3940AC6
:103B58005071E5084509606B750C06750D00780C09
:103B6800122677EEFCEFFDAA08AB0912159974022C
:103B780012240A8A088B098508828509838044EE05
:103B8800FAEFFB1213A7E9F50AE50AC3940A5033C2
:103B9800E5084509602DAA08AB09A90A1213A1E98D
:103BA8008021EEFAEFFB1213B3E9F50AE50AC39494
:103BB8000A5010E5084509600AAA08AB09A90A12C3
:103BC80013A1E9A90A7F0602253674F41224648930
:103BD8000975081574FF6A700374FF6B70297E00FD
:103BE8008012AC097A027B00EEF912137DE96003BA
:103BF8007508000EEEC3940A40E8E50960557AF5A9
:103C08007B13120BD9804C120BA98A0A8B0BAE0AB4
:103C1800AF0BEE4F603A7C007D00EE2405FAE43FDE
:103C2800FB8E828F83A3A3A3A3E0F9121359E9F9AA
:103C3800E9C3940A500DAC097A027B0012137DE99E
:103C4800750800E509600CEEFAEFFB1213F5800326
:103C5800750814A9087F0402253674F2122464EC4E
:103C6800FEEDFF750815740E122440E0F50AA3E076
:103C7800F50B74FF6A700374FF6B7021750900E51A
:103C880009C3940A505CAC0AAD0BEEFAEFFBA90924
:103C9800121383E96003750800050980E2120BA975
:103CA8008A0C8B0D850C82850D83E5824583602FF8
:103CB8007C007D00E5822405FAE43583FBA3A3A3F9
:103CC800A3E0F9121359E9F9E9C3940A5014AC0AAC
:103CD800AD0BEEFAEFFB121383E97508008003754C
:103CE8000814A9087F0602253674F7122464900D7B
:103CF8003AEAF0A3EBF0900D20E0FC7D007A267BF9
:103D0800001205F1E9FE900D20E0F91208D37F01B9
:103D180002253674EC1224648A0C8B0DE9FF7E00B0
:103D2800EF704B741412244078101222AC851008DE
:103D380085110985120A85130B9090897810122233
:103D4800AC7808791012216A780C122677AA10AB81
:103D580011AC12AD1312068D740212240AE9FEEE9C
:103D680060177901AA0CAB0D120687E9800BEFF9F1
:103D7800AA0CAB0D120687E9F8EEF97F0C0225367E
:103D880074F212246474EC1223F4EAFEEBFF8E82C0
:103D98008F83A3A3E024FA70030242A724FD7003D3
:103DA800024116147003023E781460161470030260
:103DB800429624FE700302401214700302414E0220
:103DC80042B6900D3AE0F8A3E0F9E8496066900D34
:103DD8003AE0F8A3E0F5838882E0F8A3E0F9E8493F
:103DE8006052EE240CF582E43FF583E0F50878088C
:103DF80012267BEE240BF582E43FF583E0F98E82F0
:103E08008F83A3A3A3A3A3A3A3A3A3E0FCA3E0FD81
:103E1800EE2403FAE43FFB900D3AE0F8A3E0F583C3
:103E28008882E0F8A3E0F583888212246274011284
:103E3800240A80398E828F83A3A3A3A3A3A3A3A359
:103E4800A312268E900D361222CA12068D74021203
:103E5800240AE9601879018E828F83A3A3A3A3A300
:103E6800A3A3A3A3E0FAA3E0FB120687E90242B6E4
:103E78007508008E828F83A3E06003023F948E82D0
:103E88008F83A3A3A3A3A3E0A2E04003023F9490DF
:103E98000DD4E0F8A3E0F9E8496003023F947C0EF2
:103EA8007D007900AA18AB191215B18A088B09AAE6
:103EB80008AB09EE240CF582E43FF583E0F8A3E0B3
:103EC800F9E84960467508067509007808122677EA
:103ED800EE240CF582E43FF583E02410FCA3E034E3
:103EE80000FD7402122452121599740212240A8ACF
:103EF800088B098508828509838E828F83A3A3A3F3
:103F0800A3A3E0A2E2504DD2F0804B8E828F83A310
:103F1800A3A3E0FAA3E0FB120BA98A088B09AA085D
:103F2800AB09EA4B602B750806750900780812265C
:103F380077EA2405FCE43BFD740212245212159919
:103F4800740212240A8A088B0985088285098380ED
:103F5800A80242B6C2F0A2F0E433F87900740C1259
:103F68002440E048F0A3E049F0EEFCEFFDAA18ABCE
:103F780019121395E970127A027B00900D20E0F96E
:103F88001215EDE979000242B8750815900D3AE06E
:103F9800F8A3E0F9E849606F900D3AE0F8A3E0F57E
:103FA800838882A3A3E0F8A3E0F9E84960598E82E8
:103FB8008F83A3E0FC79018E828F83A3A3A3E0FA09
:103FC800A3E0FB900D3AE0F8A3E0F5838882A3A371
:103FD800E0F8A3E0F5838882122462E5086028AC43
:103FE8000879038E828F83A3A3A3E0FAA3E0FB9052
:103FF8000D3AE0F8A3E0F5838882A3A3E0F8A3E0F4
:10400800F58388821224620242B68E0A8F0B850AD3
:1040180082850B83A3E0640660030240C2850A829E
:10402800850B83A3A3A3E0FAA3E0FB120BA98A0CD8
:104038008B0D850C08850D09E5084509607C9019EC
:10404800F0E0146008146028146043806D7C007DE3
:1040580000850882850983A3A3A3A3E0F9850A82C2
:10406800850B83A3A3A3E0FAA3E0FB121401804A03
:104078007C05850A82850B83A3A3A3E0FAA3E0FB52
:10408800850882850983E0F912066FE9802C7C0097
:104098007D0079007A097B04121341E9F50C7C054F
:1040A800850A82850B83A3A3A3E0FAA3E0FB850816
:1040B80082850983E0F912066FE9900D3AE0F8A3CA
:1040C800E0F9E8496045900D3AE0F8A3E0F5838807
:1040D80082A3A3E0F8A3E0F9E849602F8E828F83DA
:1040E800A3E0FC7902850A82850B83A3A3A3E0FAE7
:1040F800A3E0FB900D3AE0F8A3E0F5838882A3A340
:10410800E0F8A3E0F58388821224620242B67C00BC
:104118007D00EE2404FAE43FFB8E828F83A3A3A3E1
:10412800E0F9121359E9F8E8C3940A5016EE240A84
:10413800FCE43FFD7A0475F006E8A42425F912167C
:10414800E3E9F80242B6900D35E060199019EDE008
:10415800F98E828F83A3A3A3E0FAA3E0FB1206875C
:10416800E9F80242B69019EAE0701679058E828F56
:1041780083A3A3A3E0FAA3E0FB120687E9F80242AF
:10418800B68E828F83A3A3A3E0FAA3E0FB120BA948
:104198008A0A8B0B850A08850B09E508450970030F
:1041A8000242B68E828F83A3A3A3A3A3A3A3E0A2F4
:1041B800E0506D850882850983A3A3A3A3E060600E
:1041C8008E828F83A3A3A3A3A3A3A3A3A3E0F50A2B
:1041D800A3E0F50B7409780A1223D2E50A5401F812
:1041E800E50B5400F9E8A2E04036740E12245AE5B3
:1041F800082405FAE43509FB850882850983A3A309
:10420800A3A3E0F9121359E9701679038E828F83FC
:10421800A3A3A3E0FAA3E0FB120687E9F80242B6DB
:10422800EE2405FCE43FFD850882850983A3A3A34A
:10423800A3E0F98E828F83A3A3A3E0FAA3E0FB1285
:104248001401900D3AE0F8A3E0F9E8496060900D98
:104258003AE0F8A3E0F5838882A3A3E0F8A3E0F9A5
:10426800E849604A7C0079008E828F83A3A3A3E08B
:10427800FAA3E0FB900D3AE0F8A3E0F5838882A367
:10428800A3E0F8A3E0F583888212246280208E825E
:104298008F83A3A3A3E0FAA3E0FB121353800F8E2E
:1042A800828F83A3A3A3E0FAA3E0FB12134D790145
:1042B800741412240A7F0602253674F412246474D6
:1042C800F21223F4890AEAFEEBFF8C0BAC18AD1945
:1042D8007A0E75F006E50AA42420F91216E9E970A9
:1042E800607C0679FFAA18AB19121611E97052748E
:1042F8000C122440E0F8A3E0F9E8F508E50B6005A6
:10430800EE42088004EEF45208A8087900740C12F2
:104318002440E0687003A3E0696022750900740C0A
:10432800122440E508F0A3E509F0AC18AD197A0E9F
:1043380075F006E50AA42420F91216E3E97901804C
:10434800027900740E12240A7F0402253674F212D0
:10435800246474E61223F4890A8A088B09ECFEEDBA
:10436800FF740C12245A7A0E75F006E50AA424206C
:10437800F91216E9E960030244787C0679FF740CA7
:10438800122452121611E96003024478AC18AD19D0
:104398007A0C7470250AF91216E9E960030244746C
:1043A800750B00AA18AB1912138FE5084509702D73
:1043B8007C0C7900AA18AB19121611E960030244A3
:1043C8005A7C0C7D007900AA18AB191215B18A081D
:1043D8008B09850882850983750B018075AC18AD3A
:1043E80019AA08AB091213898A0C8B0DA80CA90D00
:1043F800E849702EEE4F601BAC18AD197A007B00AF
:104408001213898A0C8B0DAA0CAB0DEAF8EBF9EAAA
:104418004B70047900805B88828983E508F0A3E506
:1044280009F088828983A3A3E0FA7B00EE6A700210
:10443800EF6B601EEEC0E088828983A3A3D0E0F012
:10444800EE4F700B888289837400F0A37400F075B6
:104458000B01E50B6016AA18AB1912138FAC18AD37
:10446800197A0C7470250AF91216E3E979018002A9
:104478007900741A12240A7F0602253674F712246A
:10448800647E0080010EEEC39404504BEEF8790070
:10449800E875F003A4C8AFF075F000A42FFF75F01D
:1044A80003E9A42FF9EC28F582ED39F583E06A7069
:1044B80003A3E06B70CFEEF87900E875F003A4C8A9
:1044C800AAF075F000A42AFA75F003E9A42AF9EC19
:1044D80028FAED39FB80047A007B007F010225363B
:1044E80074F71224647C0002458EECF87900E875B4
:1044F800F003A4C8ADF075F000A42DFD75F003E934
:10450800A42DF9EA28F582EB39F583E0F4FEA3E05F
:10451800F4FFECF87900E875F003A4C8ADF075F085
:1045280000A42DFD75F003E9A42DF9EA28F582EB26
:1045380039F583EEF0A3EFF0ECF87900E875F003B5
:10454800A4C8ADF075F000A42DFD75F003E9A42D05
:10455800F9EA28F582EB39F583A3A3E0F4C0E0EC8F
:10456800F87900E875F003A4C8ADF075F000A42D43
:10457800FD75F003E9A42DF9EA28F582EB39F583F6
:10458800A3A3D0E0F00CECC3940450030244F27FE0
:104598000102253674F012246474F41223F4EAFE3E
:1045A800EBFF8C088D09900DD4E0F8A3E0F9E849F9
:1045B800702CEE4F6006E508450970057901024840
:1045C80045EEFAEFFB1213ADE99019F1F09019F1ED
:1045D800E0C3940A40081213BFE99019F1F090194A
:1045E800F1E0C3940A4003024843900DD4E0F8A3D5
:1045F800E0F9E8496003024694EEFCEFFD7A0E7597
:10460800F0069019F1E0A42420F91216E3E9F50C5C
:104618007C0C7D0079FFAA18AB191215B18A0E8B94
:104628000F850E0A850F0BAC18AD197A0C9019F18D
:10463800E02470F91216E3E9F50D750E0E750F00FA
:10464800780E122677EEFCEFFD9019F1E0F879006C
:10465800E875F00EA4C8AAF075F000A42AFA75F05F
:104668000EE9A42AF9743C28FA740D39FB1215993D
:10467800740212240A8A0E8B0FA80EA90F900DD46B
:10468800E508F0A3E509F07900024845900DD4E06B
:10469800F8A3E0C82406F582C83400F583E0F8A33F
:1046A800E0F9E8496042900DD4E0F8A3E0C8240698
:1046B800F582C83400F583E0FCA3E0FD7A1B75F0B1
:1046C800069019F1E0A42421F91216E3E9F8900DF7
:1046D800D4E0F9A3E0C92406F582C93400F583744F
:1046E80000F0A37400F0809F900DD4E0F8A3E0C818
:1046F800240AF582C83400F583E0F8A3E0F9E84914
:104708006043900DD4E0F8A3E0C8240AF582C834C9
:1047180000F583E0FCA3E0FD7A1B75F0069019F123
:10472800E0A42422F91216E3E9F8900DD4E0F9A3E5
:10473800E0C9240AF582C93400F5837400F0A37433
:1047480000F002468F900DD4E0F8A3E0C8240CF5E1
:1047580082C83400F583E0F8A3E0F9E849604390A3
:104768000DD4E0F8A3E0C8240CF582C83400F58322
:10477800E0FCA3E0FD7A1075F0069019F1E0A4249E
:1047880023F91216E3E9F8900DD4E0F9A3E0C9245F
:104798000CF582C93400F5837400F0A37400F002AC
:1047A800468F900DD4E0F8A3E0C82408F582C834F9
:1047B80000F583E0F8A3E0F9E849606F900DD4E0D4
:1047C800F8A3E0C82408F582C83400F583E0FCA308
:1047D800E0FD7A1075F0069019F1E0A42424F9128E
:1047E80016E3E9FE900DD4E0F8A3E0C82408F582AA
:1047F800C83400F583E02410FCA3E03400FD7A04FB
:1048080075F0069019F1E0A42425F91216E3E9F8E9
:10481800900DD4E0F9A3E0C92408F582C93400F565
:10482800837400F0A37400F002468F900DC8E06016
:104838000312141F1213FB790180027901740C1200
:10484800240A7F0802253674F712246474F21223AE
:10485800F4E9FEAC18AD197A0E75F006EEA4242022
:10486800F91216E9E9700E740C122440E0F8A3E07E
:10487800F9E8F980027900740E12240A7F010225F2
:104888003674F412246474F21223F48909EAFEEBF4
:10489800FFE509C3940A5004EE4F70047902804181
:1048A800AC18AD197A0E75F006E509A42420F912A2
:1048B80016E9E9F508E5087026750A06750B00780B
:1048C8000A122677740212245AEEFAEFFB1215998F
:1048D800740212240A8A0A8B0B850A82850B83A923
:1048E80008740E12240A7F0402253674F412246414
:1048F800EAFEEBFF75080080020508E508C3940A84
:10490800503F750A06750B00780A122677EEFCEF01
:10491800FDA8087900E875F00EA4C8AAF075F000A3
:10492800A42AFA75F00EE9A42AF9744228FA740D3B
:1049380039FB1215AB740212240AE960BCA908807D
:1049480002790A7F0402253674F4122464EAFEEB25
:10495800FF75080080020508E508C3940A503F75F2
:104968000A06750B00780A122677EEFCEFFDA808F8
:104978007900E875F00EA4C8AAF075F000A42AFA28
:1049880075F00EE9A42AF9743C28FA740D39FB1263
:1049980015AB740212240AE960BCA9088002790ADE
:1049A8007F0402253674F712246474F01223F4EAA3
:1049B800FEEBFF75080080020508E508C3940A505D
:1049C80035AC18AD197A1075F006E508A42423F95A
:1049D8001216E9E970E27C1079FFAA18AB191216D1
:1049E80011E970D4EEFCEFFDAA18AB19120657E9CD
:1049F80070C6A9088002790A741012240A7F01027D
:104A0800253674F4122464750800024ADAA8087975
:104A180000E875F00EA4C8AAF075F000A42AFA758B
:104A2800F00EE9A42AF9743C28FC740D39FD7A0EBD
:104A380075F006E508A42420F91216E9E9700302C6
:104A48004AD87C067D0079FFAA087B00EA75F00E3B
:104A5800A4CAA8F075F000A428F875F00EEBA428F5
:104A6800FB743C2AFA740D3BFB1215B18A0A8B0BB6
:104A7800AE0AAF0B7C067D0079FFAA087B00EA75B9
:104A8800F00EA4CAA8F075F000A428F875F00EEB93
:104A9800A428FB74422AFA740D3BFB1215B18A0A4A
:104AA8008B0BAC0AAD0BA8087900E875F00EA4C80A
:104AB800AAF075F000A42AFA75F00EE9A42AF97490
:104AC8004828F582740D39F5837400F0A37400F05A
:104AD8000508E508C3940A5003024A15900DC8E07A
:104AE800600312141F1213FB7F0402253674F71299
:104AF80024647E0080010EEEC3940A502F7C067950
:104B0800FFEEFA7B00EA75F00EA4CAA8F075F00073
:104B1800A428F875F00EEBA428FB743C2AFA740D4F
:104B28003BFB121611E960CEEEF98002790A7F018B
:104B380002253674F71224647E007F0080337C06D9
:104B480079FFC9FDC9EFF87900E875F00EA4C8AA85
:104B5800F075F000A42AFA75F00EE9A42AF9743C5D
:104B680028FA740D39FBCDF9CD121611E970010E32
:104B78000FEFC3940A40C7EEF97F0102253674F798
:104B880012246479007E008008EEF91213D1E9F945
:104B98000EEEC3940A5003E960EF7F0102253674D4
:104BA800F012246474CB1223F489099019F1E0659A
:104BB80009701D7A017B00900D20E0F91215F3E9C8
:104BC8007A027B00900D20E0F91215F3E912142BFC
:104BD8009019F2E0650970137A047B00900D20E0CB
:104BE800F91215F3E99019F2740AF0742712245A8D
:104BF8007A0E75F006E509A42420F91216E9E96091
:104C080003024CFA7C0679FF7427122452121611FB
:104C1800E96003024CFA7C0E7D0079FF74271224A8
:104C2800521215B18A0A8B0B850A0C850B0D7C1B59
:104C38007D0079FF740C1224521215B18A0E8B0F65
:104C4800850E0A850F0B7C0C7D0079FFAA18AB191D
:104C58001215B18A0E8B0FAE0EAF0F742712245A9D
:104C68007A0E75F006E509A42420F91216E3E9F591
:104C780008740C12245A7A1B75F006E509A424213D
:104C8800F91216E3E94208740C12245A7A1B75F0DB
:104C980006E509A42422F91216E3E94208740C1265
:104CA800245A7A1075F006E509A42423F91216E3AC
:104CB800E94208740C12245A7A1075F006E509A422
:104CC8002424F91216E3E94208740C12245A7A04CF
:104CD80075F006E509A42425F91216E3E94208ACA3
:104CE80018AD197A0C74702509F91216E3E942080F
:104CF8008003750800A908743512240A7F08022564
:104D08003674F7122464E9FEEE900D20F01213B900
:104D18007AF37B191207B37F0102253674F6122441
:104D280064EAFEEBFFEE5400F8EF5480F9E84960BE
:104D380035900D20E0F91215D58A088B09A808A925
:104D48000988088909E8496012AA08AB091213E31F
:104D5800E96008AA08AB091215C3E9EE6400FAEF86
:104D68006480FB024EA5EE5402603E7C007D007A12
:104D7800007B00121395E960187A017B00900D20E2
:104D8800E0F91215EDE9EE6402FAEF6400FB024E59
:104D9800A57A027B00900D20E0F91215EDE9EE648A
:104DA80002FAEF6400FB024EA5EEA2E04003024EB9
:104DB80079900DD4E0F8A3E0F5838882A3A3A3E05B
:104DC800FAA3E0FB121425E97003024E62900D3A33
:104DD800E0F8A3E0F9E8496074900D3AE0F8A3E040
:104DE800F5838882A3A3E0F8A3E0F9E849605E7C34
:104DF800007901900DD4E0F8A3E0F5838882A3A39D
:104E0800A3E0FAA3E0FB900D3AE0F8A3E0F583886D
:104E180082A3A3E0F8A3E0F58388821224627C00D1
:104E28007903900DD4E0F8A3E0F5838882A3A3A3C7
:104E3800E0FAA3E0FB900D3AE0F8A3E0F58388825E
:104E4800A3A3E0F8A3E0F583888212246212142B4E
:104E5800EE6401FAEF6400FB80437A017B00900D59
:104E680020E0F91215EDE9EE6401FAEF6400FB8029
:104E78002CEE540460239019F2E0C3940A50109069
:104E880019F2E0F912140DE9F89019F2740AF0EE2B
:104E98006404FAEF6400FB80047A007B007F02025E
:104EA800253674F71224647E018A828B83E02450AD
:104EB800600E14601024E1700F121377E9FE800869
:104EC8001213E980031213EFEEF97F0102253674FD
:104ED800F7122464EAFEEBFF8E828F83A3A3A3A3B9
:104EE800E0641E701179008E828F83A3A3E0FAA379
:104EF800E0FB12135FE98E828F83A3A3A3A3E0F9DB
:104F0800EE2405FAE43FFB1208CD7F01022536C0E6
:104F180082C0838A828B83A3A3A3A3E070308A8292
:104F28008B83A3A3A3A3A3A3A312268E8A828B8316
:104F3800A3A3A3A3A3E0FCA3E0FD8A828B83A3A37E
:104F4800E0FAA3E0FB121365740212240AE9D08385
:104F5800D082020132C082C083900D20E0F98A829B
:104F68008B83A3E0FAA3E0FB12096FE9D083D08218
:104F7800020132C082C08374FF1223F41213C5E900
:104F8800C39402400B8518828519837402F0800946
:104F9800851882851983740AF0AC18AD197A0179DD
:104FA800051207A1E9740112240AD083D0820201F4
:104FB8003274F212246474E81223F4EAFEEBFF89D7
:104FC8000A8C088D097C187D007900AA18AB191283
:104FD80015B18A0C8B0DAC0CAD0D85188285198323
:104FE800EEF0A3EFF0900D22E0C0E074021224402E
:104FF800D0E0F0900D23E0C0E07403122440D0E02C
:10500800F09019EFE0C0E07417122440D0E0F0747B
:1050180015122440E054FEFAA3E054FFFB9019EE69
:10502800E0A2E0E433F87900EA48F8EB49F97415AE
:10503800122440E8F0A3E9F09019EEE0A2E1500450
:10504800D2F08002C2F07415122440E054FDFAA395
:10505800E054FFFBA2F0E433F87900E828F8E933DC
:10506800F9EA48F8EB49F97415122440E8F0A3E985
:10507800F09019EEE0A2E45004D2F08002C2F0747D
:1050880015122440E054FFFAA3E054FEFBA2F0E41A
:1050980033F87900E4C8F9EA48F8EB49F9741512CD
:1050A8002440E8F0A3E9F09019EEE0A2E55004D21C
:1050B800F08002C2F07415122440E054FFFAA3E015
:1050C80054FDFBA2F0E433F50C750D007409780C5F
:1050D8001223E1EA450CF8EB450DF974151224404A
:1050E800E8F0A3E9F09019EEE0A2E65004D2F080CF
:1050F80002C2F07415122440E054FFFAA3E054FBF6
:10510800FBA2F0E433F50C750D00740A780C122339
:10511800E1EA450CF8EB450DF97415122440E8F066
:10512800A3E9F09019EEE0A2E25004D2F08002C2A6
:10513800F07415122440E054FBFAA3E054FFFBA2DC
:10514800F0E433F50C750D007402780C1223E1EAD3
:10515800450CF8EB450DF97415122440E8F0A3E965
:10516800F0900D23E0602A750C10750D00780C1274
:1051780026777C247D0D7406122440AA82AB831204
:105188001599740212240A8A0C8B0D850C82850DE0
:1051980083900D34E06012E50A600E741512244005
:1051A800E04402F0A3E04400F0900D34E06006789B
:1051B8000179008004780079007414122440E048D2
:1051C800F0900D21E0600678047900800478007979
:1051D800007414122440E048F0AC08AD09AA18ABDA
:1051E80019120681E9741812240A7F06022536C0AE
:1051F80082C0837900900D34E060067C017D0080D8
:10520800047C007D00ECC949C9900D21E060067C52
:10521800047D0080047C007D00ECC949C912075355
:10522800E9D083D08202013274F512246474F21238
:1052380023F4890AAC18AD197A0E75F006E50AA4AC
:105248002420F91216E9E9706A7C0679FFAA18ABDE
:1052580019121611E9705C750806750900780812AC
:105268002677A80A7900E875F00EA4C8AAF075F0A8
:1052780000A42AFA75F00EE9A42AF9744228FC74ED
:105288000D39FD7408122440AA82AB831215997453
:105298000212240A8A088B09AE08AF09AC18AD19A6
:1052A8007A0E75F006E50AA42420F91216E3E979C6
:1052B8000180027900740E12240A7F0302253674D5
:1052C800F412246474FA1223F4E9FF74036F600380
:1052D80002535D120BA98A088B09A808A909E84995
:1052E8006073E82405FAE439FB1213ADE9FEEEC356
:1052F800940A5061AA18AB1979031207A7E97055E7
:105308007508067509007808122677740212245A5F
:10531800EEF87900E875F00EA4C8AAF075F000A4BC
:105328002AFA75F00EE9A42AF9744228FA740D399C
:10533800FB12159F740212240A8A0A8B0B850A082D
:10534800850B09EE9019F2F07A047B00900D20E0AD
:10535800F91215EDE9740612240A7F040225367441
:10536800F012246474E51223F4EAFEEBFF89088C3A
:10537800098D0A7408650A700C75F006E508A424FE
:1053880022F50B800A75F006E508A42421F50B7CAC
:105398001B7D007900AA18AB191215B18A0E8B0F64
:1053A800850E0C850F0DAC18AD197A1BA90B1216BA
:1053B800E9E97034741A122440E0C39407C3940ACC
:1053C8005026742B122440E0F50B780B12267B74C0
:1053D8000112245AE509A2E0E433F9EEFAEFFB12D0
:1053E8000693740112240AE9741B12240A7F080226
:1053F800253674F71224641209CFE97E00805A7C9E
:105408000679FFC9FDC9EEF87900E875F00EA4C861
:10541800AAF075F000A42AFA75F00EE9A42AF97426
:105428003C28FA740D39FBCDF9CD121611E9702814
:10543800EEF87900E875F00EA4C8AAF075F000A49B
:105448002AFA75F00EE9A42AF9743C28FA740D3981
:10545800FB79001209D5E9F80EEEC3940A40A07F43
:105468000102253674F612246474FD1223F4EAFE50
:10547800EBFF900DD6E0F8A3E0F9E849703975081C
:10548800D875090D7808122677750802750900780D
:10549800081226777508E975099078081226777C2E
:1054A800FF7DFF7A017B001207EF740612240A9031
:1054B8000DD6EAF0A3EBF0900DD6E0F8A3E0F9E8FA
:1054C8004970030255917508FF780812267BE4F5A8
:1054D80008F5097808122677740512244A8808897D
:1054E800097808122677740512244A8808890978E9
:1054F80008122677900DD812268E7902900DD6E0E4
:10550800FCA3E0FDEEFAEFFB12095D740912240A10
:10551800E9704A851882851983E0FA7B00740112C4
:105528002440E0F87900E4C8F9EA28F508EB39F5F1
:1055380009E508450960267808122677900DD6E017
:10554800F8A3E0F5838882A3A3A3A3E0FCA3E0FD6E
:10555800EEFAEFFB121365740212240AE9E4F50867
:10556800F5097808122677900DD812268E7CFF7DD3
:10557800FF900DD6E0FAA3E0FB1207FB7404122497
:105588000A900DD6EAF0A3EBF0900DD6E0F8A3E070
:10559800F9E8497004790180027900740312240A39
:1055A8007F02022536C082C083900DD4E0F8A3E0C4
:1055B800F9E8496017900DD4E0FAA3E0FB1215C38F
:1055C800E9F8900DD47400F0A37400F09019F17408
:1055D8000AF0D083D082020132C082C083E99018D9
:1055E800F8F0D083D08202013274F6122464E99074
:1055F80002EDF090034DE0F5087509007402780893
:105608001223E1AA08AB091216659002EE125FA4F4
:105618009002EE126391606F90034DE075F003A461
:10562800FAABF012166590030B125FA490030B12ED
:105638006391700B9002EE12636212166B804890B1
:10564800030B1272F67AFF7BFF1214317A0080196D
:105658008A08750900740278081223E1126D9E7495
:10566800FF1257A4E4F0A3F00A90034DE0F8EAC350
:105678009840DD79051208EB9002EDE0F91207D7A2
:105688007A757B09120B97026E4174F41224648AAE
:10569800088B09EB548060479002EDE0F91215D5AC
:1056A8008A0A8B0BAE0AAF0BEE4F602A8E828F836D
:1056B800E064B0701A1208FDE960148E828F83A32B
:1056C800A3A3A3E0F9EE2405FAE43FFB1208CDEE0C
:1056D800FAEFFB1215C3AA08E5096480FB80047A77
:1056E800007B000258F474F212246474FB1223F451
:1056F800EAFEEBFFEE4F60457403122440EEF0A380
:10570800EFF0851882851983ECF0A3EDF07402128E
:105718002440E9F0AA18AB191207D1E9F508707509
:105728007413122440E0F50AA3E0F50BE50A450BD3
:1057380060638E828F83125D2DEE4F7005750802AF
:1057480080537A067B001216658A0C8B0DA80CA96B
:105758000DE8497005750813803B88828983E41237
:1057680057A4EEF0A3EF1258C0E50AF0A3E50BF03A
:105778009002F11258B99002F16017E0FCA3E080A2
:1057880003EAFCEBFD8C828D831258B970F38C828E
:105798008D831269B9A9087405027576F0A312728F
:1057A800D8A32274F21224648908890C750D007438
:1057B80003780C1223E1850C0A850D0B9002F0F09A
:1057C8009002EE1267C41258B7602E12166B790059
:1057D800801D890C750D007402780C1223E190026B
:1057E800EE126C5D8882F583A3A3E4F0A3F0099020
:1057F800034DE0F8E9C39840D990034DE0FA850AD3
:10580800F0A4CAA8F0850BF0A428FB1216658A0C30
:105818008B0DAE0CAF0DEE4F70030258AD90034DDB
:10582800E0FC850AF0A4CCA8F0850BF0A428FD794B
:10583800001215B17C0080318D0C750D0074037851
:105848000C1223E18A828B831258B288828983E4FE
:10585800F01258BFA3A3F0A3F00DEDC3950840D8EC
:10586800EE250AFEEF350BFF0C90034DE0F8ECC374
:105878009850288C0C750D007402780C1223E19056
:1058880002EE1258B2E82402500109FAE9FB8A82B2
:105898008B83EEF0A3EFF07D0080BFE5089002F067
:1058A800F0790080027913027579126C61F922A3EC
:1058B800A3126366EA4B22A31272D8A3A3A322748D
:1058C800F41224647900EAA2E0501F75081F7509D4
:1058D80090780812267779107C047D007AFA7B1874
:1058E8001208E5740212240AE9F980007F040225EF
:1058F80036C082C0839002F1126391601C8882894D
:1059080083A3A3E06A7003A3E06B8882898370E8AD
:10591800A3A3A3A312636280047A007B000255EA62
:1059280074F212246474FD1223F4EAFEEBFF851866
:1059380082851983E4F0A3F074021224407401F004
:1059480012638E7014120ACB1216659002F4125F5D
:10595800A412638E7003025ABA1260A4EE2404F5EE
:105968000AE43FF50B850A82F583E024FE603C24B7
:10597800FC607424FE607E24FE7003025A0A24FE32
:105988007003025A1724FE7003025A2424FE70037F
:10599800025A3124FE7003025A3E24FC7003025A54
:1059A8005F24FE7003025A77025AB3120ACB9002A0
:1059B800F6EAF0A3EB125AC61204ADE96003025AE4
:1059C800B39002F612268E8E828F83A3A3A3A3A37D
:1059D8001272F68508828509831263621208B5740B
:1059E8000212240A025AB3AC18AD19EEFAEFFB12F0
:1059F8000903025A82AC18AD19EEFAEFFB12090935
:105A08008078AC18AD19EEFAEFFB12090F806BAC79
:105A180018AD19EEFAEFFB120915805EAC18AD1936
:105A2800EEFAEFFB12091B8051AC18AD19EEFAEF34
:105A3800FB1209218044740212244A880C890D78CB
:105A48000C122677740212245AEEFAEFFB12092779
:105A5800740212240A8023AC18AD19EEFAEFFB1277
:105A6800092DE9F870167402122440E4F0803CAC69
:105A780018AD19EEFAEFFB120933E9F8E8602C8E3D
:105A8800828F83A3E064146022850A82850B83E0F9
:105A98009002F6F08518828519831263629002F7E6
:105AA800125FA4E8A3125AC61204A7EEFAEFFB127B
:105AB800088B7402122440E0F97403027576F07CB6
:105AC800F67D028508828509831263662274E812CE
:105AD800246474FA1223F47404122440ECF0A3ED45
:105AE800F08A128B13EA2405F50EE43513F50FEA54
:105AF8002402F510E43513F511851082F58312633D
:105B08006212059D8A0A8B0B7508007C037D00795B
:105B1800007AF67B021215B1E50E2402F516E4357B
:105B28000FF517740212244A880C890D780C122676
